:020000040800F2
:10000000C0AC0020490100084B540008594F0008BB
:10001000475300088931000845E20008000000004D
:1000200000000000000000000000000009B300080C
:100030003D33000800000000171300083BB600081D
:1000400063010008630100086301000849AA000871
:100050006301000863010008CD390008D93A00089F
:10006000053B0008393B0008653B000863010008B8
:1000700063010008630100086301000863010008D0
:1000800063010008630100086301000863010008C0
:10009000630100086301000863010008913B000848
:1000A00063010008630100086301000863010008A0
:1000B000E1B7000805B800082DB800086301000882
:1000C0006301000863010008630100086301000880
:1000D00063010008C5C20008E9C200080DC300089A
:1000E000153A000863010008630100086301000875
:1000F0006301000863010008630100086301000850
:1001000063010008630100084DB80008630100089E
:10011000A1C20008630100086DB8000889B8000892
:10012000630100086301000863010008630100081F
:10013000DFF810D000F094FE00480047990601084F
:10014000AFF30080C0AC0020064880470648004757
:10015000FEE7FEE7FEE7FEE7FEE7FEE7FEE7FEE777
:10016000FEE7FEE74DB600083101000872B67047A1
:1001700062B67047EFF3108072B6704780F3108854
:10018000704730BF704720BF7047B0FA80F07047AB
:1001900090FAA0F0B0FA80F0704790FAA0F07047A3
:1001A0002DE9F05F0546002092469B4688460646AC
:1001B000814640241BE0284641464746224600F03F
:1001C000ACFC53465A46C01A914110D3114618460A
:1001D000224600F093FC2D1A67EB01084F46224699
:1001E0000120002100F08AFC17EB00094E41201E7F
:1001F000A4F10104DFDC484631462A464346BDE807
:10020000F09F40EA01039B0703D009E008C9121FD1
:1002100008C0042AFAD203E011F8013B00F8013BC0
:10022000521EF9D27047D2B201E000F8012B491EEC
:10023000FBD270470022F6E710B513460A46044683
:100240001946FFF7F0FF204610BD30B505462A4697
:100250000B4612F8010B13F8014B08B1A042F8D07D
:100260001CB1002802D06D1CF1E7284630BD10B546
:10027000044604E00B7800F8013B03B1491C521E10
:10028000F8D2204610BDCAB2401E10F8011F8A42A3
:1002900002D00029F9D100207047421C10F8011B40
:1002A0000029FBD1801A704730B50546002003466F
:1002B00000E05B1C934205D2EC5CC85C201A01D1C3
:1002C000002CF6D130BD000070B50F4D00B9286884
:1002D000002412E00A4602E09E4203D0521C13782A
:1002E000002BF9D1DAB2224305D02BB124B1002181
:1002F00000F8011B04E00446401C0678002EE9D1FA
:100300002860204670BD00009801002010B54843C9
:10031000044610F045FA002805D00021002C02D038
:10032000641E0155FAE710BD0FB400B58DB010A9D9
:1003300009900B9000914FF0FF300A9000200C9034
:1003400005480690054807906A4609A80F9900F0ED
:100350000DFC0DB05DF814FB890B0008A70B00081D
:100360002DE9FF5FD2E901A74FF000089169994696
:100370001446DDF838B0464601988847054659EAE4
:100380000B0005D009E0A169761C01988847054655
:10039000216A284688470028F5D1681C03D05FEA07
:1003A000CA7005D015E04FF0FF3004B0BDE8F09FF3
:1003B0002068011D2160D0F800800AE05FEACA7061
:1003C00001D108F8015BA169761C7F1E019888475E
:1003D0000546002F1ADD681C18D0B9F1000F0DD0AA
:1003E000E81705EBD060421120F01F0059F82210E9
:1003F0002A1A012090400142E0D107E0BBF1000F32
:10040000DCD1216A284688470028D7D0E1690198C5
:100410008847BBF1000F07D1002E05DD5FEACA70E7
:1004200002D1002188F80010A068B84203DDBBF1BA
:10043000000F03D017B16FF00100B6E73046B4E704
:1004400070B506460EF0D8F8046805460A22002169
:10045000304600F0B9FB2C6070BDF0B480EA0102B8
:10046000D40F4200B2EB410F02D2024608461146B9
:100470004A0042D0C30DDDB2C1F3C752AD1A202DE0
:1004800035DAC1F3160141F4000204B15242C5F15C
:10049000200602FA06F12A411044B3EBD05F23D0C4
:1004A000C4B1012DA0EBC35009DCF0BC4FF00042F9
:1004B00002EAC352DBB200F5000000F0C6BB400008
:1004C00000F1807000EBC350A0F1807040EAD17061
:1004D000490009E0490841EAC071A0EBC35000F5AA
:1004E0000000400800EBC350F0BC00F0A5BB614227
:1004F000012202EB4101001BF6E7F0BC704781F0DE
:100500000041AAE780F00040A7E780EA010210B5A9
:1005100002F00043400022D04A001FD0010E01EB40
:100520001261C0F35600C2F3560240F4000042F4D8
:100530000002A0FB022000047F39140400D0401CFC
:1005400050EA124001D44000491EC2B20C0604EB2E
:10055000D010401C4008802A02D003E0002010BDCB
:1005600020F00100002900DA0020184310BD30B44B
:1005700080EA010202F0004530F0004221F0004024
:1005800013D090B1C30DD40DC2F31601C0F3160001
:10059000E41A41F4000140F400027D34914201D399
:1005A000641C00E04900002C02DA30BC00207047D7
:1005B0004FF400000023914201D3891A03434008FD
:1005C0004FEA4101F7D151B1914202D14FF00041C0
:1005D00005E002D24FF0010101E06FF0010103EBF1
:1005E000C450284430BC00F027BB2DE9FE4F8046A4
:1005F00081EA0300C00F0C46009021F0004123F077
:100600000045B8EB0200A94105D24046214690467C
:100610001C460B46024623F00040104347D0270DEE
:10062000C7F30A00C3F30A510290401A0190402810
:100630006BDAC3F3130040F4801B0098924620B19C
:100640000023D2EB030A63EB0B0B01985946C0F170
:100650004002504600F052FA06460D4650465946B2
:10066000019A00F06AFA10EB08006141002487EA61
:10067000115284EAE7731A4340D0009A62B3019A98
:10068000012A4FEA075215DC001B61EB02014FF013
:10069000004202EA0752CDE90042001C41F58011F8
:1006A00032462B4600F00EFB03B0BDE8F08F40460B
:1006B0002146F9E7001B61EB0201001C41F58013A4
:1006C00000185B412018A2F5001747EB030140EA30
:1006D000D570B6196D4111E06D084FEA360645EA4E
:1006E000C0754FEA0752001B61EB0201001C41F587
:1006F000801149084FEA30000019514132462B461B
:1007000003B0BDE8F04F00F0CEBA009801224000DF
:100710000023D0EB020263EBE073009821464FEA1E
:10072000E074B8EB000061EB0401E9E783F00043FB
:100730005BE781F0004158E72DE9FE4F81EA0304B1
:1007400004F0004421F0004100944FF0000B23F02E
:10075000004350EA01045ED052EA03045BD0C3F3C5
:100760000A54C1F30A552C44A4F2F3340194A0FBBB
:100770000254C1F3130141F48011C3F3130343F492
:10078000801301FB024400FB034E840A970A44EAEB
:10079000815447EA8357A4FB076802958D0A05FB3D
:1007A00007854FEA932C04FB0C542705029D4FEA62
:1007B000065847EA1637B5EB08056EEB070C870EAF
:1007C000920E47EA811742EA8312A7FB0201B6EBB9
:1007D0000B0164EB00042B0D43EA0C335E1844EB71
:1007E0001C50DA465146E7FB0201C5F313044FEAF9
:1007F0000B3343EA14534FEA0432019C43EA0603E5
:10080000A4F10C040294009CCDE900B400F05AFA63
:1008100003B0BDE8F08F00200146F9E72DE9F04D67
:1008200081EA030404F0004B21F0004514464FF028
:10083000000A23F0004150EA050220D054EA0102E8
:100840001DD0C5F30A570246C5F31303C1F31300C5
:10085000C1F30A5640F4801543F48013A7EB060851
:10086000101BD64608F2FD3873EB050002D308F1E1
:10087000010801E092185B41B8F1000F03DA002093
:100880000146BDE8F08D00204FF4801106468446F5
:100890000EE0171B73EB050705D3121B63EB050373
:1008A00006434CEA010C49084FEA300092185B41BC
:1008B00050EA0107EDD152EA030012D082EA0400A7
:1008C00083EA0501084305D0101BAB4106D2012283
:1008D000002306E000224FF0004302E06FF0010227
:1008E00053101AEB06004CEB085110EB0A0041EBD9
:1008F0000B01BDE8F04D00F0D6B9C10F80EAE07001
:100900000844CA079623002100F09FB996230022CD
:10091000114600F09AB90EB5C10F80EAE0700844A4
:10092000CA07002140F233438DE80E000A460B4609
:1009300000F0C8F903B000BD0EB540F2334102919A
:100940000021CDE900110A460B4600F0BBF903B0C7
:1009500000BD00F0004220F00040C10DC0F31600C1
:1009600040F400007F2901DA00207047962903DC5B
:10097000C1F19601C84001E096398840002AF4D0C0
:100980004042704720F00040C10DC0F3160040F413
:1009900000007F2901DA00207047962903DCC1F1AD
:1009A0009601C840704796398840704770B5C1F3CA
:1009B0000A5201F000450024C1F3130140F2FF3355
:1009C00041F480119A4201DA002070BD40F23343B5
:1009D0009A42A2F2334203DC524200F09EF800E059
:1009E00090402C43F1D0404270BD00F0004230F006
:1009F00000400AD0C10D01F56071C0F3160042EA53
:100A00000151C2084007114370470020014670475A
:100A100030B5041E71F1000404DB4FF00044404285
:100A200064EB0101141E73F1000405DB1C464FF05A
:100A30000043524263EB04038B4208BF824230BD45
:100A400030B5041E71F1000404DB4FF00044404255
:100A500064EB0101141E73F1000405DB1C464FF02A
:100A60000043524263EB0403994208BF904230BDF9
:100A700001F0004330B421F0004150EA010206D0F9
:100A80000A0DA2F56072C1F31301002A02DC30BC2A
:100A900000207047440F44EAC104C100E01830BC94
:100AA00000EBC25000F0C8B8002801DBC0F10040E4
:100AB000002901DBC1F1004181427047002801DBC0
:100AC000C0F10040002901DBC1F1004188427047BC
:100AD00030B50B46014600202022012409E021FA0E
:100AE00002F59D4205D303FA02F5491B04FA02F50B
:100AF0002844151EA2F10102F1DC30BD202A04DBDE
:100B0000203A00FA02F1002070479140C2F1200320
:100B100020FA03F3194390407047202A04DB203A5F
:100B200021FA02F00021704721FA02F3D040C2F10D
:100B300020029140084319467047202A06DBCB1754
:100B4000203A41FA02F043EAE07306E041FA02F388
:100B5000D040C2F12002914008431946704700007E
:100B6000026811441378016018467047D160044947
:100B700051610449116200211161114600F090B9E0
:100B8000610B00088D0E0008426842B1016811F83F
:100B9000013B23B1521EC0E90012184670470121E3
:100BA000C160881E704742685AB1C368016843B982
:100BB00083688B4205D0491E521CC0E900120020F8
:100BC00070474FF0FF3070472DE9F04791460F46D0
:100BD00080460446002614F8015B2DB100F052F95E
:100BE0000068405DC007F6D12B2D02D02D2D18D006
:100BF000641E4A463946204600F0EAFA27B13968B1
:100C0000A14201D1C7F8008071054FF002040BD555
:100C10004042002803DD0DF0EFFC0460A007BDE8B2
:100C2000F08746F48066E4E70028F8DA0DF0E4FC8B
:100C300004606FF00040F2E70029A8BF7047401C35
:100C4000490008BF20F00100704710B4B0FA80FCE2
:100C500000FA0CF050EA010404BF10BC704749B11F
:100C6000CCF1200421FA04F411FA0CF118BF01218F
:100C700021430843A3EB0C01CB1D4FEA00614FEA6F
:100C8000102042BF002010BC704700EBC35010443E
:100C90000029A4BF10BC7047401C490008BF20F0C9
:100CA000010010BC704710B5141E73F1000408DA7F
:100CB000401C41F1000192185B411A4301D120F020
:100CC000010010BD2DE9F04D92469B4611B1B1FADD
:100CD00081F202E0B0FA80F220329046FFF70EFF78
:100CE00004460F4640EA0A0041EA0B0153465A46C1
:100CF000084313D0114653EA010019D0C8F140024D
:100D00005046FFF70AFF05460E46504659464246F2
:100D1000FFF7F4FE084305D0012004E020463946E1
:100D2000BDE8F08D0020054346EAE0762C433743CA
:100D30000A986305E40AA0EB08000022FD0A44EAD1
:100D400047540A3002D500200146E9E70105101991
:100D50006941DDE9084500196941BDE8F04DA2E7A8
:100D600070B521F0004303430CD0C1F30A550024B1
:100D7000D5EB040564EB0403D617AD1AB34102DBCF
:100D80000020014670BD201841EB025170BD2DE9D5
:100D9000F04D00231A461B1A8A4103DB002001464E
:100DA000BDE8F08DC1F30A52C1F3130141F480157F
:100DB0004FF0000BD10702D100186D41521E0027E1
:100DC000044640F2FF11384601EB620A3E46804677
:100DD000024600204FF48011FFF79FFEC2197141B7
:100DE000BB1846EB0100B4EB030C75EB000C04D30D
:100DF000E41A65EB000517460E46241908F10100B8
:100E00006D4180463428E3DDF91946EB0600091BE5
:100E1000A84103D24FF0FF32134601E000221346EF
:100E20001BEB070046EB0A51BDE8F04DFFF73BBF57
:100E3000C1F30A52C1F3130140F2FF3341F48011B0
:100E40009A4202DA00200146704740F233439A4248
:100E5000A2F2334202DC5242FFF75FBEFFF74EBE02
:100E6000064C074D06E0E06840F0010394E80700F7
:100E700098471034AC42F6D3FFF75EF9A800020899
:100E8000C8000208004870474C00020810B504462C
:100E9000FFF7F8FF0068005D00F0010010BD0000E2
:100EA0002DE9F34F8BB04FF0000801F10C000C4618
:100EB0004FF0010B46460DF1080A019062690121CD
:100EC00001989047051E2DD0252D2CD0216A8847EA
:100ED000C0B16269012101989047216A88470028C2
:100EE000F7D1411E62690198904700E0761CA16924
:100EF0000B988847216A88470028F7D1E1690B9849
:100F00008847DBE7A1690B9888470746A84201D1CB
:100F1000761CD3E7E1690B9888477F1C02D1B8F1B2
:100F2000000F6FD047E1002762693D4639460198BE
:100F300090472A2804D16269012101989047012530
:100F4000DFF888926269012101989047A0F1300191
:100F50000A290AD24F45E5DC07EB870100EB410780
:100F6000303FDFD445F01005ECE7E90601D46FF01F
:100F700000476C280AD04C2814D0682815D06A285D
:100F80000DD074281CD07A281AD01DE06269012186
:100F9000019890476C2802D045F0040514E045F014
:100FA00002050DE045F020050AE062690121019883
:100FB0009047682802D045F0080505E045F4006533
:100FC0006269012101989047C4E9015765283DD025
:100FD00019DC58287AD00CDC452837D004DC2528C9
:100FE00026D0412831D131E046282FD047282CD1B6
:100FF0002CE05B2877D0612828D063287CD0642837
:1010000023D15AE0D1E06F2848D008DC66281DD0F3
:1010100067281BD0692821D06E2816D127E07028B8
:1010200045D0732868D0752847D078280DD14DE079
:10103000A1690B988847054625283FF469AFE16907
:101040000B9888476D1C3FF46AAFB4E023466A46AC
:101050006FF001000B99AFF300809FE045F0400076
:101060006060A80723464FF0000236D43EE0E80750
:101070007FF447AF2068011D21600068290501D574
:1010800006701BE7290701D5068017E7A90703D5D6
:10109000F117C0E9006111E706600FE745F0400075
:1010A0006060A80723464FF0080216D41EE040F601
:1010B0000E0125EA0100606016E045F04000606026
:1010C000A80723464FF00A0207D40FE045F040007E
:1010D0006060A80708D5234610226FF001000B9925
:1010E000AFF300805AE007E0234610226FF00100C2
:1010F0000B99AFF3008051E04FF000094F464B468B
:10110000632802D05B2807D041E02079C00601D4D3
:101110000120A06001273AE062690121019890470F
:101120005E2805D14FF00109626949460198904750
:10113000216939B900210A46534643F82120491C48
:101140000829FADBB0B3216969B9C11700EBD16294
:1011500053110AEB830122F01F02821A01200B684F
:10116000904003430B6062690121019890475D281C
:10117000E8D1B9F1000F09D00020514651F82020E4
:10118000D24341F82020401C0828F7DB02AB22465E
:1011900000976FF001000B99FFF7E2F800280CDAD6
:1011A000401C08D1BBF1000F05D04FF0FF300DB04F
:1011B000BDE8F08FFFE74046F9E7E90701D108F104
:1011C000010806444FF0000B78E60000CCCCCC0CB4
:1011D0002DE9F05F82460078002715468B460AF11C
:1011E0000104B946302801D09DB113E014F8010B79
:1011F0000127782803D0582801D045B10AE00DB165
:10120000102D07D10027102514F8010B02E0082546
:1012100000E00A250026B0460EE005FB080005FBAD
:1012200006F1012701EB10461FFA80F8B6F5803F62
:1012300000D3B94614F8010B294600F018F800282D
:10124000EBDABBF1000F05D00FB1641E00E054468D
:10125000CBF80040B9F1000F06D00DF0CDF9022116
:101260000160C81EBDE8F09F48EA0640FAE73A2848
:1012700000D2303820F02002412A01D3A2F13700F9
:10128000884201D34FF0FF30704770B58C1810F8CA
:10129000015B15F0070301D110F8013B2A1106D1BB
:1012A00010F8012B03E010F8016B01F8016B5B1ED5
:1012B000F9D12B0705D40023521E0DD401F8013BB0
:1012C000FAE710F8013BCB1A921C03E013F8015B1C
:1012D00001F8015B521EF9D5A142D8D3002070BDA0
:1012E0001D484FF6FF710170002080F309881B48EC
:1012F000016881F308881A484FF08051016062B696
:10130000FEE717484FF080510160704714484FF0D6
:1013100080510160704772B6EFF3098028B1203820
:1013200080E8F00F0F490968086000B50E48804753
:101330005DF804EB0D480E490A78027009480D4922
:101340000A680260106890E8F00F203080F3098886
:101350004EF0040E62B6704722ED00E0FC00002063
:1013600004ED00E0F40000208173000882000020FA
:1013700083000020F800002021B1826842F00102C1
:10138000826003E0826822F0010282607047000000
:1013900010B504461248844208D10121401509F0D5
:1013A0009BF90021601509F097F917E00D48844278
:1013B00008D10121001509F08FF90021201509F04D
:1013C0008BF90BE00848844208D10121C80309F0D9
:1013D00083F900214FF4004009F07EF910BD0000B0
:1013E0000024014000280140003C0140014600204B
:1013F0008A6802F004020AB1012000E00020704770
:101400000146C86C80B270470246002013680B404A
:101410000BB1012000E000207047014600208A68DF
:1014200002F008020AB1012000E00020704700002D
:1014300030B502460020002350680F4C20400D7943
:101440000C6844EA05242043506090680B4C20400F
:10145000D1E902542C434D7944EA4504204390607D
:10146000D06A20F470000C7C641EE4B2234340EA8E
:101470000350D06230BD0000FFFEF0FFFDF7F1FF2A
:10148000F0B504460D4600200021092D11DDE0686D
:10149000A5F10A0606EB4607072606FA07F1884378
:1014A000A5F10A0606EB460603FA06F10843E060DA
:1014B0000CE0206905EB4507072606FA07F188438B
:1014C00005EB450603FA06F108432061072A0FDA07
:1014D000606B561E06EB86071F2606FA07F1884347
:1014E000561E06EB860605FA06F10843606322E005
:1014F0000D2A0FDA206BD61F06EB86071F2606FA89
:1015000007F18843D61F06EB860605FA06F1084365
:10151000206310E0E06AA2F10D0606EB86071F26A5
:1015200006FA07F18843A2F10D0606EB860605FAD6
:1015300006F10843E062F0BD816841F00801816076
:10154000704721B1826842F4A002826003E08268A1
:1015500022F4A00282607047816841F0040181603A
:10156000704700002DE9F04F8BB005468B460020F8
:101570000A908246099000240890D04EDFF84093EC
:10158000D0480790D0480690102007210E22012352
:10159000CDE90232CDE904100D20CDE900300C2355
:1015A00001221146002002F0D3F8C8490860112D2D
:1015B00002D100201BF014FD4FF49C61C148FEF7DE
:1015C00039FE4FF47A71C048FEF734FE0020C9F8A6
:1015D0000000C9F80400C9F80800C9F80C00002C84
:1015E0002CD1BB48008840F64801884226DC0B20FD
:1015F0001BF0B8F9B7480068807C012805D1B6A275
:1016000001210B201BF0A0F80EE0B2480068807C9E
:1016100028B9B4A201210B201BF096F804E0B3A274
:1016200001210B201BF090F80AA800210B46012293
:10163000CDE90010084605F073FF012494B9112D7F
:1016400010D030461CF0AEFA01280BD114F066F928
:101650000AA800210B460122CDE90010084605F03A
:101660005FFF0124002C27D1112D25D0002018F078
:1016700089FC022820D00B201BF074F995480068E3
:10168000807C012805D19BA201210B201BF05CF876
:101690000EE090480068807C28B99EA201210B20B2
:1016A0001BF052F804E091A201210B201BF04CF832
:1016B000012012F031FB012486480068407D01289A
:1016C00036D1112D34D00121002001F0D5FA0028A7
:1016D0002ED00AA800210F230A46CDE900100846A3
:1016E00005F01EFF0121002001F0C6FA00B30B2017
:1016F0001BF038F977480068807C012805D18AA260
:1017000001210B201BF020F80EE072480068807C5D
:1017100028B98CA201210B201BF016F804E073A25B
:1017200001210B201BF010F8012012F0F5FA012422
:10173000112D06D02CB90E2013F0A2FC00201BF0B6
:101740004FFC002C7ED1052200210E201BF026F933
:1017500006F15C020B210E201AF0F6FF1E2200217A
:101760000E201BF01BF9012014F0C8F9DDE906106A
:1017700012F0EEFE0446002014F0C0F9002018F02C
:1017800001FC4FF49C714F480EF068FFBBF1000F55
:101790002BD04FF49C714B481AF0FCF82044C4B293
:1017A0001CB30B201BF0DEF84A480068807C01283F
:1017B00005D168A201210B201AF0C6FF0EE04548B2
:1017C0000068807C28B967A201210B201AF0BCFFB9
:1017D00004E046A201210B201AF0B6FF012012F00E
:1017E0009BFA20460BB0BDE8F08F412200210E206D
:1017F0001BF0D4F896F83C2096F889105CA00FF006
:1018000005F834480068C07BB0B132480068818870
:101810005FA00EF0FBFF4FF0000A07E0294850F8E8
:101820002A1064A00EF0F2FF0AF1010ABAF59C7FBB
:10183000F4D35FA00EF0EAFF5A2200210E201BF025
:10184000ADF800E030E0089801282DD04A46314636
:101850001C48099B09F04CFA04462CBB6422002169
:101860000E201BF09BF855A00EF0D0FFD9F8000019
:10187000FFF7BBF807463A460B4655A00EF0C6FFE9
:10188000D9F80400FFF7B1F807463A460B4654A0D2
:101890000EF0BCFFD9F80800FFF7A7F807463A4654
:1018A0000B4653A00EF0B2FF01201BF099FB21461E
:1018B00053A00EF0ABFF204694E700007C80002090
:1018C000B8810020C8810020A886002040010020A7
:1018D000780100204C0100204C6F7720706F7765F5
:1018E00072000000B5CDB5E7C1BF0000496E76615A
:1018F0006C696400506C6561736520696E73657214
:1019000074207468652072656167656E7420616714
:1019100061696E00C7EBD4D9B4CEB2E5C8EBCAD4C6
:10192000BCC1BFA82E00000052656167656E7420BF
:1019300063617264206E6F7420696E20706C6163E5
:10194000652E0000CAD4BCC1BFA8CEB4B5BDCEBB05
:101950002E00000041626E6F726D616C20746573C1
:1019600074000000D2ECB3A3B2E2CAD400000000BD
:101970007065616B5F6E756D3A2564206D61786985
:10198000756D5F6E756D3A2564200D0A00000000CC
:101990007553746172744F66667365743A2564207A
:1019A0006C696E655F736D6F74685F736C69643AC0
:1019B0000D0A0000253864200D0A00005265737579
:1019C0006C745F43616C63756C6174653A0D0A00F9
:1019D000726573756C74313A252E3466200D0A00D9
:1019E000726573756C74323A252E3466200D0A00C8
:1019F000726573756C74333A252E3466200D0A00B7
:101A0000517569636B546573743A25640D0A00005F
:101A10002DE9F0438BB0002600270024002520216B
:101A200003A8FEF707FC00200290DFF81C8287481D
:101A30000088B0F5076F23DC0B201AF093FF844871
:101A40000068807C012805D182A201210B201AF0B8
:101A50007BFE0EE07E480068807C28B980A20121D0
:101A60000B201AF071FE04E07FA201210B201AF076
:101A70006BFE012012F050F901200BB0BDE8F0839D
:101A800040461CF08FF8012803D113F047FF0120D6
:101A9000F3E76D48008918B975A00EF0B7FE01E0B4
:101AA00069480589002018F06DFA022821D00B2022
:101AB0001AF058FF66480068807C012805D16FA2A3
:101AC00001210B201AF040FE0EE061480068807C86
:101AD00028B972A201210B201AF036FE04E062A29E
:101AE00001210B201AF030FE012012F015F901201F
:101AF000C3E757480068407D012835D10121002007
:101B000001F0BAF800282FD002A800210F230A46BE
:101B1000CDE90010084605F003FD0121002001F089
:101B2000ABF808B30B201AF01DFF49480068807C11
:101B3000012805D15EA201210B201AF005FE0EE05E
:101B400043480068807C28B960A201210B201AF06C
:101B5000FBFD04E044A201210B201AF0F5FD012059
:101B600012F0DAF8012088E7102013F089FA5B48B8
:101B700018F092FB02A805F0CBFD064600243EE0DB
:101B8000102013F07DFA204604EBD0714910A4EB2D
:101B9000410181B952A0A146009004EBD970A5EB98
:101BA000600352A255A103A80CF0A8FC03AA0021CF
:101BB00010201AF0C9FD02A800231A460121009046
:101BC000464804F099FCBDF8080048B905201AF011
:101BD000C9FE19F031FE4BA00EF018FE01204CE7B3
:101BE00002A8002140F26D130A46CDE90010084614
:101BF00005F096FC002047490870601C84B2B4EBE5
:101C0000450FBDDD02A805F083FD0746B81B00EBBC
:101C100080004FF47A71B0FBF1F9B81B00EB800142
:101C20004A463DA00EF0F2FD012012F05BF80E20B6
:101C300013F026FA01211120FFF794FC002012F086
:101C400051F8002019E700007C8000207801002076
:101C50004C0100204C6F7720706F77657200000098
:101C6000B5CDB5E7C1BF0000496E76616C6964000F
:101C700054696D6520300D0A00000000506C6561EC
:101C8000736520696E73657274207468652072656F
:101C90006167656E7420616761696E00C7EBB4D3DC
:101CA000D0C2B2E5C8EBCAD4BCC1BFA82E000000A8
:101CB00052656167656E742063617264206E6F7433
:101CC00020696E20706C6163652E0000CAD4BCC1AF
:101CD000BFA8CEB4B5BDCEBB2E0000004C7F002007
:101CE000207365636F6E64732E000000506C656135
:101CF0007365207761697420000000002573253327
:101D000064257300457869745374616E646172640C
:101D10000D0A000076010020494454696D65313A8E
:101D20002564202564200D0A0000000000B587B05E
:101D300001214FF4047008F0BFFC4FF4004008F09C
:101D40008FFC0120ADF8040000208DF8070001A9E8
:101D5000174801F0F3FF1748FFF71AFB0020029025
:101D60008DF80C008DF80D004FF4602004900020D9
:101D7000059001208DF8180002A90E48FFF758FBC6
:101D800001210C48FFF7F8FA0A48FFF7D5FB00BF1E
:101D90000848FFF742FB0028FAD10648FFF7DCFBB2
:101DA00000BF0448FFF722FB0028FAD107B000BDAE
:101DB00000100140002401402DE9FC4705460E4675
:101DC00017469846DDE90A9A0C210120FEF79EFA93
:101DD000044614B90020BDE8FC87022D04DB204630
:101DE0000EF0C0F90020F6E70F4850F8250030B19A
:101DF00020460EF0B7F90C4850F8254002E00A489A
:101E000040F825402571E67053464A460E210020D1
:101E1000CDE9007809F0EEFAA060012020700020E2
:101E20006070A0702046D6E78801002070B5044697
:101E30000D460026A06801F060FDE178A06801F081
:101E40002DFDA06801F097FD20B9A06801F074FD98
:101E5000002070BD2912A06801F020FDA06801F0EB
:101E60008AFD20B9A06801F067FD0020F1E7E9B222
:101E7000A06801F013FDA06801F07DFD20B9A06805
:101E800001F05AFD0020E4E7A06801F036FDE27899
:101E9000521CD1B2A06801F001FDA06801F06BFDF9
:101EA00020B9A06801F048FD0020D2E7A06801F049
:101EB000D1FC0646A06801F0AEFCA06801F03CFD34
:101EC0003046C6E72DE9F0430646894614461F46CC
:101ED0000025A8462FB901224946304603F0D6F81E
:101EE00004E000224946304603F0D0F8002504E023
:101EF00056F825008044681CC5B2A542F8DBB8FB43
:101F0000F4F0BDE8F08310B5012008F0F5FB0020E7
:101F100008F0F2FB10BD000008B50146002000905B
:101F2000034800900098084400900098008808BD7D
:101F3000006C0040014908607047000000860D42B7
:101F400008B500220092044A0092009A02440092CE
:101F5000009A116008BD0000006C004000B585B01B
:101F6000684608F0CFFB019805B000BD10B50446E7
:101F7000A10201F18040002109F0A6FCA10201F1BB
:101F80008040012109F09DFCA10201F18040002167
:101F900009F0BFFD10BD10B50446A10201F180405B
:101FA000012109F091FC10BD2DE9F04F87B00446E6
:101FB0000D4617461E46DDE912B9DDE910A8032CCF
:101FC00003DB002007B0BDE8F08F0421A940042204
:101FD000B2401143042202FA08F21143042202FA29
:101FE00009F241EA0200012108F066FB24B1012C4C
:101FF00007D0022C0FD109E00121080308F05CFB97
:102000000BE00121880308F037FB06E00121C8033B
:1020100008F032FB01E00020D4E700BF0120B84007
:1020200080B2ADF8180010208DF81B0003208DF849
:102030001A0054490A1502FB051006A901F07EFE9C
:102040000122BA4091B24F4A131503FB052001F05B
:1020500052FF012000FA0AF080B2ADF818001820F3
:102060008DF81B0003208DF81A0046490A1502FB63
:10207000061006A901F062FE012202FA0AF291B2EC
:10208000404A131503FB062001F035FF012000FA3A
:102090000BF080B2ADF8180018208DF81B0003205B
:1020A0008DF81A0037490A1502FB081006A901F03D
:1020B00045FE012202FA0BF291B2324A131503FBDC
:1020C000082001F018FF01211498814088B2ADF872
:1020D000180018208DF81B0003208DF81A002949DC
:1020E0000A1502FB091006A901F028FE0123149A23
:1020F000934099B2234A131503FB092001F0FBFE1C
:102100000020ADF804004FF48270ADF806004FF4E3
:102110000060ADF808000220ADF80A000120ADF81B
:102120000C004002ADF80E000020ADF81000ADF834
:1021300012000720ADF8140024B1012C0BD0022CA2
:102140001BD111E001A9104809F0C0F801210E4887
:1021500008F054FF13E001A90C4809F0B7F8012179
:102160000A4808F04BFF0AE001A9094809F0AEF857
:102170000121074808F042FF01E0002022E700BFEC
:1021800001201FE7000801400030014000380040F6
:10219000003C004070B504460D466FF0040009F0A5
:1021A00038FA0B48B4FBF0F6C01090FBF5F046434C
:1021B0004FF0E020006940F002004FF0E02108619C
:1021C00008464661006940F001000861012070BDC9
:1021D00000127A002DE9F04186B004460F461546FC
:1021E0001E46DDF8308078B2002812DB78B207286E
:1021F0000FDC60B2002808DB60B2032805DA052294
:102200003946002000F020F913E0002006B0BDE8B8
:10221000F08178B20A280ADB78B20F2807DC60B2B6
:10222000002802DB60B2032803DB0020EEE7002079
:10223000ECE768B2002810DB68B207280DDC60B25A
:10224000002808DB60B2032805DA052229460020B1
:1022500000F0FAF817E00020D8E768B20A2810DB8F
:1022600068B20F280DDC60B2002808DB60B20328DA
:1022700005DA05222946022000F0E6F803E00020F6
:10228000C4E70020C2E770B2002810DB70B2072854
:102290000DDC60B2002808DB60B2032805DA0522F5
:1022A0003146002000F0D0F817E00020AEE770B211
:1022B0000A2810DB70B20F280DDC60B2002808DBA2
:1022C00060B2032805DA05223146022000F0BCF88E
:1022D00003E000209AE7002098E74FFA88F00028F2
:1022E00011DB4FFA88F007280DDC60B2002808DB0C
:1022F00060B2032805DA05224146002000F0A4F868
:1023000019E0002082E74FFA88F00A2811DB4FFA23
:1023100088F00F280DDC60B2002808DB60B20328CB
:1023200005DA05224146022000F08EF803E0002085
:102330006CE700206AE7002001908DF808008DF816
:1023400009004FF4602003900020049001208DF8D4
:10235000140024B1012C25D0022C69D145E00121C3
:10236000480208F0A9F901A93448FFF761F84FF4D1
:10237000404008F075F901213048FEF7FDFF2F4875
:10238000FFF7DAF800BF2D48FFF747F80028FAD129
:102390002A48FFF7E1F800BF2848FFF727F8002890
:1023A000FAD147E00121880208F086F901A9244802
:1023B000FFF73EF84FF4404008F052F90121204861
:1023C000FEF7DAFF1E48FFF7B7F800BF1C48FFF71B
:1023D00024F80028FAD11A48FFF7BEF800BF1848C1
:1023E000FFF704F80028FAD124E00121C80308F01F
:1023F00063F901A91348FFF71BF84FF4404008F0B8
:102400002FF901210F48FEF7B7FF0E48FFF794F8A8
:1024100000BF0C48FFF701F80028FAD10948FFF780
:102420009BF800BF0748FEF7E1FF0028FAD101E062
:102430000020EBE600BF0120E8E600000024014098
:1024400000280140003C0140F8B505460C46164600
:10245000072D01DB0020F8BD102C01DB0020FAE77E
:10246000062E01DB0020F6E7042101FA05F0012128
:1024700008F022F9022D0CD10D2C01D00E2C08D120
:10248000012008F0E7F8002008F0C4F90020FFF769
:1024900051FD012D03D1032C04D0042C02D02DB901
:1024A0000F2C03D10121264801F0D4FC5DB90D2C7D
:1024B00001D00E2C07D10121084608F0FDF80121BA
:1024C0001F4801F0C7FC0120A04080B2ADF8000019
:1024D000062E1CD2DFE806F003070B0F13170420AB
:1024E0008DF8030015E010208DF8030011E0142092
:1024F0008DF803000DE028208DF8030009E0482046
:102500008DF8030005E000208DF8030001E00020B5
:10251000A1E700BF03208DF802000A490A1502FB5B
:102520000510694601F00AFC022D06D10D2C01D0E0
:102530000E2C02D1002008F08DF801208BE700005E
:1025400000023000000801402DE9FF4780460F4699
:1025500000200390019002900090B8F1070F02DB79
:1025600004B0BDE8F087102F01DB0020F8E704215C
:1025700001FA08F141F00100012108F09DF8B8F1DD
:10258000020F0CD10D2F01D00E2F08D1012008F021
:1025900061F8002008F03EF90020FFF7CBFC012095
:1025A000B84080B2ADF80C0004208DF80F00032075
:1025B0008DF80E0057490A1502FB081003A901F017
:1025C000BDFBB8F1020F06D10D2F01D00E2F02D1A5
:1025D000002008F03FF84FF4A06002F06FFFB8F160
:1025E000070F1AD2DFE808F004070A0D10131600CF
:1025F0004FF0000913E04FF0010910E04FF002091D
:102600000DE04FF003090AE04FF0040907E04FF036
:10261000050904E04FF0060901E00020A0E700BF33
:10262000102F51D2DFE807F0080C1014181C2024DA
:10263000282D32373C41464B06250124002645E033
:1026400007250224012641E00825042402263DE056
:1026500009250824032639E00A251024042635E03C
:1026600017252024052631E01725402406262DE0D5
:1026700017258024072629E017254FF480740826A3
:1026800024E017254FF4007409261FE028254FF495
:1026900080640A261AE028254FF400640B2615E012
:1026A00028254FF480540C2610E028254FF40054C0
:1026B0000D260BE028254FF480440E2606E0282541
:1026C0004FF400440F2601E0002049E700BFE8B2C4
:1026D0008DF8000001208DF801008DF802008DF8C2
:1026E0000300684602F0B2FE204601F0A3FA31462C
:1026F000484601F003FB019400208DF808001020EB
:102700008DF8090001208DF80A0001A801F0ACFA4B
:10271000012025E7000801402DE9FF4780460F46CC
:1027200000200390019002900090B8F1070F02DBA7
:1027300004B0BDE8F087102F01DB0020F8E704218A
:1027400001FA08F141F00100012107F0B5FFB8F1ED
:10275000020F0CD10D2F01D00E2F08D1012007F050
:1027600079FF002008F056F80020FFF7E3FB012076
:10277000B84080B2ADF80C0048208DF80F0003205F
:102780008DF80E0057490A1502FB081003A901F045
:10279000D5FAB8F1020F06D10D2F01D00E2F02D1BC
:1027A000002007F057FF4FF4A06002F087FEB8F159
:1027B000070F1AD2DFE808F004070A0D10131600FD
:1027C0004FF0000913E04FF0010910E04FF002094B
:1027D0000DE04FF003090AE04FF0040907E04FF065
:1027E000050904E04FF0060901E00020A0E700BF62
:1027F000102F51D2DFE807F0080C1014181C202409
:10280000282D32373C41464B06250124002645E061
:1028100007250224012641E00825042402263DE084
:1028200009250824032639E00A251024042635E06A
:1028300017252024052631E01725402406262DE003
:1028400017258024072629E017254FF480740826D1
:1028500024E017254FF4007409261FE028254FF4C3
:1028600080640A261AE028254FF400640B2615E040
:1028700028254FF480540C2610E028254FF40054EE
:102880000D260BE028254FF480440E2606E028256F
:102890004FF400440F2601E0002049E700BFE8B2F2
:1028A0008DF8000001208DF801008DF802008DF8F0
:1028B0000300684602F0CAFD204601F0BBF931462C
:1028C000484601F01BFA019400208DF80800102002
:1028D0008DF8090001208DF80A0001A801F0C4F963
:1028E000012025E7000801407FB504460D46164645
:1028F00000200190029003900090012101FA04F061
:1029000007F0BAFE062C1CD2DFE804F003070B0F19
:1029100013171C208DF8000016E01D208DF8000014
:1029200012E01E208DF800000EE032208DF800002D
:102930000AE036208DF8000006E037208DF8000010
:1029400002E0002004B070BD00BF4FF4A06002F0B0
:10295000B5FD01208DF801008DF802008DF803000F
:10296000684602F073FDA10201F1804008F0B8FF53
:1029700001A809F023F9ADF80850ADF80460002073
:10298000ADF80A00ADF80600A10201F1804001A9EE
:1029900009F0C2F8A10201F18040002108F082FF95
:1029A000A10201F18040202109F0A8F8A10201F163
:1029B0008040012108F082FFA10201F18040012244
:1029C000114609F092F80120BCE700002DE9F0471C
:1029D00086B005460F4614469846DDE90E9A35B195
:1029E000012D09D0022D0CD0032D14D10EE00121B0
:1029F000880307F061FE12E00121480407F03CFE65
:102A00000DE00121880407F037FE08E00121C80429
:102A100007F032FE03E0002006B0BDE8F08700BFFB
:102A20000421A140042202FA09F2114341F00100FD
:102A3000012107F041FE35B1012D0BD0022D10D040
:102A4000032D1ED11CE0012C03D10121042001F033
:102A500001FA18E0032C03D10121082001F0FAF952
:102A600011E0022C04D10121554801F0F3F906E0F0
:102A7000032C04D101215248203001F0EBF902E08F
:102A800001E00020C8E700BF012000FA08F080B292
:102A9000ADF8140018208DF8170003208DF81600EB
:102AA00048490A1502FB041005A901F047F9012065
:102AB00000FA0AF080B2ADF8140004208DF8170077
:102AC0004049020202FB091005A901F037F90197FC
:102AD0000020ADF80800ADF80A00ADF80C00ADF824
:102AE00010000C20ADF80E0035B1012D0ED0022DD6
:102AF00016D0032D28D11DE001A9334809F082FC2E
:102B00000121314809F023FC25261FE001A92F48A7
:102B100009F078FC01212D4809F019FC262615E062
:102B200001A92B4809F06EFC0121294809F00FFC8E
:102B300027260BE001A9274809F064FC012125485C
:102B400009F005FC342601E0002065E700BF4FF4E2
:102B5000A06002F0B3FC8DF8006001208DF8010048
:102B60008DF802008DF80300684602F06FFC35B165
:102B7000012D0BD0022D10D0032D1CD114E0012209
:102B800040F22551104809F018FC16E0012240F2ED
:102B900025510E4809F011FC0FE0012240F22551A9
:102BA0000B4809F00AFC08E0012240F225510948CF
:102BB00009F003FC01E000202EE700BF01202BE715
:102BC000100014000008014000380140004400409B
:102BD00000480040004C004070B504460D4624B14A
:102BE000012C17D0022C3FD129E001231A46294697
:102BF0001E48FEF745FC01211C48FEF7A2FC00BF61
:102C000002211A48FEF700FC0028F9D01748FEF709
:102C1000F7FB70BD01231A4629461548FEF730FC24
:102C200001211348FEF78DFC00BF02211048FEF77A
:102C3000EBFB0028F9D00E48FEF7E2FBE9E70123A1
:102C40001A4629460B48FEF71BFC01210948FEF7EE
:102C500078FC00BF02210748FEF7D6FB0028F9D018
:102C60000448FEF7CDFBD4E70020D2E70024014062
:102C700000280140003C014070B504460D46012289
:102C8000AA4091B2054A131503FB042001F02AF96A
:102C900008B1012070BD0020FCE7000000080140E1
:102CA00070B504460D46A9B2A20202F1804008F0B8
:102CB0002EFF70BD70B505460026002405E0601C9F
:102CC000C4B2C82C01DD002070BD0021284600F0F0
:102CD00035F80028F3D04FF6FF71284600F07EF853
:102CE000002405E0601CC4B2C82C01DD0020EBE725
:102CF0000121284600F022F80028F3D025B1012D4B
:102D000007D0022D0FD109E0094808F0DAFA06468B
:102D10000BE0084808F0D5FA064606E0064808F039
:102D2000D0FA064601E00020CEE700BF3046CBE7F0
:102D30000030014000380040003C004070B50446BF
:102D40000D4615B1012D2ED116E024B1012C07D06E
:102D5000022C0FD109E00221144808F0A9FA70BD35
:102D60000221134808F0A4FAF9E70221114808F0FB
:102D70009FFAF4E70020F2E724B1012C07D0022CDF
:102D80000FD109E00121094808F092FAE7E7012193
:102D9000074808F08DFAE2E70121064808F088FAB2
:102DA000DDE70020DBE70020D9E70000003001402C
:102DB00000380040003C004070B504460D46164601
:102DC0000122AA4091B2044A131503FB04203246A3
:102DD00001F093F8012070BD0008014070B5044671
:102DE0000D4624B1012C07D0022C0FD109E0294651
:102DF000094808F069FA0BE02946084808F064FA27
:102E000006E02946064808F05FFA01E0002070BDA0
:102E100000BF0120FBE70000003001400038004007
:102E2000003C004010B50748006848B105490868F3
:102E30000BF033FB022803D0024908680BF0CAFBF1
:102E400010BD0000888B002010B50748406848B1CD
:102E5000054948680BF021FB022803D00249486865
:102E60000BF0B8FB10BD0000888B002010B50748A0
:102E7000806848B1054988680BF00FFB022803D031
:102E8000024988680BF0A6FB10BD0000888B00206B
:102E900010B50748C06848B10549C8680BF0FDFA8D
:102EA000022803D00249C8680BF094FB10BD000053
:102EB000888B002010B502F075FC1C4809F00EFB51
:102EC000C4B21B48008800F4004058BB1848008872
:102ED00000F4804060B10A2C03D00020144908801F
:102EE00020E01348008840F400401149088019E0B0
:102EF0000D2C06D10E48008840F480400C49088013
:102F000010E00B480088C0F30D000A490C54084833
:102F10000088401C06490880084600887F2801DD9B
:102F20000020088002F054FC10BD00000038014071
:102F30002C0100205C73002038B50020009002F0C6
:102F400031FC264809F0CAFAC4B22548008800F4CA
:102F5000004000283ED12248008800F48040C0B1E3
:102F60004B2C03D000201E49088033E01C48008809
:102F7000C0F30D001B490C541948008840F4004070
:102F8000174908806A464FF40041174803F0A4FB34
:102F900020E013480088C0F30D0012490C5410487B
:102FA0000088401C0E4908804F2C05D10846008837
:102FB00040F4804008800DE009480088B0F5006FBB
:102FC00008DB6A464FF40041074803F085FB002008
:102FD0000349088002F0FCFB38BD000000440040BB
:102FE0002E010020DC730020C47F002010B502F009
:102FF000D9FB1C4809F072FAC4B21B48008800F4DF
:10300000004058BB1848008800F4804060B10A2C8A
:1030100003D000201449088020E01348008840F4C1
:1030200000401149088019E00D2C06D10E48008897
:1030300040F480400C49088010E00B480088C0F341
:103040000D000A490C5408480088401C06490880B5
:10305000084600887F2801DD0020088002F0B8FBC8
:1030600010BD00000048004030010020DC7B002043
:1030700038B50020009002F095FB334809F02EFA95
:10308000C4B2324801880088401C304A1080304861
:103090004454FF2C4DD12F480078401C2D49087016
:1030A00008460078032190FBF1F201FB1200012891
:1030B00004D126480078284908703AE0254800786D
:1030C000032190FBF1F201FB120002280ED12248ED
:1030D0000078401C1D490988884202D001201D4902
:1030E00008701A4800781C49087022E019480078D6
:1030F000032190FBF1F201FB1200D0B916480078D1
:10310000401C12490988884207D0012011490870E3
:103110000E480078104908700BE000200D49087037
:103120006A464FF400410D4803F0D6FA00200C49DE
:103130000870064800887F2802DD002003490880C7
:1031400002F046FB38BD0000004C00403201002078
:103150005C7C0020800100207F010020847E002014
:103160007601002070B504460D4616460122AA409D
:1031700091B2044A131503FB0420324600F0BDFE51
:1031800070BD00000008014000BFFEE710B500F070
:103190001FF800F019F810BD10B5002400BF00BFE3
:1031A000FCF7E8FF044600BF00BF1021054802F00D
:1031B000CCF800BF00BF2046FCF7E0FF00BF00BF17
:1031C00010BD0000A801002010B5FFF7E5FF10BDFD
:1031D00010B500200249086000F00AF810BD000098
:1031E00028000020014908607047000028000020E6
:1031F00010B5FEF7B3FE04460848006840F0807042
:10320000064908600020064948600846006840F00A
:10321000010008602046FFF7E5FF10BDFCED00E06F
:10322000001000E00149486870470000001000E00D
:1032300010B5044614212D48FCF7FCFFD62C1AD1FA
:103240002B480068807C012805D12AA22DA127489F
:103250000BF054F948E026480068807C28B92AA27F
:1032600028A122480BF04AF93EE022A225A11F48DE
:103270000BF044F938E0D52C1AD11D480068807C49
:10328000012805D122A21FA118480BF037F92BE025
:1032900017480068807C28B921A21AA113480BF0B6
:1032A0002DF921E01AA217A110480BF027F91BE015
:1032B000AF2C19D10E480068807C012805D11BA2D3
:1032C00010A10A480BF01AF90EE009480068807C4A
:1032D00028B918A20BA105480BF010F904E013A2BD
:1032E00008A102480BF00AF9002010BDD28A002084
:1032F0004C01002057686F6C652020626C6F6F6412
:103300000000000025730000C8ABD1AA0000000037
:10331000536572756D2F506C61736D610000000014
:10332000D1AAC7E52FD1AABDAC0000004F746865D3
:1033300072000000C6E4CBFB0000000070470000F4
:103340007FB5044600260025FC210120FCF7DEFFA6
:10335000054615B9002004B070BDFC2145A00DF054
:1033600055FA60221102484807F0A8FE4648C28A72
:10337000018B46A00DF04AFAE62C21D14B48B0F95A
:1033800000004B4A02EB0031FC22284607F096FE73
:103390004848807847494978464A1278454B1B7916
:1033A000CDE90032CDE902104248C378C28842A17B
:1033B00005F1BA000BF0A2F8284601F089FD4CE0B7
:1033C000F42C12D13048808A401E3849B1F90010DF
:1033D000884206DD35480088401C00B23349088029
:1033E0002EE00020314908802AE0F52C19D12F4821
:1033F000B0F90000002806DD2C480088401E00B20D
:103400002A4908801CE02048808A401E00B22749D3
:1034100008800846B0F90000002811DC0020088070
:103420000EE01948008B401E002806D41648008B79
:10343000401E00B21D49088002E000201B490880A0
:103440001A48B0F900001A4A02EB0031FC22284663
:1034500007F034FE284600F04FF81448B0F9001089
:103460001DA00DF0D3F915B128460CF07BFE3046B7
:1034700071E7000047594B393530452053697A656B
:103480003A25640D0A000000088100206869737401
:103490006F7279206E756D3A25642073657269616B
:1034A0006C5F6E756D3A25640D0A00005C010020AA
:1034B00000D0120012010020253034642D25303256
:1034C000642D2530326420253032643A2530326450
:1034D0003A25303264000000675F755265636F7291
:1034E00064486973746F727950616765206E756D99
:1034F0003A2564200D0A000010B588B0044620214A
:103500006846FCF797FE082011F0BAFD20216846B6
:10351000FCF790FE94F84400FF2806D004F1440222
:103520000121082019F010F904E040A2012108202F
:1035300019F00AF920216846FCF77CFE94F8300067
:10354000FF2806D004F130020221082019F0FCF80F
:1035500004E036A20221082019F0F6F8202168467E
:10356000FCF768FE94F87400FF2806D004F174029A
:103570000321082019F0E8F804E02CA20321082018
:1035800019F0E2F820216846FCF754FE94F8A200F6
:10359000FF2806D004F1A2020421082019F0D4F873
:1035A00004E022A20421082019F0CEF82021684668
:1035B000FCF740FE94F88800FF2806D004F188024A
:1035C0000521082019F0C0F804E018A20521082000
:1035D00019F0BAF820216846FCF72CFE94F8800018
:1035E000FF2806D004F180020621082019F0ACF86B
:1035F00004E00EA20621082019F0A6F82021684652
:10360000FCF718FE94F86000FF2806D004F1600271
:103610000721082019F098F804E004A207210820E7
:1036200019F092F8002008B010BD00000000000062
:1036300070B50446002560221102364807F03EFDB1
:10364000344890F84A1034A00DF0E0F8AD2C13D1B6
:10365000304890F84900401E354991F900108842E1
:1036600006DD33480078401C40B23149087036E02E
:1036700000202F49087032E0AE2C1AD12C4890F966
:103680000000002806DD2A480078401E40B2284984
:10369000087024E01F4890F84900401E40B22449B9
:1036A0000870084690F90000002818DC0020087017
:1036B00015E0184890F84A00FF280DD0154890F8FA
:1036C0004A00401E002807D4124890F84A00401EC5
:1036D00040B21749087002E00020154908701448EC
:1036E00090F900004FF4482202EB003138221148D3
:1036F00007F0E4FC0E480078401CC1B20D4811F000
:1037000023FD0B4890F900100BA00DF07FF8284620
:1037100070BD000008810020757265666572656E77
:10372000636520636F756E743A2564200D0A00008E
:103730005E01002068810020757265666572656EA5
:103740006365206E756D3A2564200D0A0000000047
:103750002DE9F04F85B005460E4617469846DDE93F
:1037600010ABDDF83C9018210120FCF7CFFD04469A
:103770001CB9002005B0BDE8F08F022D04DB204607
:103780000CF0F0FC0020F5E7184850F8250030B1A7
:1037900020460CF0E7FC154850F8254002E013489D
:1037A00040F82540A5712673677384F80E800E9843
:1037B000E07384F8109084F811A084F812B0129885
:1037C000E07413982075DDE912108DE8000ECDE944
:1037D00003104246394630460E9BFEF7E5FB0120BA
:1037E000207000206080A0802046C3E79001002068
:1037F00010B50246002307E0108983B200BF181EEF
:10380000A3F10104A3B2FAD1081EA1F10104A1B2EF
:10381000F2D1012010BD10B50446002120460AF067
:103820003DFD20460AF068FD012120460AF045FDD5
:1038300002212046FFF7DCFF012120460AF02EFD81
:1038400002212046FFF7D4FF002120460AF026FD82
:10385000012010BD70B50646002530460AF03CFD3B
:10386000002417E0002130460AF018FD02213046FE
:10387000FFF7BEFF012130460AF010FD30460AF086
:1038800005FD40EA4500C5B201213046FFF7B0FF13
:10389000601CC4B2082CE5DB284670BD70B5064636
:1038A0000C4630460AF028FD002130460AF0F6FCAE
:1038B00000251EE0E00920B1012130460AF0FDFCA0
:1038C00003E0002130460AF0F8FC6006040E0121F6
:1038D0003046FFF78DFF012130460AF0DFFC022160
:1038E0003046FFF785FF002130460AF0D7FC681C00
:1038F000C5B2082DDEDB012070BD10B504462046A0
:103900000AF0FAFC012120460AF0D7FC01212046EA
:103910000AF0C4FC04212046FFF76AFF002120467C
:103920000AF0CBFC04212046FFF762FF002120466D
:103930000AF0B4FC012010BD10B5044620460AF080
:10394000DBFC002120460AF0A9FC002120460AF0F9
:10395000B4FC04212046FFF74BFF012120460AF06A
:10396000ACFC04212046FFF743FF012120460AF06A
:1039700095FC012010BD70B50546002428460AF0CC
:10398000ABFC012128460AF098FC01212846FFF7EC
:103990002FFF012128460AF081FC01212846FFF76C
:1039A00027FF08E0601C84B2FA2C04DD2846FFF7EC
:1039B000C3FF002070BD28460AF068FC0028F1D142
:1039C000002128460AF06AFC0120F3E708B5002030
:1039D000009001F0E7FE012000F032F998B10120DB
:1039E00000F028F90948006810B1084908688047C4
:1039F00000210120FFF740F928B96A464FF4004141
:103A0000034802F069FE01F0E3FE08BD488B002088
:103A1000247F002010B501F0C5FE4FF4806000F057
:103A20000FF948B14FF4806000F004F92948806A2A
:103A300010B12849886A80474FF4006000F000F90F
:103A400048B14FF4006000F0F5F82248C06A10B1A8
:103A50002049C86A80474FF4805000F0F1F848B11F
:103A60004FF4805000F0E6F81A48006B10B1194985
:103A7000086B80474FF4005000F0E2F848B14FF473
:103A8000005000F0D7F81348406B10B11149486B53
:103A900080474FF4804000F0D3F848B14FF48040A5
:103AA00000F0C8F80B48806B10B10A49886B80475A
:103AB0004FF4004000F0C4F848B14FF4004000F06B
:103AC000B9F80448C06B10B10249C86B804701F0D7
:103AD0007FFE10BD488B002010B501F063FE022070
:103AE00000F0AEF840B1022000F0A4F804484068AD
:103AF00010B103494868804701F06AFE10BD00001C
:103B0000488B002010B501F04DFE042000F098F81D
:103B100060B1042000F08EF80648806810B10549B5
:103B20008868804702210846FFF7A6F801F050FE9A
:103B300010BD0000488B002010B501F033FE0820B6
:103B400000F07EF840B1082000F074F80448C06826
:103B500010B10349C868804701F03AFE10BD00006B
:103B6000488B002010B501F01DFE102000F068F811
:103B700040B1102000F05EF80448006910B103491C
:103B80000869804701F024FE10BD0000488B00202A
:103B900010B501F007FE202000F052F840B12020BF
:103BA00000F048F82248406910B12149486980472F
:103BB000402000F045F840B1402000F03BF81C48A0
:103BC000806910B11A4988698047802000F038F870
:103BD00040B1802000F02EF81548C06910B114499A
:103BE000C86980474FF4807000F02AF868B14FF43C
:103BF000807000F01FF80E48006A10B10C49086A86
:103C0000804708210020FFF737F84FF4007000F0DC
:103C100017F848B14FF4007000F00CF80448406AFF
:103C200010B10349486A804701F0D2FD10BD000081
:103C3000488B0020014908607047000014040140CF
:103C4000014600200022074B1B6803EA0102054BD6
:103C500014331B680B4013B10AB1012000E00020AF
:103C60007047000000040140002123498279002AA6
:103C70003AD00A46126803689A430B461A600A1D36
:103C8000126803689A430B1D1A60027911440A688E
:103C900003681A430A60184A0832126803689A4394
:103CA000154B08331A601A1D126803689A43124BA9
:103CB0000C331A604279102A0ED11A1F1268036859
:103CC0001A430D4B08331A601A1D126803681A4311
:103CD000094B0C331A600DE00749427911440A6818
:103CE00003681A430A6005E0027911440A68036810
:103CF0009A430A60704700000004014030B500227A
:103D00008B071C0F0F2303FA04F20B4B8C1053F894
:103D100024309343084C8D1044F8253023468C10F2
:103D200053F824308C07240F00FA04F42343024C88
:103D30008D1044F8253030BD080001402DE9F041D8
:103D4000024600250026002000230024002791F8C9
:103D500003C00CF00F0591F803C00CF0100CBCF17F
:103D6000000F03D091F802C04CEA050591F800C09D
:103D7000BCF1000F31D0146800202BE04FF0010C93
:103D80000CFA00F3B1F800C00CEA03069E4220D101
:103D900083004FF00F0C0CFA03F7BC4305FA03FC49
:103DA0004CEA040491F803C0BCF1280F06D14FF08F
:103DB000010C0CFA00FCC2F814C00AE091F803C030
:103DC000BCF1480F05D14FF0010C0CFA00FCC2F811
:103DD00010C0401C0828D1D31460B1F800C0BCF159
:103DE000FF0F34DD546800202EE000F1080C4FF086
:103DF000010808FA0CF3B1F800C00CEA03069E4271
:103E000021D183004FF00F0C0CFA03F7BC4305FAE5
:103E100003FC4CEA040491F803C0BCF1280F05D15F
:103E200000F1080C08FA0CF8C2F8148091F803C0ED
:103E3000BCF1480F07D100F1080C4FF0010808FA57
:103E40000CF8C2F81080401C0828CED35460BDE89E
:103E5000F0810000F0B50A4600230024002100256F
:103E600000F00046B6F1004F02D11D4EF16901E0AD
:103E70001B4E7168C0F3034583B200F44016B6F5DB
:103E8000401F08D121F07061154E766826F07066EB
:103E9000134F7E6012E000F48016B6F5801F06D145
:103EA000032606FA05F4A14341F0706106E0460DD1
:103EB000360103FA06F6B14341F0706122B1460DB6
:103EC000360103FA06F6314300F00046B6F1004F22
:103ED00002D1034EF16101E0014E7160F0BD0000BE
:103EE000000001400246002093680B400BB1012006
:103EF00000E000207047016170470AB1016100E0F5
:103F00004161704710B5044601231A46214609480D
:103F1000FDF7B6FA01210748FDF713FB00BF0221A8
:103F20000448FDF771FA0028F9D00248FDF768FA55
:103F300010BD0000002401402DE9F04107460C4669
:103F40000025002600BF06E03846FFF7DBFF2844C7
:103F500085B2701CC6B2A642F6DB95FBF4F080B2C7
:103F6000BDE8F08130B5ADF2044D05464FF47A71ED
:103F700007A8FCF75FF900240FF060FC00287DD152
:103F80003023332298A107A80AF0B8FA07A813F043
:103F900098FD84B2002007A9CDE900050819002387
:103FA0001A4694A10AF0AAFA07A813F08AFD84B26F
:103FB00007A9081994A3302294A10AF09FFA07A830
:103FC00013F07FFD84B294A105F13000502200234C
:103FD000CDE90032CDE9020107A908191423112205
:103FE0008FA10AF08BFA07A813F06BFD84B205F1DC
:103FF000DA0091A10022CDE90021029007A9081959
:1040000013468FA10AF07AFA07A813F05AFD84B27A
:1040100005F1F6008FA291A305F1DA01CDE9033293
:10402000029105908FA00021CDE9001007A9081981
:1040300000231A468DA10AF061FA07A813F041FD8A
:1040400084B205F1440090A10022CDE90021029044
:1040500007A9081913467AA10AF050FA07A813F025
:1040600030FD84B205F1600089A10022CDE9002174
:10407000029007A90819134671A100E0AAE00AF00E
:104080003DFA07A813F01DFD84B205F1A20083A13B
:104090000022CDE90021029007A90819134668A162
:1040A0000AF02CFA07A813F00CFD84B27EA00021C0
:1040B000CDE9001007A9081900231A464DA10AF0FE
:1040C0001DFA07A813F0FDFC84B27FA00021CDE902
:1040D000001007A9081900231A4646A10AF00EFA93
:1040E00007A813F0EEFC84B205F1D2007EA205F120
:1040F00074017FA3CDE90231CDE90420A23800216B
:10410000CDE9001007A9081900231A4657A10AF0A3
:10411000F5F907A813F0D5FC84B205F1880076A163
:104120000022CDE90021029007A90819134644A1F5
:104130000AF0E4F907A813F0C4FC84B25AA00021E5
:10414000CDE9001007A9081900231A4629A10AF091
:10415000D5F907A813F0B5FC84B26AA00021CDE917
:10416000001007A9081900231A4622A10AF0C6F96F
:1041700007A813F0A6FC84B207A9081922A33022CD
:1041800022A10AF0BBF907A813F09BFC84B203211B
:1041900005F1BA0061A20023CDE90032CDE90201A8
:1041A00007A908191A4660A10AF0A8F907A813F090
:1041B00088FC84B2B4F57A7F11D2B4F5FA7F0ADDB7
:1041C0004FF4FA7107A80FF0E5FCA4F5FA7184A882
:1041D0000FF0E0FC03E0214607A80FF0DBFC002015
:1041E0000DF2044D30BD00001B401B256325630DFF
:1041F0000A0D0A001B401D2125631B24256325632E
:1042000025730D0A00000000200000001B401B3336
:10421000256325730D0A000020B1A8B8E600000050
:104220001B401D2125631B24256325631B33256348
:10423000257325730D0A0000D0D5C3FB3A0000009A
:104240001B401D2125631B242563256325732573CE
:104250000D0A0000C4EAC1E43A000000202020203A
:1042600000000000D0D4B1F03A0000001B401D2136
:1042700025631B2425632563257325732573257307
:1042800025730D0A00000000C1F7CBAEBAC53A0095
:10429000D1F9B1BEC0E0D0CD3A000000B2E2CAD43C
:1042A000CAB1BCE43A0000002D2D2D2D2D2D2D2D51
:1042B0002D2D2D2D2D2D2D2D2D2D2D2D2D2D2D2D2E
:1042C0002D2D2D2D2D2D2D00CFEEC4BF20202020F3
:1042D0002020202020BDE1B9FB202020202020200C
:1042E000B5A5CEBB0000000020202020202000002B
:1042F0002020202020202000B2CEBFBCB7B6CEA701
:104300003A000000B1BEBDE1B9FBBDF6B6D4B1BE06
:10431000B7DDB1EAB1BEB8BAD4F02100B4F2D3A18E
:10432000CAB1BCE43A0000001B401D2125631B24D8
:1043300025632563257325731B6425630000000036
:104340007CB50446002511F08DFD054602201AF0CB
:1043500077FCA4A00CF05AFA01223321A2A00CF0A1
:1043600055FAA3A00CF052FAA1A00CF04FFA9DA0B0
:104370000CF04CFA00219FA00CF048FA00221146E4
:104380009EA00CF043FA21469EA00CF03FFA98A0A4
:104390000CF03CFA93A00CF039FA0F22332192A0D2
:1043A0000CF034FA98A00CF031FA91A00CF02EFA2F
:1043B0008CA00CF02BFA11218EA00CF027FA002211
:1043C00014218EA00CF022FA5022332186A00CF08A
:1043D0001DFA8EA204F130018EA00CF017FA84A011
:1043E0000CF014FA7FA00CF011FA002181A00CF05F
:1043F0000DFA0022114681A00CF008FA04F1DA014E
:1044000086A00CF003FA7AA00CF000FA75A00CF06C
:10441000FDF9002177A00CF0F9F90022114677A0F0
:104420000CF0F4F904F1F6037EA204F1EE017FA092
:104430000CF0ECF96EA00CF0E9F96AA00CF0E6F9CA
:1044400000216CA00CF0E2F9002211466BA00CF0E8
:10445000DDF904F144027AA16EA00CF0D7F964A052
:104460000CF0D4F95FA00CF0D1F9002161A00CF0A0
:10447000CDF90022114661A00CF0C8F904F16002E8
:1044800071A164A00CF0C2F959A00CF0BFF955A0BD
:104490000CF0BCF9002157A00CF0B8F9002211462D
:1044A00056A00CF0B3F904F1A2016AA00CF0AEF929
:1044B0004FA00CF0ABF94BA00CF0A8F900214DA0D7
:1044C0000CF0A4F9002211464CA00CF09FF964A155
:1044D0004CA00CF09BF946A00CF098F941A00CF010
:1044E00095F9002143A00CF091F90022114643A058
:1044F0000CF08CF962A143A00CF088F93CA00CF000
:1045000085F938A00CF082F900213AA00CF07EF970
:104510000022114639A00CF079F904F1D20060A113
:1045200004F1740360A2CDE9001004F1300160A031
:104530000CF06CF92EA00CF069F92AA00CF066F9C9
:1045400000212CA00CF062F9002211462BA00CF0E7
:104550005DF904F1880159A00CF058F924A00CF081
:1045600055F920A00CF052F9002122A00CF04EF9D0
:104570000022114621A00CF049F939A121A00CF02C
:1045800045F91BA00CF042F916A00CF03FF90021F0
:1045900018A00CF03BF90022114618A00CF036F9D7
:1045A0004AA118A00CF032F911A00CF02FF90DA0BF
:1045B0000CF02CF900210FA00CF028F90022114674
:1045C0000EA00CF023F904F1BA0146A00CF01EF97C
:1045D0000322642104A00CF019F928461AF030FBDC
:1045E00000207CBD1B4000001B25632563000000EC
:1045F0000D0A00001D212563000000001B24256317
:1046000025630000257300002000000020B1A8B839
:10461000E60000002573257300000000D0D5C3FB21
:104620003A2573002020202000000000D0D4B1F0F3
:104630003A257320257320C4EAC1E43A25730000AB
:10464000C1F7CBAEBAC53A00D1F9B1BEC0E0D0CD0A
:104650003A000000B2E2CAD4CAB1BCE43A25730001
:104660002D2D2D2D2D2D2D2D2D2D2D2D2D2D2D2D7A
:104670002D2D2D2D2D2D2D2D2D2D2D2D2D2D2D0097
:10468000CFEEC4BF202020202020202020BDE1B973
:10469000FB20202020202020B5A5CEBB000000005C
:1046A000202020202020000020202020202020006A
:1046B000257325732573257325730000B2CEBFBC07
:1046C000B7B6CEA73A20257300000000B1BEBDE109
:1046D000B9FBBDF6B6D4B1BEB7DDB1EAB1BEB8BA6A
:1046E000D4F02100B4F2D3A1CAB1BCE43A257300DE
:1046F00070B5ADF5806D05464FF47A7106A8FBF7ED
:1047000099FD002400260FF099F80646002E7DD171
:104710003023332298A106A809F0F0FE06A813F072
:10472000D0F984B2002006A9CDE9000508190023BC
:104730001A4694A109F0E2FE06A813F0C2F984B269
:1047400006A9081994A3302294A109F0D7FE06A85F
:1047500013F0B7F984B294A105F130005022002380
:10476000CDE90032CDE9020106A90819142311226E
:104770008FA109F0C3FE06A813F0A3F984B205F1D6
:10478000DA0091A10022CDE90021029006A90819C2
:1047900013468FA109F0B2FE06A813F092F984B275
:1047A00005F1F6008FA291A305F1DA01CDE90332FC
:1047B000029105908FA00021CDE9001006A90819EB
:1047C00000231A468DA109F099FE06A813F079F985
:1047D00084B205F1440090A10022CDE900210290AD
:1047E00006A9081913467AA109F088FE06A813F055
:1047F00068F984B205F160008BA10022CDE90021A7
:10480000029006A90819134671A100E0AAE009F078
:1048100075FE06A813F055F984B205F1A20086A131
:104820000022CDE90021029006A90819134668A1CB
:1048300009F064FE06A813F044F984B281A00021B7
:10484000CDE9001006A9081900231A464DA109F068
:1048500055FE06A813F035F984B282A00021CDE9F7
:10486000001006A9081900231A4646A109F046FEC1
:1048700006A813F026F984B205F1D20081A205F151
:10488000740182A3CDE90231CDE90420A2380021D0
:10489000CDE9001006A9081900231A4657A109F00E
:1048A0002DFE06A813F00DF984B205F1880079A158
:1048B0000022CDE90021029006A90819134644A15F
:1048C00009F01CFE06A813F0FCF884B25DA00021DC
:1048D000CDE9001006A9081900231A4629A109F0FC
:1048E0000DFE06A813F0EDF884B26FA00021CDE90B
:1048F000001006A9081900231A4622A109F0FEFD9E
:1049000006A813F0DEF884B206A9081922A3302203
:1049100022A109F0F3FD06A813F0D3F884B2032115
:1049200005F1BA006AA20023CDE90032CDE9020107
:1049300006A908191A4669A109F0E0FD06A813F0B6
:10494000C0F884B2B4F57A7F11D2B4F5FA7F0ADDEB
:104950004FF4FA7106A80FF01DF9A4F5FA7183A8B7
:104960000FF018F903E0214606A80FF013F9002014
:104970000DF5806D70BD00001B401B256325630D88
:104980000A0D0A001B401D2125631B242563256396
:1049900025730D0A00000000200000001B401B339F
:1049A000256325730D0A0000205265706F72740034
:1049B0001B401D2125631B24256325631B332563B1
:1049C000257325730D0A00004E616D653A000000E5
:1049D0001B401D2125631B24256325632573257337
:1049E0000D0A00004167653A0000000020202020E9
:1049F0000000000047656E6465723A001B401D218F
:104A000025631B242563256325732573257325736F
:104A100025730D0A0000000053657269616C206EF9
:104A2000756D6265723A000053616D706C6520743B
:104A30007970653A00000000546573742054696D04
:104A4000653A00002D2D2D2D2D2D2D2D2D2D2D2DAB
:104A50002D2D2D2D2D2D2D2D2D2D2D2D2D2D2D2D86
:104A60002D2D2D004974656D202020202020202030
:104A700020526573756C7420202020202020556EF4
:104A80006974000020202020202000002020202009
:104A9000202020005265666572656E636520526154
:104AA0006E67653A00000000546869732072657390
:104AB000756C74206973206F6E6C7920666F72203C
:104AC000746869732020202073616D706C652E00FE
:104AD0005072696E742054696D653A001B401D2147
:104AE00025631B2425632563257325731B642563B8
:104AF000000000007CB50446002511F0B3F905461E
:104B000002201AF09DF8A4A00BF080FE01223321B0
:104B1000A2A00BF07BFEA3A00BF078FEA1A00BF0EF
:104B200075FE9DA00BF072FE00219FA00BF06EFEA3
:104B3000002211469EA00BF069FE21469EA00BF0BC
:104B400065FE98A00BF062FE93A00BF05FFE0F22B3
:104B5000332192A00BF05AFE98A00BF057FE91A0C3
:104B60000BF054FE8CA00BF051FE11218EA00BF027
:104B70004DFE002214218EA00BF048FE502233215E
:104B800086A00BF043FE8EA204F130018EA00BF044
:104B90003DFE84A00BF03AFE7FA00BF037FE002113
:104BA00081A00BF033FE0022114681A00BF02EFEF7
:104BB00004F1DA0186A00BF029FE7AA00BF026FEA4
:104BC00075A00BF023FE002177A00BF01FFE002242
:104BD000114677A00BF01AFE04F1F6037EA204F151
:104BE000EE017FA00BF012FE6EA00BF00FFE6AA08C
:104BF0000BF00CFE00216CA00BF008FE0022114609
:104C00006BA00BF003FE04F144027AA16EA00BF03E
:104C1000FDFD64A00BF0FAFD5FA00BF0F7FD002195
:104C200061A00BF0F3FD0022114661A00BF0EEFD38
:104C300004F1600273A164A00BF0E8FD59A00BF031
:104C4000E5FD55A00BF0E2FD002157A00BF0DEFDC5
:104C50000022114656A00BF0D9FD04F1A2016DA06F
:104C60000BF0D4FD4FA00BF0D1FD4BA00BF0CEFD0F
:104C700000214DA00BF0CAFD002211464CA00BF004
:104C8000C5FD67A14CA00BF0C1FD46A00BF0BEFD19
:104C900041A00BF0BBFD002143A00BF0B7FD0022AB
:104CA000114643A00BF0B2FD65A143A00BF0AEFD91
:104CB0003CA00BF0ABFD38A00BF0A8FD00213AA002
:104CC0000BF0A4FD0022114639A00BF09FFD04F16A
:104CD000D20063A104F1740363A2CDE9001004F1D2
:104CE000300163A00BF092FD2EA00BF08FFD2AA0E7
:104CF0000BF08CFD00212CA00BF088FD002211464A
:104D00002BA00BF083FD04F188015CA00BF07EFD6D
:104D100024A00BF07BFD20A00BF078FD002122A049
:104D20000BF074FD0022114621A00BF06FFD3CA199
:104D300021A00BF06BFD1BA00BF068FD16A00BF083
:104D400065FD002118A00BF061FD0022114618A09E
:104D50000BF05CFD4EA118A00BF058FD11A00BF05C
:104D600055FD0DA00BF052FD00210FA00BF04EFDE4
:104D7000002211460EA00BF049FD04F1BA0151A02A
:104D80000BF044FD0322642104A00BF03FFD2846F4
:104D900019F056FF00207CBD1B4000001B25632539
:104DA000630000000D0A00001D21256300000000C3
:104DB0001B242563256300002573000020000000EC
:104DC000205265706F727400257325730000000017
:104DD0004E616D653A257300202020200000000000
:104DE00047656E6465723A257320257320416765B7
:104DF0003A25730053657269616C206E756D62654A
:104E0000723A000053616D706C6520747970653A78
:104E10000000000044617465413A25730000000001
:104E20002D2D2D2D2D2D2D2D2D2D2D2D2D2D2D2DB2
:104E30002D2D2D2D2D2D2D2D2D2D2D2D2D2D2D00CF
:104E40004974656D20202020202020202052657389
:104E5000756C7420202020202020556E697400007D
:104E600020202020202000002020202020202000A2
:104E700025732573257325732573000052656665B8
:104E800072656E63652052616E67653A2025730016
:104E90005468697320726573756C74206973206F30
:104EA0006E6C7920726573706F6E7369626C6520C9
:104EB000666F7220746869732073706563696D65CD
:104EC0006E2E000044617465423A257300000000B4
:104ED00070B505460024284610F0CAFF04460CB100
:104EE000012070BD14480068807C01280ED128463E
:104EF000FFF700FE044610480068407C012803D1FB
:104F00002846FFF7F5FB04462046EAE70A48006812
:104F1000807C70B92846FFF713FA044606480068FB
:104F2000407C012803D12846FFF71CF804462046A0
:104F3000D7E70020D5E700004C01002010B504465B
:104F4000204609F004FA204609F01CFA204609F030
:104F5000F5F9A080A08810BD09E0012251020448A3
:104F6000FEF7CBFF002204210148FEF7C6FFF4E75D
:104F7000000C01402DE9F05F054689469246BAF1E2
:104F8000000F24D001261FE005EBC600D0E9007811
:104F9000741E07E005EBC40103C9621C05EBC202E5
:104FA00003C2641E002C09DB05EBC4003A464346ED
:104FB000D0E900B15846FBF72BFDEBD3601C05EBA5
:104FC000C000C0E90078761C4E45DDD325E00126FF
:104FD00021E005EBC600D0E90078741E09E005EB7E
:104FE000C400D0E90010621C05EBC202C2E9001047
:104FF000641E002C09DB05EBC401D1E900B13A467F
:1050000043465846FBF71CFDE9D3601C05EBC00086
:10501000C0E90078761C4E45DBD3BDE8F09FF0B5C3
:1050200003460C461546C5B1012113E033F81120A3
:10503000481E05E033F81070461C23F81670401E19
:10504000002803DB33F810609642F3DB461C23F89C
:105050001620491CA142E9DB17E0012113E033F8D7
:105060001120481E05E033F81070461C23F8167016
:10507000401E002803DB33F810609642F3DC461C28
:1050800023F81620491CA142E9DBF0BDF0B5034628
:105090000C461546C5B1012113E053F82120481EE6
:1050A00005E053F82070461C43F82670401E002887
:1050B00003DB53F820609642F3D3461C43F82620C6
:1050C000491CA142E9D317E0012113E053F8212044
:1050D000481E05E053F82070461C43F82670401E19
:1050E000002803DB53F820609642F3D8461C43F8AF
:1050F0002620491CA142E9D3F0BD0146CA1701EBA5
:1051000092729210A1EB820292B9642091FBF0F2AC
:1051100000FB121050B94FF4C87091FBF0F200FB85
:10512000121008B9012070470020FCE70120FAE7BF
:105130000020F8E72DE9F04F8BB006468846174669
:10514000994600250024A2460C210120FBF7DEF839
:1051500004461CB900200BB0BDE8F08F4FF07E5024
:10516000206060600020A060002C6DD065E056F8E3
:1051700025003946FBF798FC5DD2691C56F82100E2
:105180003946FBF79BFC56D205F1010C009456F80A
:105190002C3056F82C2056F8251056F8250006F02D
:1051A00016FA0446606880F0004B38462168FBF729
:1051B000ACF90890A168FBF750F959460990FBF744
:1051C000D6F98246514630460AF058FE8246691C9E
:1051D00056F82100FBF709FCCDE9080156F8250037
:1051E000FBF703FCCDE90601DDE90801CDE900018B
:1051F00029461AA0DDE906230BF008FBA068FBF79F
:10520000F4FBCDE908016068FBF7EFFBCDE906018F
:105210002068FBF7EAFBCDE90401DDE90801CDE9EF
:105220000201DDE90601CDE9000115A0DDE9042355
:105230000BF0ECFA03E0681CC5B20E2D97DB00BF43
:105240000E2D01D1DFF850A05246494640460CF0E1
:10525000DDF920460AF086FF00207CE77065737058
:105260006F6E73657E706573706F6E7365202564F5
:105270003A252E346620252E3466200D0A000000C3
:10528000613A252E346620623A252E346620633A30
:10529000252E3466200D0A000AD7233C2DE9FF4F46
:1052A00087B005460E461746DDE918ABDDF85C9081
:1052B000DDF8508008210120FBF728F804461CB9CE
:1052C00000200BB0BDE8F08F1C2D04DB20460AF057
:1052D00049FF0020F5E7144850F8250030B120467A
:1052E0000AF040FF104850F8254002E00E4840F810
:1052F0002540A570169802A9A1E8010E1598CDE9E0
:1053000000803A46072128460A9B06F0B7F86060FD
:10531000002020700A2E00DA0A2666703146606886
:1053200006F00AF92046CCE7C88B002070B5044689
:105330000D460A2D00DA0A2565702946606806F0D8
:10534000FBF8012070BD00BFFEE730B505460C46F6
:1053500022460021284600F001F830BD2DE9F04139
:1053600005460B4694460027002402E03F021F43F7
:10537000641C042CFAD3604605F00306294646B1A6
:10538000344603E001F8013B401E641C08B1042CC4
:10539000F8D30A4601E080C2001F0428FBD2114660
:1053A00002E001F8013B401E0028FAD1BDE8F0817F
:1053B00010B5012211461046FDF7D4FE4FF47A7263
:1053C00020210748006805F0B5F8012209210220D4
:1053D000FDF7C8FE0248006805F0E0F810BD0000C7
:1053E0003401002010B5012211461046FDF7BAFE27
:1053F0004FF47A7220210748006805F09BF80022DC
:1054000009210220FDF7AEFE0248006805F0C6F84B
:1054100010BD00003401002010B5044654B901222B
:1054200008210220FDF79EFE002201210846FDF71B
:1054300099FE09E0012211461046FDF793FE002275
:1054400008210220FDF78EFE10BD704770B50021C7
:1054500000230F22C47804B3154C246804F4E064DC
:10546000C4F5E064210AC1F10403CA40447804FA97
:1054700003F184781440214309010E4C0678A155AC
:10548000047804F01F050124AC4005786D11AD00CF
:1054900005F1E025C5F8004109E0047804F01F0596
:1054A0000124AC40044D0678761145F8264070BDC5
:1054B0000CED00E000E400E080E100E0024901437F
:1054C000024A1160704700000000FA050CED00E090
:1054D00015481648164817481748184818481948D4
:1054E00019481A481A481B481B481C481C481D48A4
:1054F0001D481E481E481F481F4820482048214874
:105500002148224822482348234824482448254843
:105510002548264826482748274828482848294813
:10552000294800BF70470000C4F7010824F70108AC
:1055300028F701082CF7010830F7010834F70108B3
:1055400038F701083CF7010840F7010844F7010863
:1055500048F701084CF7010850F7010854F7010813
:1055600058F701085CF7010860F7010864F70108C3
:1055700068F701086CF7010870F7010874F7010873
:1055800078F701087CF7010880F7010884F7010823
:1055900088F701088CF7010890F7010894F70108D3
:1055A00098F701089CF70108A0F70108A4F7010883
:1055B000A8F70108ACF70108B0F70108B4F7010833
:1055C000B8F70108BCF70108C0F7010810B5034897
:1055D000006810B101480068804710BD40000020FD
:1055E00070B5044600F0C2F80020484908704849E8
:1055F00008704849087048490860484908604849A7
:105600000870484908704849087048490860484986
:1056100008604849086048490870484800680A21FD
:10562000B0FBF1F0464908604648006858B146486A
:10563000056845B14348066803E0761E00202860EF
:105640002D1D002EF9D10020404908604049086016
:105650004049086040490860404908604049086086
:10566000404908604049087003F050F803F048F9D9
:10567000204602F06BF9208800B170BD204602F090
:105680004DFD208800B1F8E7204602F06FFD20882C
:1056900000B1F2E7204602F087FE208800B1ECE777
:1056A000204603F07BF8208800B1E6E7204603F0AF
:1056B000B7FA208800B1E0E7204603F0D9FD208842
:1056C00000B1DAE7204602F095FC208800B1D4E76B
:1056D000204602F0ADFA208800B1CEE7204604F063
:1056E00037FD208800B1C8E7204603F005FD20887B
:1056F00000B1C2E7204604F087FD208800B1BCE776
:1057000002F04CF8FFF7E4FE00BFB6E754000020BB
:10571000550000209C000020F4000020F80000202C
:1057200082000020830000208400002090000020E0
:105730009400002098000020A400002084F70108B5
:10574000A000002054F7010850F7010834000020A1
:10575000380000203C0000204000002044000020D1
:10576000480000204C000020D20000200A4A1168A6
:10577000002002E0002204C1401C084A1268904246
:10578000F8D3054A1268054B1B6802EB8302121F0F
:10579000034B1A607047000050F7010854F70108E6
:1057A000FC00002008480078012800D07047074816
:1057B0000078FA2800DBF9E704480078401C034928
:1057C000087000BFF2E700005500002054000020E0
:1057D00010B500242E480078012800D010BD00BF6D
:1057E000FAF7C8FC044600BF2A48007828B900BF71
:1057F0002046FAF7C3FC00BFF0E726480078401EB9
:105800002449087008460078002805DD00BF2046BE
:10581000FAF7B4FC00BFE1E71F480078002805DD77
:1058200000BF2046FAF7AAFC00BFD7E702F05AFFF4
:105830001A4908700846007800EB4000184951F8F2
:10584000200018490860084600681749096888421E
:1058500005D100BF2046FAF791FC00BFBEE7114812
:105860000068D0F89000401C0E490968C1F890000B
:105870000E480068401C0D4908604FF080500C49EC
:10588000086000BF2046FAF779FC00BF00BFA5E71B
:1058900055000020540000209C00002083000020C0
:1058A000DC170020F8000020F4000020C8000020D1
:1058B00004ED00E02DE9F04104460E4615460027B0
:1058C00029480078002804DD42F6E1602880BDE820
:1058D000F0811CB945F6C3502880F8E700BF00BF2F
:1058E00000BFFAF747FC074600BF00BF1F4800781B
:1058F000401C1E49087000BF00BF3846FAF73EFC46
:1059000000BF00BF00BF1A48206066600020206210
:1059100084F82500A062402084F8240004F10800E7
:1059200002F0F9FD204602F027FD12480088401CD5
:105930001049088000BF00BF00BFFAF71BFC0746F4
:1059400000BF00BF09480078401E0849087000BF2A
:1059500000BF3846FAF712FC00BF00BF00BF0020AE
:10596000288000BFB3E70000540000209C00002006
:105970004D555458800000202DE9F04788B0054669
:10598000894690461C46109E4FF0000AAB480078AE
:10599000002805DD46F2AE10308008B0BDE8F08783
:1059A0001DB945F6C3503080F7E7B8F1000F03D0BA
:1059B000B8F5004F02D100E000BF03E045F62560D6
:1059C0003080EAE700BF9E492868884203D045F648
:1059D000C4503080E1E70CB10020206000BF00BF60
:1059E000FAF7C8FB824600BF00BF95F82500C0B992
:1059F0009448006828629348006890F8370085F85A
:105A00002400012085F825000CB1A86A206000BFA1
:105A100000BF5046FAF7B2FB00BF00BF0020308045
:105A2000BBE78849286A0968884212D195F82500A1
:105A3000401C85F825000CB1A86A206000BF00BF9B
:105A40005046FAF79BFB00BF00BF45F282703080E2
:105A5000A3E708F4004050B100BF00BF5046FAF77A
:105A60008DFB00BF00BF46F2B010308095E776484E
:105A7000007800280ADD00BF00BF5046FAF77EFB21
:105A800000BF00BF46F66350308086E700BF6E4817
:105A90000078401C6C49087000BF00BF5046FAF700
:105AA0006DFB00BF00BF00BF2F6A97F83700654944
:105AB000096891F83710884260DD97F836000828A9
:105AC0002AD2DFE800F004151E1F171620213846E1
:105AD00002F09EFF5B48006890F8370087F83700B7
