:020000040800F2
:1000000060A700204901000871200008B11F000806
:1000100007200008D91700087F7E000800000000B4
:1000200000000000000000000000000095760008BD
:10003000751A00080000000093090008A97700085D
:10004000630100086301000863010008F9710008FA
:100050006301000863010008791A0008851B000885
:10006000B11B0008E51B0008111C00086301000813
:1000700063010008630100086301000863010008D0
:1000800063010008630100086301000863010008C0
:100090006301000863010008630100083D1C0008BB
:1000A00063010008630100086301000863010008A0
:1000B000197800083D780008657800086301000899
:1000C0006301000863010008630100086301000880
:1000D00063010008257A0008FD7A0008217B0008EA
:1000E000C11A0008630100086301000863010008E9
:1000F0006301000863010008630100086301000850
:1001000063010008630100088578000863010008A6
:100110005979000863010008A5780008C178000833
:10012000630100086301000863010008630100081F
:10013000DFF810D000F074FB00480047598D00082C
:10014000AFF3008060A700200648804706480047BC
:10015000FEE7FEE7FEE7FEE7FEE7FEE7FEE7FEE777
:10016000FEE7FEE7B97700083101000872B6704774
:1001700062B67047EFF3108072B6704780F3108854
:10018000704730BF704720BF7047B0FA80F07047AB
:1001900090FAA0F0B0FA80F0704790FAA0F07047A3
:1001A0002DE9F05F0546002092469B4688460646AC
:1001B000814640241BE0284641464746224600F03F
:1001C00060FA53465A46C01A914110D31146184658
:1001D000224600F047FA2D1A67EB01084F462246E7
:1001E0000120002100F03EFA17EB00094E41201ECD
:1001F000A4F10104DFDC484631462A464346BDE807
:10020000F09F40EA01039B0703D009E008C9121FD1
:1002100008C0042AFAD203E011F8013B00F8013BC0
:10022000521EF9D27047D2B201E000F8012B491EEC
:10023000FBD270470022F6E710B513460A46044683
:100240001946FFF7F0FF204610BD30B505462A4697
:100250000B4612F8010B13F8014B08B1A042F8D07D
:100260001CB1002802D06D1CF1E7284630BD421CAD
:1002700010F8011B0029FBD1801A704770B50F4D93
:1002800000B92868002412E00A4602E09E4203D02A
:10029000521C1378002BF9D1DAB2224305D02BB1CE
:1002A00024B1002100F8011B04E00446401C06783C
:1002B000002EE9D12860204670BD000060010020BA
:1002C00010B54843044608F0CBFD002805D00021B6
:1002D000002C02D0641E0155FAE710BD70B5064629
:1002E00007F0ECFE046805460A220021304600F0C3
:1002F000EAF92C6070BD2DE9FE4F804681EA0300CB
:10030000C00F0C46009021F0004123F00045B8EBEF
:100310000200A94105D24046214690461C460B46A4
:10032000024623F00040104347D0270DC7F30A00D0
:10033000C3F30A510290401A019040286BDAC3F3CC
:10034000130040F4801B0098924620B10023D2EBAA
:10035000030A63EB0B0B01985946C0F1400250466B
:1003600000F080F906460D4650465946019A00F0C5
:1003700098F910EB08006141002487EA115284EAE1
:10038000E7731A4340D0009A62B3019A012A4FEAF8
:10039000075215DC001B61EB02014FF0004202EA3C
:1003A0000752CDE90042001C41F5801132462B4630
:1003B00000F0D0F903B0BDE8F08F40462146F9E7E0
:1003C000001B61EB0201001C41F5801300185B412A
:1003D0002018A2F5001747EB030140EAD570B619C3
:1003E0006D4111E06D084FEA360645EAC0754FEAE7
:1003F0000752001B61EB0201001C41F58011490806
:100400004FEA30000019514132462B4603B0BDE897
:10041000F04F00F090B90098012240000023D0EB8B
:10042000020263EBE073009821464FEAE074B8EBF8
:10043000000061EB0401E9E783F000435BE781F032
:10044000004158E72DE9FE4F81EA030404F000441F
:1004500021F0004100944FF0000B23F0004350EADC
:1004600001045ED052EA03045BD0C3F30A54C1F323
:100470000A552C44A4F2F3340194A0FB0254C1F3B6
:10048000130141F48011C3F3130343F4801301FB00
:10049000024400FB034E840A970A44EA815447EA67
:1004A0008357A4FB076802958D0A05FB07854FEA71
:1004B000932C04FB0C542705029D4FEA065847EA8B
:1004C0001637B5EB08056EEB070C870E920E47EA60
:1004D000811742EA8312A7FB0201B6EB0B0164EB22
:1004E00000042B0D43EA0C335E1844EB1C50DA4633
:1004F0005146E7FB0201C5F313044FEA0B3343EA0D
:1005000014534FEA0432019C43EA0603A4F10C049D
:100510000294009CCDE900B400F01CF903B0BDE8E2
:10052000F08F00200146F9E72DE9F04D81EA030440
:1005300004F0004B21F0004514464FF0000A23F070
:10054000004150EA050220D054EA01021DD0C5F353
:100550000A570246C5F31303C1F31300C1F30A5649
:1005600040F4801543F48013A7EB0608101BD64611
:1005700008F2FD3873EB050002D308F1010801E031
:1005800092185B41B8F1000F03DA00200146BDE884
:10059000F08D00204FF48011064684460EE0171BB4
:1005A00073EB050705D3121B63EB050306434CEA07
:1005B000010C49084FEA300092185B4150EA0107EC
:1005C000EDD152EA030012D082EA040083EA050169
:1005D000084305D0101BAB4106D20122002306E0E0
:1005E00000224FF0004302E06FF0010253101AEBBB
:1005F00006004CEB085110EB0A0041EB0B01BDE883
:10060000F04D00F098B8000030B5041E71F1000400
:1006100004DB4FF00044404264EB0101141E73F10F
:10062000000405DB1C464FF00043524263EB040319
:10063000994208BF904230BD30B50B4601460020BC
:100640002022012409E021FA02F59D4205D303FA94
:1006500002F5491B04FA02F52844151EA2F1010215
:10066000F1DC30BD202A04DB203A00FA02F1002040
:1006700070479140C2F1200320FA03F319439040E0
:100680007047202A04DB203A21FA02F0002170474B
:1006900021FA02F3D040C2F12002914008431946EA
:1006A0007047202A06DBCB17203A41FA02F043EAD2
:1006B000E07306E041FA02F3D040C2F1200291401B
:1006C0000843194670472DE9F04791460F4680468A
:1006D0000446002614F8015B2DB100F0B3F8006861
:1006E000405DC007F6D12B2D02D02D2D18D0641EF1
:1006F0004A463946204600F0A9F827B13968A14298
:1007000001D1C7F8008071054FF002040BD54042BB
:10071000002803DD07F0D2FC0460A007BDE8F087E5
:1007200046F48066E4E70028F8DA07F0C7FC0460C6
:100730006FF00040F2E710B5141E73F1000408DA00
:10074000401C41F1000192185B411A4301D120F095
:10075000010010BD2DE9F04D92469B4611B1B1FA52
:1007600081F202E0B0FA80F220329046FFF77AFF81
:1007700004460F4640EA0A0041EA0B0153465A4636
:10078000084313D0114653EA010019D0C8F14002C2
:100790005046FFF776FF05460E46504659464246FC
:1007A000FFF760FF084305D0012004E020463946EA
:1007B000BDE8F08D0020054346EAE0762C43374340
:1007C0000A986305E40AA0EB08000022FD0A44EA47
:1007D00047540A3002D500200146E9E70105101907
:1007E0006941DDE9084500196941BDE8F04DA2E71E
:1007F000C1F30A52C1F3130140F2FF3341F48011F7
:100800009A4202DA00200146704740F233439A428E
:10081000A2F2334202DC5242FFF733BFFFF722BF9E
:10082000064C074D06E0E06840F0010394E807003D
:1008300098471034AC42F6D3FFF77EFCE89D0008E1
:10084000089E000800487047E49D00082DE9F05F0D
:1008500082460078002715468B460AF10104B94606
:10086000302801D09DB113E014F8010B012778283E
:1008700003D0582801D045B10AE00DB1102D07D1A1
:100880000027102514F8010B02E0082500E00A25D6
:100890000026B0460EE005FB080005FB06F1012727
:1008A00001EB10461FFA80F8B6F5803F00D3B94639
:1008B00014F8010B294600F018F80028EBDABBF118
:1008C000000F05D00FB1641E00E05446CBF8004085
:1008D000B9F1000F06D007F0F1FB02210160C81E3C
:1008E000BDE8F09F48EA0640FAE73A2800D23038DF
:1008F00020F02002412A01D3A2F13700884201D31F
:100900004FF0FF30704770B58C1810F8015B15F090
:10091000070301D110F8013B2A1106D110F8012B71
:1009200003E010F8016B01F8016B5B1EF9D12B0796
:1009300005D40023521E0DD401F8013BFAE710F84C
:10094000013BCB1A921C03E013F8015B01F8015B39
:10095000521EF9D5A142D8D3002070BD1D484FF6D4
:10096000FF710170002080F309881B48016881F342
:1009700008881A484FF08051016062B6FEE71748B8
:100980004FF080510160704714484FF08051016072
:10099000704772B6EFF3098028B1203880E8F00F75
:1009A0000F490968086000B50E4880475DF804EB00
:1009B0000D480E490A78027009480D490A6802601C
:1009C000106890E8F00F203080F309884EF0040E94
:1009D00062B6704722ED00E0FC00002004ED00E06C
:1009E000F4000020E93C0008820000208300002081
:1009F000F800002021B1826842F00102826003E029
:100A0000826822F0010282607047000010B504463F
:100A10001248844208D10121401506F07BFA0021DA
:100A2000601506F077FA17E00D48844208D10121DD
:100A3000001506F06FFA0021201506F06BFA0BE0A6
:100A40000848844208D10121C80306F063FA002156
:100A50004FF4004006F05EFA10BD00000024014093
:100A600000280140003C0140014600208A6802F055
:100A700004020AB1012000E0002070470146002076
:100A80008A6802F008020AB1012000E000207047E5
:100A900030B502460020002350680F4C20400D79ED
:100AA0000C6844EA05242043506090680B4C2040B9
:100AB000D1E902542C434D7944EA45042043906027
:100AC000D06A20F470000C7C641EE4B2234340EA38
:100AD0000350D06230BD0000FFFEF0FFFDF7F1FFD4
:100AE000816841F0080181607047816841F004012C
:100AF0008160704700B587B001214FF4047006F0A3
:100B0000F9F94FF4004006F0C9F90120ADF80400EE
:100B100000208DF8070001A9174801F065F9174872
:100B2000FFF774FF002002908DF80C008DF80D0087
:100B30004FF4602004900020059001208DF81800EB
:100B400002A90E48FFF7A4FF01210C48FFF752FF4E
:100B50000A48FFF7C5FF00BF0848FFF78FFF0028CE
:100B6000FAD10648FFF7C1FF00BF0448FFF77CFF3A
:100B70000028FAD107B000BD001001400024014058
:100B8000014908607047000000860D4200B585B03D
:100B9000684606F0CFF9019805B000BD10B50446CF
:100BA000A10201F18040002106F09BFEA10201F1AB
:100BB0008040012106F092FEA10201F18040002157
:100BC00006F0AEFE10BD10B50446A10201F1804052
:100BD000012106F086FE10BD70B504460D466FF08B
:100BE000040006F0CDFD0B48B4FBF0F6C01090FBFE
:100BF000F5F046434FF0E020006940F002004FF06E
:100C0000E021086108464661006940F00100086182
:100C1000012070BD00127A002DE9F04186B0044633
:100C20000F4615461E46DDF8308078B2002812DBEC
:100C300078B207280FDC60B2002808DB60B2032816
:100C400005DA05223946002000F020F913E00020E3
:100C500006B0BDE8F08178B20A280ADB78B20F2826
:100C600007DC60B2002802DB60B2032803DB00204F
:100C7000EEE70020ECE768B2002810DB68B2072836
:100C80000DDC60B2002808DB60B2032805DA05221B
:100C90002946002000F0FAF817E00020D8E768B2F3
:100CA0000A2810DB68B20F280DDC60B2002808DBD0
:100CB00060B2032805DA05222946022000F0E6F892
:100CC00003E00020C4E70020C2E770B2002810DB78
:100CD00070B207280DDC60B2002808DB60B2032880
:100CE00005DA05223146002000F0D0F817E0002098
:100CF000AEE770B20A2810DB70B20F280DDC60B2CC
:100D0000002808DB60B2032805DA052231460220FC
:100D100000F0BCF803E000209AE7002098E74FFAC3
:100D200088F0002811DB4FFA88F007280DDC60B24C
:100D3000002808DB60B2032805DA052241460020BE
:100D400000F0A4F819E0002082E74FFA88F00A28A2
:100D500011DB4FFA88F00F280DDC60B2002808DBA9
:100D600060B2032805DA05224146022000F08EF821
:100D700003E000206CE700206AE7002001908DF876
:100D800008008DF809004FF46020039000200490C3
:100D900001208DF8140024B1012C25D0022C69D13A
:100DA00045E00121480206F0A5F801A93448FFF703
:100DB0006FFE4FF4404006F071F801213048FFF714
:100DC00019FE2F48FFF78CFE00BF2D48FFF756FE97
:100DD0000028FAD12A48FFF788FE00BF2848FFF70D
:100DE00043FE0028FAD147E00121880206F082F88C
:100DF00001A92448FFF74CFE4FF4404006F04EF89E
:100E000001212048FFF7F6FD1E48FFF769FE00BFED
:100E10001C48FFF733FE0028FAD11A48FFF765FE99
:100E200000BF1848FFF720FE0028FAD124E0012176
:100E3000C80306F05FF801A91348FFF729FE4FF435
:100E4000404006F02BF801210F48FFF7D3FD0E4874
:100E5000FFF746FE00BF0C48FFF710FE0028FAD14E
:100E60000948FFF742FE00BF0748FFF7FDFD0028D5
:100E7000FAD101E00020EBE600BF0120E8E6000027
:100E80000024014000280140003C0140F8B505461F
:100E90000C461646072D01DB0020F8BD102C01DBA7
:100EA0000020FAE7062E01DB0020F6E7042101FA14
:100EB00005F0012106F01EF8022D0CD10D2C01D0F9
:100EC0000E2C08D1012005F0E3FF002006F09CF86D
:100ED0000020FFF755FE012D03D1032C04D0042C74
:100EE00002D02DB90F2C03D10121264801F008F8BA
:100EF0005DB90D2C01D00E2C07D10121084605F05B
:100F0000F9FF01211F4800F0FBFF0120A04080B243
:100F1000ADF80000062E1CD2DFE806F003070B0F29
:100F2000131704208DF8030015E010208DF803003E
:100F300011E014208DF803000DE028208DF8030047
:100F400009E048208DF8030005E000208DF803003B
:100F500001E00020A1E700BF03208DF802000A494C
:100F60000A1502FB0510694600F03EFF022D06D16E
:100F70000D2C01D00E2C02D1002005F089FF01209C
:100F80008BE7000000023000000801402DE9FF4718
:100F900080460F4600200390019002900090B8F127
:100FA000070F02DB04B0BDE8F087102F01DB002043
:100FB000F8E7042101FA08F141F00100012105F0F0
:100FC00099FFB8F1020F0CD10D2F01D00E2F08D1CF
:100FD000012005F05DFF002006F016F80020FFF765
:100FE000CFFD0120B84080B2ADF80C0004208DF890
:100FF0000F0003208DF80E0057490A1502FB081058
:1010000003A900F0F1FEB8F1020F06D10D2F01D0B7
:101010000E2F02D1002005F03BFF4FF4A06001F03D
:1010200061F8B8F1070F1AD2DFE808F004070A0DDB
:10103000101316004FF0000913E04FF0010910E003
:101040004FF002090DE04FF003090AE04FF00409E8
:1010500007E04FF0050904E04FF0060901E0002029
:10106000A0E700BF102F51D2DFE807F0080C1014E2
:10107000181C2024282D32373C41464B06250124DC
:10108000002645E007250224012641E00825042426
:1010900002263DE009250824032639E00A2510240C
:1010A000042635E017252024052631E017254024A5
:1010B00006262DE017258024072629E017254FF462
:1010C0008074082624E017254FF4007409261FE0D9
:1010D00028254FF480640A261AE028254FF400647E
:1010E0000B2615E028254FF480540C2610E0282507
:1010F0004FF400540D260BE028254FF480440E26B3
:1011000006E028254FF400440F2601E0002049E7BF
:1011100000BFE8B28DF8000001208DF801008DF8C5
:1011200002008DF80300684600F0A4FF204600F09E
:10113000D7FD3146484600F037FE019400208DF877
:10114000080010208DF8090001208DF80A0001A880
:1011500000F0E0FD012025E7000801402DE9FF47F0
:1011600080460F4600200390019002900090B8F155
:10117000070F02DB04B0BDE8F087102F01DB002071
:10118000F8E7042101FA08F141F00100012105F01E
:10119000B1FEB8F1020F0CD10D2F01D00E2F08D1E6
:1011A000012005F075FE002005F02EFF0020FFF75E
:1011B000E7FC0120B84080B2ADF80C0048208DF863
:1011C0000F0003208DF80E0057490A1502FB081086
:1011D00003A900F009FEB8F1020F06D10D2F01D0CE
:1011E0000E2F02D1002005F053FE4FF4A06000F056
:1011F00079FFB8F1070F1AD2DFE808F004070A0DEB
:10120000101316004FF0000913E04FF0010910E031
:101210004FF002090DE04FF003090AE04FF0040916
:1012200007E04FF0050904E04FF0060901E0002057
:10123000A0E700BF102F51D2DFE807F0080C101410
:10124000181C2024282D32373C41464B062501240A
:10125000002645E007250224012641E00825042454
:1012600002263DE009250824032639E00A2510243A
:10127000042635E017252024052631E017254024D3
:1012800006262DE017258024072629E017254FF490
:101290008074082624E017254FF4007409261FE007
:1012A00028254FF480640A261AE028254FF40064AC
:1012B0000B2615E028254FF480540C2610E0282535
:1012C0004FF400540D260BE028254FF480440E26E1
:1012D00006E028254FF400440F2601E0002049E7EE
:1012E00000BFE8B28DF8000001208DF801008DF8F4
:1012F00002008DF80300684600F0BCFE204600F0B6
:10130000EFFC3146484600F04FFD019400208DF877
:10131000080010208DF8090001208DF80A0001A8AE
:1013200000F0F8FC012025E7000801402DE9F04716
:1013300086B005460F4614469846DDE90E9A35B14B
:10134000012D09D0022D0CD0032D14D10EE0012166
:10135000880305F0CFFD12E00121480405F0BAFD35
:101360000DE00121880405F0B5FD08E00121C80465
:1013700005F0B0FD03E0002006B0BDE8F08700BF37
:101380000421A140042202FA09F2114341F00100B4
:10139000012105F0AFFD35B1012D0BD0022D10D08C
:1013A000032D1ED11CE0012C03D10121042000F0EB
:1013B000A7FD18E0032C03D10121082000F0A0FDB7
:1013C00011E0022C04D10121554800F099FD06E0FE
:1013D000032C04D101215248203000F091FD02E09D
:1013E00001E00020C8E700BF012000FA08F080B249
:1013F000ADF8140018208DF8170003208DF81600A2
:1014000048490A1502FB041005A900F0EDFC012073
:1014100000FA0AF080B2ADF8140004208DF817002D
:101420004049020202FB091005A900F0DDFC01970A
:101430000020ADF80800ADF80A00ADF80C00ADF8DA
:1014400010000C20ADF80E0035B1012D0ED0022D8C
:1014500016D0032D28D11DE001A9334806F09EFCCB
:101460000121314806F036FC25261FE001A92F484E
:1014700006F094FC01212D4806F02CFC262615E0F0
:1014800001A92B4806F08AFC0121294806F022FC1C
:1014900027260BE001A9274806F080FC01212548FA
:1014A00006F018FC342601E0002065E700BF4FF489
:1014B000A06000F017FE8DF8006001208DF801009B
:1014C0008DF802008DF80300684600F0D3FD35B1B9
:1014D000012D0BD0022D10D0032D1CD114E00122C0
:1014E00040F22551104806F034FC16E0012240F28B
:1014F00025510E4806F02DFC0FE0012240F2255147
:101500000B4806F026FC08E0012240F2255109486C
:1015100006F01FFC01E000202EE700BF01202BE7B2
:101520001000140000080140003801400044004051
:1015300000480040004C004070B504460D460122B2
:10154000AA4091B2054A131503FB042000F020FDC8
:1015500008B1012070BD0020FCE700000008014038
:1015600070B504460D46A9B2A20202F1804006F011
:10157000D5F970BD10B50748006848B1054908683D
:1015800006F024FD022803D00249086806F084FD15
:1015900010BD00001C87002010B50748406848B106
:1015A0000549486806F012FD022803D00249486840
:1015B00006F072FD10BD00001C87002010B5074822
:1015C000806848B10549886806F000FD022803D00C
:1015D0000249886806F060FD10BD00001C870020ED
:1015E00010B50748C06848B10549C86806F0EEFC68
:1015F000022803D00249C86806F04EFD10BD000065
:101600001C87002038B500240020009000F0DEFE8A
:10161000094806F02FFC094800F0F2F90446C4F529
:101620008050074908806A464FF40041054801F0A0
:1016300007FD00F0E1FE38BD0038014058000240CF
:101640001C0100208484002038B50020009000F0A8
:10165000BDFE224806F00EFCC4B22148008800F40A
:10166000004078BB1E48008800F48040C0B14B2C7D
:1016700003D000201A4908802CE019480088C0F3E4
:101680000D0018490C541648008840F400401449D5
:1016900008806A464FF40041134801F0D1FC19E07C
:1016A0000F480088C0F30D000E490C540C48008808
:1016B000401C0B4908804F2C05D10846008840F497
:1016C0008040088006E0064800887F2802DD002070
:1016D0000349088000F090FE38BD0000004400403F
:1016E0001E010020406200205C84002010B500F044
:1016F0006DFE1C4806F0BEFBC4B21B48008800F417
:10170000004058BB1848008800F4804060B10A2CA3
:1017100003D000201449088020E01348008840F4DA
:1017200000401149088019E00D2C06D10E480088B0
:1017300040F480400C49088010E00B480088C0F35A
:101740000D000A490C5408480088401C06490880CE
:10175000084600887F2801DD0020088000F04CFE4C
:1017600010BD00000048004020010020C0620020A1
:1017700038B500240020009000F028FE094806F04B
:1017800079FB094800F03CF90446C4F5805007494C
:1017900008806A464FF40041054801F051FC00F012
:1017A0002BFE38BD004C00403004024022010020D6
:1017B000AC84002070B504460D4616460122AA40AE
:1017C00091B2044A131503FB0420324600F0EBFBF0
:1017D00070BD00000008014000BFFEE710B500F03A
:1017E0001FF800F019F810BD10B5002400BF00BFAD
:1017F000FEF7C0FC044600BF00BF1021054800F002
:1018000004FC00BF00BF2046FEF7B8FC00BF00BFCD
:1018100010BD00007001002010B5FFF7E5FF10BDFE
:1018200010B500200249086000F00AF810BD000061
:1018300028000020014908607047000028000020AF
:1018400010B5FFF7A3F904460848006840F080701F
:10185000064908600020064948600846006840F0D4
:10186000010008602046FFF7E5FF10BDFCED00E039
:10187000001000E00149486870470000001000E0D7
:1018800000F0805111B10349086001E0024948604D
:1018900070470000040402400000024021B10268C9
:1018A00042F00102026004E002684FF6FE731A4043
:1018B0000260704701684FF6FE721140016000211E
:1018C000016041608160C1604B49884208D14A494A
:1018D0000839496841F00F01474A083A51608AE0E7
:1018E00045491431884208D143490839496841F0D3
:1018F000F001414A083A51607DE03F492831884271
:1019000008D13D490839496841F470613A4A083ABA
:10191000516070E038493C31884208D13649083975
:10192000496841F47041344A083A516063E03249F1
:101930005031884208D130490839496841F4702152
:101940002D4A083A516056E02B496431884208D14B
:1019500029490839496841F47001274A083A516019
:1019600049E025497831884208D123490839496836
:1019700041F07061204A083A51603CE01F498842BA
:1019800006D1011F096841F00F01021F116032E00A
:101990001A491431884208D11849091F096841F0D1
:1019A000F001164A121F116025E0144928318842BF
:1019B00008D11249091F096841F470610F4A121FCA
:1019C000116018E00D493C31884208D10B49091FCC
:1019D000096841F47041094A121F11600BE0074980
:1019E0005031884207D10549091F096841F4702127
:1019F000024A121F116070470800024008040240AA
:101A00000146486880B2704701460020002201F07C
:101A1000805313B1054B1A6801E0054B1A6802EABE
:101A200001030BB1012000E00020704700040240D8
:101A30000000024010B50022026847F6F0739A4396
:101A40000C6A8B6823430C6923434C6923438C69DC
:101A50002343CC6923434C6A23438C6A23431A43B0
:101A60000260CB6843600B6883604B68C36010BD45
:101A7000416070477047000008B50020009000F0FA
:101A8000A5FC012000F032F998B1012000F028F9FE
:101A90000948006810B10849086880470021012002
:101AA000FFF74AFD28B96A464FF40041034801F0A8
:101AB000C7FA00F0A1FC08BDDC86002034840020B9
:101AC00010B500F083FC4FF4806000F00FF948B1CE
:101AD0004FF4806000F004F92948806A10B1284969
:101AE000886A80474FF4006000F000F948B14FF475
:101AF000006000F0F5F82248C06A10B12049C86AB9
:101B000080474FF4805000F0F1F848B14FF4805016
:101B100000F0E6F81A48006B10B11949086B8047CD
:101B20004FF4005000F0E2F848B14FF4005000F0DC
:101B3000D7F81348406B10B11149486B80474FF4F8
:101B4000804000F0D3F848B14FF4804000F0C8F86E
:101B50000B48806B10B10A49886B80474FF40040F6
:101B600000F0C4F848B14FF4004000F0B9F8044860
:101B7000C06B10B10249C86B804700F03DFC10BD3E
:101B8000DC86002010B500F021FC022000F0AEF849
:101B900040B1022000F0A4F80448406810B10349A5
:101BA0004868804700F028FC10BD0000DC8600205B
:101BB00010B500F00BFC042000F098F860B1042090
:101BC00000F08EF80648806810B1054988688047A3
:101BD00002210846FFF7B0FC00F00EFC10BD00002B
:101BE000DC86002010B500F0F1FB082000F07EF844
:101BF00040B1082000F074F80448C06810B10349EF
:101C0000C868804700F0F8FB10BD0000DC860020AB
:101C100010B500F0DBFB102000F068F840B1102098
:101C200000F05EF80448006910B103490869804774
:101C300000F0E2FB10BD0000DC86002010B500F0D3
:101C4000C5FB202000F052F840B1202000F048F8F9
:101C50002248406910B1214948698047402000F07E
:101C600045F840B1402000F03BF81C48806910B1B5
:101C70001A4988698047802000F038F840B18020F8
:101C800000F02EF81548C06910B11449C8698047A2
:101C90004FF4807000F02AF868B14FF4807000F0C3
:101CA0001FF80E48006A10B10C49086A80470821E5
:101CB0000020FFF741FC4FF4007000F017F848B126
:101CC0004FF4007000F00CF80448406A10B103496A
:101CD000486A804700F090FB10BD0000DC860020C1
:101CE00001490860704700001404014001460020CB
:101CF0000022074B1B6803EA0102054B14331B68E3
:101D00000B4013B10AB1012000E000207047000031
:101D100000040140002123498279002A3AD00A4672
:101D2000126803689A430B461A600A1D126803681A
:101D30009A430B1D1A60027911440A6803681A431A
:101D40000A60184A0832126803689A43154B083330
:101D50001A601A1D126803689A43124B0C331A60FA
:101D60004279102A0ED11A1F126803681A430D4BCC
:101D700008331A601A1D126803681A43094B0C33A2
:101D80001A600DE00749427911440A6803681A4352
:101D90000A6005E0027911440A6803689A430A6000
:101DA000704700000004014030B500228B071C0F73
:101DB0000F2303FA04F20B4B8C1053F82430934397
:101DC000084C8D1044F8253023468C1053F82430ED
:101DD0008C07240F00FA04F42343024C8D1044F8BE
:101DE000253030BD080001402DE9F04102460025B4
:101DF0000026002000230024002791F803C00CF0E7
:101E00000F0591F803C00CF0100CBCF1000F03D0CB
:101E100091F802C04CEA050591F800C0BCF1000F32
:101E200031D0146800202BE04FF0010C0CFA00F3C5
:101E3000B1F800C00CEA03069E4220D183004FF0A7
:101E40000F0C0CFA03F7BC4305FA03FC4CEA04043C
:101E500091F803C0BCF1280F06D14FF0010C0CFA29
:101E600000FCC2F814C00AE091F803C0BCF1480FAE
:101E700005D14FF0010C0CFA00FCC2F810C0401C58
:101E80000828D1D31460B1F800C0BCF1FF0F34DDD5
:101E9000546800202EE000F1080C4FF0010808FA09
:101EA0000CF3B1F800C00CEA03069E4221D1830076
:101EB0004FF00F0C0CFA03F7BC4305FA03FC4CEA95
:101EC000040491F803C0BCF1280F05D100F1080CFF
:101ED00008FA0CF8C2F8148091F803C0BCF1480F5E
:101EE00007D100F1080C4FF0010808FA0CF8C2F80D
:101EF0001080401C0828CED35460BDE8F08100005B
:101F0000F0B50A46002300240021002500F0004619
:101F1000B6F1004F02D11D4EF16901E01B4E716810
:101F2000C0F3034583B200F44016B6F5401F08D154
:101F300021F07061154E766826F07066134F7E6052
:101F400012E000F48016B6F5801F06D1032606FACB
:101F500005F4A14341F0706106E0460D360103FA35
:101F600006F6B14341F0706122B1460D360103FA25
:101F700006F6314300F00046B6F1004F02D1034EA1
:101F8000F16101E0014E7160F0BD00000000014010
:101F90000246002093680B400BB1012000E00020B6
:101FA0007047016170470AB1016100E0416170470B
:101FB00009E0012251020448FFF7F5FF0022042145
:101FC0000148FFF7F0FFF4E7000C01400146CA1793
:101FD00001EB92729210A1EB820292B9642091FB04
:101FE000F0F200FB121050B94FF4C87091FBF0F200
:101FF00000FB121008B9012070470020FCE7012007
:10200000FAE70020F8E700BFFEE730B505460C46CA
:1020100022460021284600F001F830BD2DE9F041AC
:1020200005460B4694460027002402E03F021F436A
:10203000641C042CFAD3604605F00306294646B119
:10204000344603E001F8013B401E641C08B1042C37
:10205000F8D30A4601E080C2001F0428FBD21146D3
:1020600002E001F8013B401E0028FAD1BDE8F081F2
:102070007047000070B5002100230F22C47804B31C
:10208000154C246804F4E064C4F5E064210AC1F14D
:102090000403CA40447804FA03F1847814402143CD
:1020A00009010E4C0678A155047804F01F0501249F
:1020B000AC4005786D11AD0005F1E025C5F8004193
:1020C00009E0047804F01F050124AC40044D0678B3
:1020D000761145F8264070BD0CED00E000E400E00C
:1020E00080E100E002490143024A116070470000AC
:1020F0000000FA050CED00E0154816481648174890
:10210000174818481848194819481A481A481B48C7
:102110001B481C481C481D481D481E481E481F4897
:102120001F48204820482148214822482248234867
:102130002348244824482548254826482648274837
:102140002748284828482948294800BF70470000E8
:10215000D89B0008389B00083C9B0008409B000867
:10216000449B0008489B00084C9B0008509B0008BB
:10217000549B0008589B00085C9B0008609B00086B
:10218000649B0008689B00086C9B0008709B00081B
:10219000749B0008789B00087C9B0008809B0008CB
:1021A000849B0008889B00088C9B0008909B00087B
:1021B000949B0008989B00089C9B0008A09B00082B
:1021C000A49B0008A89B0008AC9B0008B09B0008DB
:1021D000B49B0008B89B0008BC9B0008C09B00088B
:1021E000C49B0008C89B0008CC9B0008D09B00083B
:1021F000D49B000810B50348006810B1014800687E
:10220000804710BD4000002070B5044600F0C2F8C1
:1022100000204849087048490870484908704849F2
:1022200008604849086048490870484908704849AA
:1022300008704849086048490860484908604849AA
:102240000870484800680A21B0FBF1F04649086070
:102250004648006858B14648056845B14348066895
:1022600003E0761E002028602D1D002EF9D10020ED
:10227000404908604049086040490860404908609A
:10228000404908604049086040490860404908707A
:1022900002F0A2FE02F09AFF204601F0F1FF208832
:1022A00000B170BD204602F0D3FB208800B1F8E7F2
:1022B000204602F0F5FB208800B1F2E7204602F04C
:1022C000D9FC208800B1ECE7204602F0CDFE208842
:1022D00000B1E6E7204603F009F9208800B1E0E705
:1022E000204603F02BFC208800B1DAE7204602F0FC
:1022F0001BFB208800B1D4E7204602F033F9208888
:1023000000B1CEE7204604F089FB208800B1C8E781
:10231000204603F057FB208800B1C2E7204604F0B6
:10232000D9FB208800B1BCE701F0D2FEFFF7E4FE44
:1023300000BFB6E754000020550000209C0000209C
:10234000F4000020F800002082000020830000201C
:1023500084000020900000209400002098000020BD
:10236000A4000020989B0008A0000020689B0008A3
:10237000649B000834000020380000203C0000204E
:102380004000002044000020480000204C000020B5
:10239000D20000200A4A1168002002E0002204C195
:1023A000401C084A12689042F8D3054A1268054B4F
:1023B0001B6802EB8302121F034B1A607047000078
:1023C000649B0008689B0008FC0000200848007817
:1023D000012800D0704707480078FA2800DBF9E7A9
:1023E00004480078401C0349087000BFF2E7000071
:1023F000550000205400002010B500242E4800781D
:10240000012800D010BD00BFFDF7B4FE044600BF98
:102410002A48007828B900BF2046FDF7AFFE00BF6C
:10242000F0E726480078401E2449087008460078E6
:10243000002805DD00BF2046FDF7A0FE00BFE1E754
:102440001F480078002805DD00BF2046FDF796FEF6
:1024500000BFD7E702F0ACFD1A49087008460078C3
:1024600000EB4000184951F8200018490860084660
:10247000006817490968884205D100BF2046FDF76A
:102480007DFE00BFBEE711480068D0F89000401CF8
:102490000E490968C1F890000E480068401C0D49BB
:1024A00008604FF080500C49086000BF2046FDF7DF
:1024B00065FE00BF00BFA5E75500002054000020C6
:1024C0009C00002083000020A4170020F8000020BA
:1024D000F4000020C800002004ED00E02DE9F041E8
:1024E00004460E461546002729480078002804DDDA
:1024F00042F6E1602880BDE8F0811CB945F6C35082
:102500002880F8E700BF00BF00BFFDF733FE074695
:1025100000BF00BF1F480078401C1E49087000BF64
:1025200000BF3846FDF72AFE00BF00BF00BF1A48B3
:10253000206066600020206284F82500A0624020B0
:1025400084F8240004F1080002F04BFC204602F05D
:1025500079FB12480088401C1049088000BF00BF6A
:1025600000BFFDF707FE074600BF00BF094800781F
:10257000401E0849087000BF00BF3846FDF7FEFD49
:1025800000BF00BF00BF0020288000BFB3E70000ED
:10259000540000209C0000204D555458800000201D
:1025A0002DE9F04788B00546894690461C46109EA6
:1025B0004FF0000AAB480078002805DD46F2AE1067
:1025C000308008B0BDE8F0871DB945F6C3503080B3
:1025D000F7E7B8F1000F03D0B8F5004F02D100E0E3
:1025E00000BF03E045F625603080EAE700BF9E4962
:1025F0002868884203D045F6C4503080E1E70CB12A
:102600000020206000BF00BFFDF7B4FD824600BF80
:1026100000BF95F82500C0B9944800682862934827
:10262000006890F8370085F82400012085F825001F
:102630000CB1A86A206000BF00BF5046FDF79EFDA8
:1026400000BF00BF00203080BBE78849286A0968C6
:10265000884212D195F82500401C85F825000CB160
:10266000A86A206000BF00BF5046FDF787FD00BF8D
:1026700000BF45F282703080A3E708F4004050B1FB
:1026800000BF00BF5046FDF779FD00BF00BF46F216
:10269000B010308095E77648007800280ADD00BF4A
:1026A00000BF5046FDF76AFD00BF00BF46F663500D
:1026B000308086E700BF6E480078401C6C49087087
:1026C00000BF00BF5046FDF759FD00BF00BF00BF6F
:1026D0002F6A97F837006549096891F837108842E2
:1026E00060DD97F8360008282AD2DFE800F00415EC
:1026F0001E1F17162021384602F0F0FD5B480068C7
:1027000090F8370087F8370097F8370002F070FC30
:10271000384602F083FD44E000BF00BF5348006824
:1027200090F8370087F837003BE000BF00BF00BFDC
:102730004E48006890F83710384602F02FFB30E022
:1027400000BF00BF00BFFDF715FD824600BF00BF00
:1027500047480078401E4649087008460078A0B9EE
:1027600044480088002809DD00BF00BF5046FDF73F
:1027700005FD00BF00BF02F0DFFD0DE000BF00BFA0
:102780005046FDF7FBFC00BF06E000BF00BF50460F
:10279000FDF7F4FC00BF00BF00BF46F62D6030809F
:1027A0000FE700BF4B4604222946684602F06EFA46
:1027B00000BF00BF00BFFDF7DDFC824600BF00BFC9
:1027C0002B480078401E2A49087000BF00BF5046C1
:1027D000FDF7D4FC00BF00BF00BF00F0D9F900BF77
:1027E00000BFFDF7C7FC824600BF00BF1F4800685E
:1027F00090F8350030B101280CD002281AD00328F7
:1028000021D110E01CB119480068006C2060002044
:1028100030801CE01CB115480068006C206046F256
:10282000A910308013E00CB10020206047F2D920BD
:1028300030800CE01CB10D480068006C206045F64B
:10284000C250308003E046F62E60308000BF00BFEB
:1028500000BF00BF5046FDF791FC00BF00BF00BFA6
:10286000AFE60000540000204D555458F4000020FD
:102870009C000020600000202DE9F84F04468846A7
:1028800015464FF0000A89480078002804DD46F21A
:102890000E202880BDE8F88F1CB945F6C35028806B
:1028A000F8E7B8F1000F03D0B8F5004F02D100E00F
:1028B00000BF03E045F625602880EBE700BF7C49B8
:1028C0002068884203D045F6C4502880E2E700BF64
:1028D00000BFFDF74FFC824600BF00BF7549206A6C
:1028E000096888420AD000BF00BF5046FDF746FC89
:1028F00000BF00BF45F281702880CBE700BF6E4863
:102900000078401C6C49087000BF00BF5046FDF7BE
:1029100035FC00BF00BF00BFFEF7ACFF0746A76253
:1029200094F82500401E84F8250094F8250000281E
:1029300030DD00BF00BF00BFFDF71CFC824600BFBA
:1029400000BF5D480078401E5B490870084600786B
:10295000A0B95A480088002809DD00BF00BF5046D2
:10296000FDF70CFC00BF00BF02F0E6FC0DE000BF6D
:1029700000BF5046FDF702FC00BF06E000BF00BFED
:102980005046FDF7FBFB00BF00BF00BF45F2837060
:1029900028807FE704F10809B9F8080098BB0020F7
:1029A000206284F8250000BF00BF00BFFDF7E2FBF6
:1029B000824600BF00BF40480078401E3E49087074
:1029C00008460078A0B93D480088002809DD00BF0E
:1029D00000BF5046FDF7D2FB00BF00BF02F0ACFCC9
:1029E0000DE000BF00BF5046FDF7C8FB00BF06E08A
:1029F00000BF00BF5046FDF7C1FB00BF00BF00BFD6
:102A00000020288046E7FFE72A48006890F8370052
:102A100094F82410884219D02648006802F05EFC21
:102A200094F824002349096881F83700214909688E
:102A300091F8370002F0DCFA1E48006802F00EFC44
:102A40001C48006890F837001D490870D9F800004C
:102A50008668266296F8370084F82400012084F8FE
:102A6000250000231A4631462046009702F02AFA34
:102A700000BF00BF00BFFDF77DFB824600BF00BF67
:102A80000D480078401E0C49087000BF00BF50463A
:102A9000FDF774FB00BF00BF00BF08F4004008B999
:102AA00000F076F80020288000BFF3E654000020F4
:102AB0004D555458F40000209C0000206000002078
:102AC000820000202DE9F04104460F4616461D46BF
:102AD0004FF000082A480078002804DD42F6E16043
:102AE0002880BDE8F0811CB945F6C3502880F8E77E
:102AF0001EB946F294502880F3E700BF00BF00BF24
:102B0000FDF738FB804600BF00BF1E480078401C20
:102B10001C49087000BF00BF4046FDF72FFB00BFF7
:102B200000BF00BF184820606760314604F12000F4
:102B300002F002F804F1080002F053F9204602F016
:102B40007BFA12480088401C1049088000BF00BF73
:102B500000BFFDF70FFB804600BF00BF09480078AB
:102B6000401E0849087000BF00BF4046FDF706FB45
:102B700000BF00BF00BF0020288000BFB1E70000F9
:102B8000540000209C000020515545558C00002029
:102B900010B5002420480078002800DD10BD1F4833
:102BA0000078002800DDF9E700BFFDF7E3FA0446EE
:102BB00000BF02F0FDF91A4908700846007800EBE2
:102BC0004000184951F8200017490860084600687D
:102BD00016490968884205D100BF2046FDF7CEFAA4
:102BE00000BFDBE710480068D0F89000401C0E4999
:102BF0000968C1F890000E480068401C0C49086044
:102C00004FF080500B49086000BF2046FDF7B6FA30
:102C100000BF00BFC2E70000540000209C0000205D
:102C200083000020A4170020F8000020F4000020FA
:102C3000C800002004ED00E070B5044600251848E7
:102C40000078002803DD46F66250208070BD1548EC
:102C50000078012803D045F689602080F6E7124805
:102C60000078FA2803DB45F209202080EEE700BF58
:102C700000BFFDF77FFA054600BF00BF0A48007895
:102C8000401C0949087002F085FB00BF00BF2846C0
:102C9000FDF774FA00BF00BF0020208000BFD5E719
:102CA00054000020550000209C0000202DE9F04138
:102CB00005460C461646002700BF00BFFDF75AFA2E
:102CC000074600BF00BF012D03D000200D4908704A
:102CD00002E001200B49087014B10B48046006E0C3
:102CE0000A4800680A21B0FBF1F00749086000BFFC
:102CF00000BF3846FDF742FA00BF00BF0020308019
:102D0000BDE8F081A4000020A0000020989B0008EE
:102D100070B50446002520480078002803DD46F6FB
:102D20006550208070BD1D480078012803D045F60D
:102D300089602080F6E71A48007818B946F6645092
:102D40002080EFE700BF00BFFDF714FA054600BF83
:102D500000BF13480078401E1149087008460078EB
:102D600000280ADD00BF00BF2846FDF707FA00BFB4
:102D700000BF46F663502080D4E702F019FB00BF85
:102D800000BF2846FDF7FAF900BF00BFFFF700FFBC
:102D90000020208000BFC5E754000020550000201F
:102DA0009C0000202DE9F04104460E4617461D46C2
:102DB0004FF0000826480078002804DD42F6E16064
:102DC0002880BDE8F0811CB945F6C3502880F8E79B
:102DD00000BF00BF00BFFDF7CDF9804600BF00BFB8
:102DE0001C480078401C1B49087000BF00BF4046CB
:102DF000FDF7C4F900BF00BF00BF1748206027627D
:102E000000206062666004F1080001F0EAFF2046DD
:102E100002F054FB11480088401C1049088000BF94
:102E200000BF00BFFDF7A6F9804600BF00BF0948FC
:102E30000078401E0749087000BF00BF4046FDF7FC
:102E40009DF900BF00BF00BF0020288000BFB8E789
:102E5000540000209C00002053454D41AC00002050
:102E60002DE9F04788B00646894690461C46109DDD
:102E70004FF0000A6E480078002806DD46F2AE10DA
:102E80002880002008B0BDE8F08726B945F6C35079
:102E900028800020F6E7B8F1000F03D0B8F5004F06
:102EA00002D100E000BF04E045F625602880002044
:102EB000E8E700BF5F493068884204D045F6C45057
:102EC00028800020DEE70CB10020206000BF00BF9A
:102ED000FDF750F9824600BF00BF306A88B1306A02
:102EE000401E30620CB1706A2060376A00BF00BFBC
:102EF0005046FDF743F900BF00BF00202880384648
:102F0000C0E708F4004060B1376A00BF00BF504618
:102F1000FDF734F900BF00BF46F2B01028803846F4
:102F2000B0E74548007800280BDD00BF00BF5046E1
:102F3000FDF724F900BF00BF46F66350288000204B
:102F4000A0E700BF3C480078401C3B49087000BF28
:102F500000BF5046FDF712F900BF00BF00BF4B464F
:102F600006223146684601F091FE00BF00BF00BF57
:102F7000FDF700F9824600BF00BF2F480078401ED1
:102F80002D49087000BF00BF5046FDF7F7F800BF9D
:102F900000BF00BFFFF7FCFD00BF00BFFDF7EAF870
:102FA000824600BF00BF2548006890F8350030B168
:102FB00001280CD002281AD0032821D110E01CB11E
:102FC0001E480068006C20600020288024E01CB1AE
:102FD0001A480068006C206046F2A91028801BE0A7
:102FE0000CB10020206047F2D920288014E01CB1E9
:102FF00012480068006C206045F6C25028800BE043
:1030000046F62E60288000BF00BF5046FDF7B6F898
:1030100000BF00BF002035E700BF376A00BF00BF18
:103020005046FDF7ABF800BF00BF38462AE7000066
:103030005400002053454D419C000020F400002026
:103040002DE9FF4105460F46144635B945F6C350F4
:103050002080002004B0BDE8F0814FB1B7F5007FBB
:1030600007D0B7F5004F05D0B7F5024F04D102E005
:1030700000BF00BF00BF04E045F6256020800020AF
:10308000E8E700BF12492868884204D045F6C450DA
:1030900020800020DEE7FEF7EDFB06460D480078B5
:1030A00000280CDD0020034602462946CDE90176C2
:1030B00003940090064801F08DFA0020CAE72346E9
:1030C00032463946284602F01DFA80464046C1E79E
:1030D00053454D41540000202DE9F04104460E4671
:1030E00015464FF000081A480078002804DD46F61F
:1030F000C6502880BDE8F0811CB945F6C350288031
:10310000F8E714492068884203D045F6C450288067
:10311000F0E70020288000BF00BFFDF72BF88046B5
:1031200000BF00BF206A08B1266208E004F108076A
:10313000388908B9266202E047F25F10288000BF94
:1031400000BF4046FDF71AF800BF00BF00BFD1E73F
:103150005400002053454D4110B5044612480078F4
:10316000E8B901F025FF11490870084600781049B8
:1031700008700E48007800EB40000E4951F820001E
:103180000D490860084600680C490860012006499E
:103190000870FDF7E3FB43F69920208002E045F636
:1031A0008A60208010BD00005500002083000020B0
:1031B00082000020A4170020F8000020F400002066
:1031C0002DE9F04107464FF0000800BF00BFFCF7B3
:1031D000D1FF804600BF00BF00203D4908603D4947
:1031E00008803D4908803D4908603D4908603D49E7
:1031F00008603D4908603D49088100BF00BF404666
:10320000FCF7BCFF00BF00BF00BF00BFFCF7B2FF70
:10321000804600BF00BF3648046800BF00BF40467C
:10322000FCF7ACFF00BF00BF21E000BF00BFFCF710
:10323000A1FF804600BF00BF00207834E06320601B
:103240002063A061A082E0826062A062FEF712FBB0
:103250002062783C04F164060020B081D4F8BC40C0
:1032600000BF00BF4046FCF789FF00BF00BF002C35
:10327000DBD100BF00BFFCF77DFF804600BF00BF71
:103280001C48056800BF00BF4046FCF777FF00BF41
:1032900000BF12E000BF00BFFCF76CFF804600BF1C
:1032A00000BF05F120060020B081AD6900BF00BF5E
:1032B0004046FCF763FF00BF00BF002DEAD103F0DA
:1032C00089FA03F003FD00203880BDE8F08100009A
:1032D0006800002062000020B2000020C40000202E
:1032E000D8000020E400002094000020981700205F
:1032F000CC00002088000020F8B50446002669466E
:10330000324800F0C1FCBDF8000018B1BDF8000063
:103310002080F8BD6A460021022000F029FDBDF89A
:10332000000018B1BDF800002080F2E700BF00BF28
:10333000FCF720FF064600BF00BF002024490860BC
:1033400000BF00BF3046FCF719FF00BF00BF0025DB
:103350002048006820490968884205D91D4800684E
:103360001D490968B0FBF1F525B91A4800680A2122
:10337000B0FBF1F56A460021284600F0F9FC6946E9
:10338000124800F063FABDF8000018B1BDF8000063
:103390002080BEE700BF00BFFCF7ECFE064600BF82
:1033A00000BF00200D490860094800680C4908600A
:1033B00001200C49087000BF00BF3046FCF7DEFE5C
:1033C00000BF00BF0020208000BFA2E72C1C00200F
:1033D000B4000020989B0008809B0008C4000020D7
:1033E000B8000020C000002010B50348006810B1EC
:1033F00001480068804710BD440000202DE9FF4FC0
:1034000087B004469046DDE91BA5DDE91496179FB9
:103410000020039087480078002805DD47F24A1015
:1034200028800BB0BDE8F08F1CB947F2AD102880A2
:10343000F7E7B8F1000F03D147F24F102880F0E70B
:103440001EB946F62F602880EBE77B48006887426C
:1034500003D246F630602880E3E71698B84203D3DB
:1034600046F631602880DCE7B9F1400F03D346F21D
:1034700073202880D5E7B9F1000F06D16F48844248
:1034800003D046F273202880CBE7B9F13F0F06D175
:103490006B48844203D046F273202880C1E720465F
:1034A00002F05CFB002028800AF0010090B10AF0D5
:1034B000020078B105960020069008E000210598EA
:1034C00001600598001D05900698401C069006981E
:1034D000B842F3D3169806EB80000490CDE9007A49
:1034E00032464046049B0A9900F06EFB0590C4F8F2
:1034F00028800A98E0620898206284F8379005983E
:1035000020600498A06019986065199818B94D4812
:103510000068A06501E01998A0651A98606066626D
:10352000A763A4F83CA04FF0000B08E0002104F1D1
:103530007C0040F82B100BF1010000F0FF0BBBF1F9
:10354000000FF3D004F16400189901F0F5FA204659
:1035500000F082F800BF00BF00BFFCF70BFE039035
:1035600000BF00BF38480078401C3749087000BFD2
:1035700000BF0398FCF702FE00BF00BF00BF94F835
:10358000370001F035FD204601F068FE204602F0CC
:103590009BFA2E480088401C2C4908802C48007853
:1035A00001282DD000BF00BF00BFFCF7E3FD039052
:1035B00000BF00BF24480078401E23490870084619
:1035C0000078A0B923480088002809DD00BF00BFAB
:1035D0000398FCF7D3FD00BF00BF01F0ADFE0DE086
:1035E00000BF00BF0398FCF7C9FD00BF06E000BFA5
:1035F00000BF0398FCF7C2FD00BF00BF00BF10E78B
:1036000000BF00BF00BFFCF7B5FD039000BF00BFC7
:103610000D480078401E0C49087000BF00BF039899
:10362000FCF7ACFD00BF00BF00BFFFF7B1FA00BF61
:10363000F7E6000054000020949B0008D4160020F8
:1036400010160020A00000209C000020D0000020C8
:10365000550000206000002010B5044603480068B3
:1036600018B1204601490968884710BD3400002080
:1036700070B504460D46002667480078002803DD33
:1036800047F24E10288070BD6448844203D147F24F
:103690004C102880F7E76248844203D147F24D106E
:1036A0002880F0E77CB900BF00BFFCF763FD064649
:1036B00000BF00BF5B48046800BF00BF3046FCF796
:1036C0005DFD00BF00BF00BF00BF00BFFCF752FDA3
:1036D000064600BF00BF54480078401C524908709D
:1036E00000BF00BF3046FCF749FD00BF00BF00BF70
:1036F00094F8360008282DD2DFE800F004090E10F7
:10370000080A0F11204601F0E9FD54E053E000BF24
:10371000204603F043F84EE000BF00BF00BF204644
:1037200003F03CF894F83400082810D2DFE800F0E9
:1037300004070508090A0B0600BF00BF08E000BF28
:1037400000BF00BF00BF204601F083FB00E000BFC8
:1037500000BF30E000BF00BF00BFFCF70BFD064616
:1037600000BF00BF30480078401E2F49087008464F
:103770000078A0B92D480088002809DD00BF00BFEF
:103780003046FCF7FBFC00BF00BF01F0D5FD0DE0AB
:1037900000BF00BF3046FCF7F1FC00BF06E000BFF1
:1037A00000BF3046FCF7EAFC00BF00BF00BF46F692
:1037B0002D60288067E700BF04F1640001F09AF9EA
:1037C000204600F037F8204602F096F918480088A5
:1037D000401E17490880204602F0C0F9FF2084F8F7
:1037E000360000BF00BF00BFFCF7C4FC064600BFA8
:1037F00000BF0D480078401E0B49087000BF00BF95
:103800003046FCF7BBFC00BF00BF00BF0020288093
:10381000FFF7BEF900BF36E7540000201016002065
:10382000D4160020F40000209C000020600000203E
:10383000D000002010B504460348006818B12046A7
:1038400001490968884710BD380000207FB504464B
:103850000D46002600BF00BFFCF78CFC064600BFEB
:1038600000BF1CB11548006884420AD100BF00BFE8
:103870003046FCF783FC00BF00BF47F2571028809A
:103880007FBD00BF00BF3046FCF778FC00BF00BF23
:103890000B48007800280BDD0020009001900346C3
:1038A00002462146CDE90205064800F093FEE7E70F
:1038B0002946204602F0CAFA00BFE1E7F4000020E2
:1038C000540000205452455310B504460348006884
:1038D00018B1204601490968884710BD3C00002006
:1038E0002DE9F04780460E4614461D464FF000096C
:1038F0007D480078002805DD46F2AE1028800020C3
:10390000BDE8F0871EB1B6F5004F02D100E000BF60
:1039100004E045F6256028800020F1E700BF0CB1E7
:103920000020206000BF00BFFCF724FC814600BFE0
:1039300000BF6E480068406CA8B36C480068406CDB
:10394000401E6A490968486468480068476C1CB1B1
:1039500066480068006C2060FDF78CFF63490968C9
:10396000096C401A61490968C1F8A4005F48006801
:10397000D0F8A8005D490968D1F8A410884207D2A0
:103980005A480068D0F8A40058490968C1F8A8004E
:1039900000BF00BF4846FCF7F1FB00BF00BF00209E
:1039A00028803846ACE7FFE706F4004058B100BF76
:1039B00000BF4846FCF7E2FB00BF00BF46F2B01074
:1039C000288000209CE74A48007800280BDD00BFD3
:1039D00000BF4846FCF7D2FB00BF00BF46F663506D
:1039E000288000208CE700BF41480078401C4049F7
:1039F000087000BF00BF4846FCF7C0FB00BF00BF17
:103A000000BF434607220021084601F03FF900BFEE
:103A100000BF00BFFCF7AEFB814600BF00BF3448CB
:103A20000078401E3249087000BF00BF4846FCF7CE
:103A3000A5FB00BF00BF00BFFFF7AAF800BF00BF93
:103A4000FCF798FB814600BF00BF2848006890F84B
:103A5000350020B1012826D0032834D12CE0FCB158
:103A600022480068006C2060FDF704FF1F490968C8
:103A7000096C401A1D490968C1F8A4001B48006878
:103A8000D0F8A80019490968D1F8A410884207D2D3
:103A900016480068D0F8A40014490968C1F8A800C5
:103AA0000020288013E01CB110480068006C2060E2
:103AB00046F2A91028800AE00CB10020206047F2ED
:103AC000D920288003E046F62E60288000BF00BF82
:103AD00006480068476C00BF00BF4846FCF74EFB35
:103AE00000BF00BF38460BE754000020F400002060
:103AF0009C0000202DE9F04705460E4617461C465F
:103B00004FF0000A2E480078002804DD47F25910D3
:103B10002080BDE8F0871EB946F2D5202080F8E766
:103B20001FB946F2D5202080F3E700BF00BFFCF7A5
:103B300021FB824600BF00BF0DB9224805682868F6
:103B400068B900BF00BF5046FCF718FB00BF00BFBC
:103B500000203060386047F252102080D9E795F895
:103B60003C0000F0010068B900BF00BF5046FCF700
:103B700005FB00BF00BF00203060386047F25410E2
:103B80002080C6E700BF00BF5046FCF7F7FA00BF31
:103B900000BF4FF00008D5F8249003E009F10409B4
:103BA00008F10108D9F800000028F7D0C6F8008015
:103BB000A86BA0EB080038600020208000BFA8E7B9
:103BC00054000020F4000020F0B50446DDE905565D
:103BD00002EB85004FF0807C071F3846C7F800C015
:103BE000071F38463C60DFF89CC0071F3846C7F8FF
:103BF00000C04FF0123C071F3846C7F800C04FF016
:103C0000033C071F3846C7F800C04FF0023C071FAF
:103C10003846C7F800C0071F38463B60071F3846C4
:103C200039604FF0113C071F3846C7F800C04FF00D
:103C3000103C071F3846C7F800C04FF0093C071F6B
:103C40003846C7F800C04FF0083C071F3846C7F891
:103C500000C04FF0073C071F3846C7F800C04FF0C0
:103C6000063C071F3846C7F800C04FF0053C071F49
:103C70003846C7F800C04FF0043C071F3846C7F865
:103C800000C0F0BD8D5F00087FB505460C461248A8
:103C9000854203D147F25B1020807FBD0F488542EB
:103CA00003D147F25C102080F7E70D480078002828
:103CB0000BDD002000900190034602462946CDE925
:103CC0000204084800F086FCE7E72146284602F097
:103CD000CBFB00BFE1E7000010160020D416002047
:103CE000540000205453555310B51D48006810B1BE
:103CF0001B4800688047FDF7BDFD04461948006871
:103D000019490968884215D016480068D0F898000B
:103D1000201A14490968C1F8940012480068D0F8C4
:103D20009C0010490968D1F8941008440D490968AD
:103D3000C1F89C000C480068C0F898400948006829
:103D4000D0F8B40009490968884205D207480068DC
:103D500004490968C1F8B40000200449086010BD96
:103D600048000020F4000020F80000209800002007
:103D70002DE9F04105460E46144600273F480078DD
:103D8000002804DD47F275202080BDE8F0813C4822
:103D90000078002803DD46F663502080F5E736B151
:103DA000022E05D0042E0AD0082E09D101E000BF52
:103DB00000BF1DB947F27E202080E6E704E003E063
:103DC00045F625602080E0E700BF00BF00BF00BFD0
:103DD000FCF7D0F9074600BF00BF29480078401C17
:103DE0002749087000BF00BF3846FCF7C7F900BF7D
:103DF00000BF00BF01202349096881F8360023462F
:103E0000324629461F48006802F0EAFB2088A8B124
:103E100000BF00BF00BFFCF7ADF9074600BF00BF01
:103E200017480078401E1649087000BF00BF38468A
:103E3000FCF7A4F900BF00BF00BFA6E71148006867
:103E400001F04CFA00BF00BF00BFFCF793F9074632
:103E500000BF00BF0A480078401E0949087000BF33
:103E600000BF3846FCF78AF900BF00BF00BFFEF76D
:103E70008FFE0020208000BF87E700005400002054
:103E80009C000020F40000202DE9FF5F05460E464F
:103E900017469846DDE90EA400200090724800788D
:103EA000002804DD47F275202080BDE8FF9F6F48A1
:103EB0000078002803DD46F663502080F5E70AF01D
:103EC0000E0BBBF1000F09D0BBF1020F07D0BBF105
:103ED000040F10D0BBF1080F0ED101E000BF00BFEE
:103EE000B8F1000F06D12FB926B91DB947F27E20CF
:103EF0002080DAE704E003E045F625602080D4E77F
:103F000000BF2AF01E0008B1012000E0002003904D
:103F10000398012803D145F625602080C5E7CAF340
:103F2000001002900298C0B9B8F57A7F03D347F227
:103F30007B202080B9E73B2F03DD47F27A202080E9
:103F4000B3E73B2E03DD47F279202080ADE7632DF8
:103F500012DD47F278202080A7E742F20F708642F8
:103F600003DD47F2792020809FE7B5F57A7F03DBF8
:103F700047F27820208098E73D48D0F800904FF431
:103F8000FA70B0FBF9F0404400FB09F04FF47A718D
:103F9000B0FBF1F14FF461606843C6EB061200EB31
:103FA0008200384400FB091001900198002856D087
:103FB00000BF00BF00BFFCF7DDF8009000BF00BFEE
:103FC0002A480078401C2949087000BF00BF0098AB
:103FD000FCF7D4F800BF00BF00BF012025490968E5
:103FE00081F8360023465A4622480199006802F0BB
:103FF000F7FA2088A8B100BF00BF00BFFCF7BAF8ED
:10400000009000BF00BF19480078401E1749087093
:1040100000BF00BF0098FCF7B1F800BF00BF00BFB1
:1040200043E71448006801F059F900BF00BF00BF22
:10403000FCF7A0F8009000BF00BF0C480078401EBD
:104040000A49087000BF00BF0098FCF797F800BF4E
:1040500000BF00BFFEF79CFD0020208002E047F279
:104060007E20208000BF20E7540000209C0000201C
:10407000989B0008F400002010B586B000F01EF8F0
:10408000FDF7F8FB044605A800210091CDE90114D5
:1040900003900748007800EB4000064A02EB8001DD
:1040A00000231A46044800F095FA06B010BD00003F
:1040B00082000020A41700205449434B10B5034848
:1040C000006810B101480068804710BD4C00002016
:1040D0002448254825482648264827482748284870
:1040E0002848294829482A482A482B482B482C4840
:1040F0002C482D482D482E482E482F482F48304810
:1041000030483148314832483248334833483448DF
:1041100034483548354836483648374837483848AF
:104120003848394839483A483A483B483B483C487F
:104130003C483D483D483E483E483F483F4840484F
:10414000404841484148424842484348434844481F
:10415000444845484548464846484748474800BFC0
:1041600070470000DC9B0008449D0008DE9B0008AF
:10417000DF9B0008E09B0008E49B0008E89B000828
:10418000E59B0008109C0008119C0008129C000888
:10419000149C0008169C0008189C00081A9C000833
:1041A0001C9C00083C9C00083E9C0008409C0008A9
:1041B000429C0008449C0008469C0008489C00085B
:1041C000749C0008759C0008769C0008789C000888
:1041D0007A9C00087B9C00087C9C00087E9C000860
:1041E000809C0008829C0008849C0008869C000833
:1041F000889C0008B89C0008B99C0008BA9C00087C
:10420000BB9C0008BC9C0008BE9C0008C09C000829
:10421000E89C0008E99C0008EA9C0008EB9C000868
:10422000EC9C0008EE9C0008F09C0008F49C000840
:10423000F59C0008F69C0008F79C0008F89C000814
:10424000F99C0008FA9C0008FB9C0008FC9C0008F4
:10425000FE9C0008FF9C0008009D0008029D0008CD
:10426000049D0008059D0008089D00083C9D00086D
:104270003D9D00083E9D0008409D0008429D0008AD
:104280000021034A1160034A118001807047000039
:104290006C000020700000202DE9F04F85B004462E
:1042A000894692469B46DDF838800020009000BF8A
:1042B00000BFFBF75FFF009000BF00BFBAF1000F27
:1042C0000AD0BAF1010F0DD0BAF5004F05D06FF446
:1042D0000040504460B906E000BF206A40EA09008F
:1042E000206214E000BF206A20EA090020620EE08C
:1042F00000BF00BF0098FBF741FF00BF00BF45F6BD
:104300002560A8F80000002005B0BDE8F08F00BFD0
:10431000C4F824B004F1080001900198008958B94C
:1043200000BF00BF0098FBF729FF00BF00BF0020BF
:10433000A8F80000206AE7E700BF61480078401C49
:104340005F49087000BF00BF0098FBF717FF00BF70
:1043500000BF00BF01980768BD687FE078680290E1
:1043600095F8880000F00F0003900398012821D0F1
:1043700002282ED0042802D0082836D10EE0206A68
:10438000D5F8801000EA0106D5F88000B04204D1CB
:104390005A463146284600F097F859E0206AD5F889
:1043A000801000EA010626B15A463146284600F040
:1043B0008BF84DE0D5F88000216A20EA0106D5F897
:1043C0008000B04204D15A463146284600F07CF8BD
:1043D0003EE0D5F88000216A20EA010626B15A465F
:1043E0003146284600F070F832E000BF00BF00BF41
:1043F000FBF7C0FE009000BF00BF31480078401EB0
:104400002F49087008460078A0B92E480088002877
:1044100009DD00BF00BF0098FBF7B0FE00BF00BF82
:1044200000F08AFF0DE000BF00BF0098FBF7A6FE7A
:1044300000BF06E000BF00BF0098FBF79FFE00BF73
:1044400000BF00BF43F6FF20A8F8000000205BE794
:1044500000BF029F0FB1BD6800E00025002D7FF472
:104460007DAF00BF00BF00BFFBF784FE009000BF20
:1044700000BF13480078401E1149087000BF00BFFC
:104480000098FBF77BFE00BF00BF00BF0AF40040AE
:1044900008B9FEF77DFB00BF00BFFBF76BFE009085
:1044A00000BF00BF206A049000BF00BF0098FBF768
:1044B00065FE00BF00BF0020A8F80000049823E7B5
:1044C0009C0000206000002070B504460E46154692
:1044D00034342665002060702070E560A078343C9C
:1044E000082816D2DFE800F00405080907061011B5
:1044F00000BF00BF00BF0DE000BF204601F098FCE8
:10450000002084F8360005E000BF042084F836005F
:1045100000E000BF00BF204600F09BFC70BD000023
:10452000002400BF19E000BF00BFFBF723FE0446D4
:1045300000BF00BF09480068401C084908600848DF
:104540000068401C0649086000BF00BF2046FBF71A
:1045500015FE00BF00BFFDF74DFEE4E75000002050
:10456000B400002010B58AB0044600200E4908604F
:104570000B2000210591CDE90704069108460B495F
:1045800009680B4A12680B4B1B68CDE90132CDE973
:1045900003103F200023084A08A100900C48FEF7B2
:1045A0002DFF0AB010BD000050000020409B000805
:1045B0003C9B0008389B00082145000875432F4F9D
:1045C000532D4949492049646C65205461736B003F
:1045D000101600202DE9F84F04460D4616461F46DA
:1045E000DDE90BABDDF82890DDF834800020009089
:1045F00000BF00BFFBF7BEFD009000BF00BF2B480F
:1046000000882B49098888423EDA28480088401CE7
:1046100026490880274800880988884203DA234809
:104620000088244908802448006804602248006803
:10463000856021480068C6601F48006807821E48E0
:104640000068C0F814901C480068A0F818A01A4828
:104650000068C0F81CB01848006840681649086037
:10466000012016490881164808604860002000F0C3
:10467000BFFC1448007818B112480078124908703D
:104680000020A8F8000008E010480088401C0F49EE
:10469000088044F25360A8F8000000BF00BF0098F3
:1046A000FBF76CFD00BF00BFBDE8F88F6000002085
:1046B0004C9B00086200002058000020A417002036
:1046C000D416002082000020840000206400002016
:1046D0003EB5594800680068584A811A904279D01E
:1046E0000FDC5749084400283ED056490844A8B179
:1046F00055490844002860D05449084400286AD12C
:104700003FE053480844002850D05249084400284C
:1047100062D0514908440028F1D110E002A8464D6A
:1047200000902D68EB69444D2D682A8B424D2D6811
:104730006969414D2D68A868FFF7AEFD7AE002A9CE
:104740003D480068C0693C4DCDE900012D682B8BC8
:10475000394D2D682A8A384D2D68E968364D2D6807
:10476000A86800F08DFC65E0334B1B68DA69324BBA
:104770001B68198B304B1B68986802AB00F0C2FEB7
:1047800058E002A92C480068C0692B4DCDE9000112
:104790002D682B8B284D2D682A8A274D2D68E968B6
:1047A000254D2D68A86801F03DFA43E022490968CB
:1047B000886802A901F04AFB3CE01F4B1B68DA69DC
:1047C0001D4B1B68198B1C4B1B68986802AB01F0D2
:1047D000E9FB2FE007E02CE017490968886802A987
:1047E00001F042FE26E01D49097801EB41011C4A17
:1047F00002EB810000F0FAFD0F48006802AB0021D7
:10480000C269184801F0CEFB17480068401E1649DF
:1048100008600846006858B9144800680860FDF749
:1048200029F8044602AB22460021114801F0BAFBE8
:1048300000E000BF00BF3EBD5C0000205449434B78
:10484000ADBAB2BE0DF90BFAF2F8F7FF0006F6FFAB
:1048500000F7FDF700FFEFFF03FE0FFE84000020CE
:10486000A4170020681B0020F0000020EC000020AE
:104870002C1C0020002700BF4CE0002648E000BFB1
:1048800000BFFBF777FC074600BF00BF2248008847
:1048900088B90020214908810860486000F0BAFB0F
:1048A00000BF00BF3846FBF769FC00BF00BFFEF742
:1048B0006FF901262CE000BF00BF3846FBF75EFC15
:1048C00000BF00BFFCF7D6FF0546FFF701FFFCF76E
:1048D000D1FF441B12480068A04201D21048046076
:1048E00000BF00BFFBF746FC074600BF00BF0D48F6
:1048F000006840680B49086007480088401E064968
:10490000088000BF00BF3846FBF738FC00BF00BF7F
:10491000002EB4D0B1E7000060000020A4170020F2
:10492000680000205C000020F0B589B0054600203A
:10493000314908803148006820B944F2526028802B
:1049400009B0F0BD2E480088022803DA44F2546012
:104950002880F5E700202B4908602848046826468F
:10496000203600270CE0284820600020A060E0608E
:10497000208260612083666020342036781C87B2F4
:104980001F4800888742EEDB203C1C4806686660B2
:104990001E4806601E48066000201E4908801E4909
:1049A00008801E48006818B944F255602880C7E79F
:1049B0001B4800681B490968884203D244F25660CC
:1049C0002880BDE7032000210591CDE90705069168
:1049D00013480068144A1268104B1B68CDE90301A4
:1049E000CDE9013200910B46104A11A11748FEF79C
:1049F00005FD00BFA4E7000064000020489B0008FC
:104A00004C9B0008680000204E4F4E455800002087
:104A10005C0000206000002062000020549B000821
:104A20005C9B0008949B0008589B00087548000890
:104A300075432F4F532D49494920495352205175F1
:104A4000657565205461736B00000000D41600206A
:104A50000021034A1160034A118001807047000061
:104A6000740000207800002070B502460B46104606
:104A7000114610315E1EB5B2002408E00160002628
:104A800046600681C66010301031661CB4B2AC427C
:104A9000F4DB0026066046600681C66070BD00003B
:104AA00010B504461048006818B945F21E70208001
:104AB00010BD0E48008818B945F21D702080F7E738
:104AC0000A48018808480068FFF7CEFF06480068DA
:104AD000074908600548008888800020C880088150
:104AE000208000BFE4E70000789B0008709B00086E
:104AF0009817002010B5014648894B89002B17DD17
:104B00000A680C4B1B6813600A4C4B6823602346F1
:104B1000DB884C891B1B074CE38023469B884C8910
:104B20002344044CA38000234B818B810B604B609A
:104B300010BD00009817002001810022428182816F
:104B400002604260704700002DE9F0410D46DDE94A
:104B50000674B0F80AC0B0F80880C44505DB46F218
:104B6000935CA4F800C0BDE8F081DFF8D4C0BCF8C5
:104B700004C0BCF1000F04D145F21D7CA4F800C0B4
:104B8000F1E7DFF8BCC0DCF80010DFF8B480D1F842
:104B900000C0C8F800C0C446BCF804C0ACF1010CA9
:104BA000A8F804C0C446BCF806C00CF1010CA8F873
:104BB00006C0C446BCF808C0B8F80680C44507DA89
:104BC000DFF87CC0BCF806C0DFF87480A8F808C025
:104BD000B0F80AC0BCF1000F06D1016041604FF08F
:104BE000010CA0F80AC017E003F0100CBCF1000F94
:104BF00007D1066831604FF0000CC1F800C00160B9
:104C000004E0D0F804C0C1F800C04160B0F80AC0A8
:104C10000CF1010CA0F80AC0B0F80CC0B0F80A8082
:104C2000C44503DAB0F80AC0A0F80CC04D600A8190
:104C3000CF604FF0000CA4F800C000BF93E7000065
:104C40009817002009A1C161002141610849096844
:104C500011B90021816105E00549096881610449B4
:104C600009684861024908607047000020000000A0
:104C70007C0000200021034A1160034A118001805A
:104C8000704700007C000020800000202DE9F041EA
:104C900005460C4616461F461548006880F83460E5
:104CA00000201349096881F835003946104800682A
:104CB00000F0EEFE6CB104F10808EC600122294618
:104CC0000B48006800F016F82946404600F08EF8C0
:104CD00006E0002006490968C88705490968086395
:104CE00003480168204600F019F8BDE8F081000093
:104CF000F400002010B5C287016300230AE00024FD
:104D00004C600C600C614C610C83CC61886020317C
:104D10005C1CA3B29342F2DB10BD000030B548B179
:104D20004568C1F8C05000F10804226893681D6A04
:104D3000C56113E091F83450022D02D0072D08D13F
:104D400003E007A5C1F8C05007E007A5C1F8C050AF
:104D500003E008A5C1F8C05000BF00BF30BD00008F
:104D60005461736B205100005461736B2053656D67
:104D7000000000002000000030B507A5C1F8C050B9
:104D800000F1080422681AB193681D6AC56101E048
:104D900001A5C56130BD0000200000002DE9F043F1
:104DA00004460F4684F83770256BB4F83E8013E054
:104DB000D5F80C9009F108063089012807D9294651
:104DC000304600F05EF82946304600F00FF82035F6
:104DD000A8F101001FFA80F8B8F1000FE8D1BDE892
:104DE000F08300210160416001817047F0B58E6859
:104DF00096F8375007893FB90127078100274F6090
:104E00000F600160416023E007897F1C0781026811
:104E100006E0946894F83770AF4200DD02E0526813
:104E2000002AF6D100BF32B900274F6043680B60FB
:104E3000596041600CE017682FB9116000270F60BE
:104E40004A60016004E013680B604A6059601160B9
:104E5000F0BD2DE9F0410446256BE68F0AE0D5F858
:104E60000C8008F108072946384600F00AF820357A
:104E7000701E86B2002EF2DC0020E0872063BDE8C1
:104E8000F08110B50489012C03D100240460446032
:104E900011E00C6824B94A680024146002600AE03A
:104EA0004C6824B90B6800245C60436003E00B6825
:104EB0004A685A6013600489641E048100244C60AF
:104EC0000C6010BD2DE9F84306460C46174698467F
:104ED000089D94F83600082850D2DFE800F0040559
:104EE000080906072B2C00BF00BF00BF47E000BF2A
:104EF00094F83400032807D143463A462146304609
:104F0000009500F03FF803E0E765A4F860802564B1
:104F100036B12046FFF79DFF21463046FFF72CFFB4
:104F2000204600F085FF00203434A070607004F843
:104F3000340924E000BF94F83400032807D1434625
:104F40003A4621463046009500F01CF803E0E7653C
:104F5000A4F860802564204601F020FC36B120468C
:104F6000FFF777FF21463046FFF706FF0420343471
:104F7000A0700020607004F8340900E000BF00BF9A
:104F8000BDE8F883F0B50446059E086BCD8F0AE0B6
:104F9000C768A74204D1046142610383C66104E08B
:104FA00020306F1EBDB2002DF2DC00BFF0BD00004E
:104FB00070B50025074C03E005F12000C5B2241DA3
:104FC00020680028F8D02068FBF7DFF82844C5B235
:104FD000284670BD2C000020002004E00021034A78
:104FE00042F82010401C0228F8D370472C00002003
:104FF00030B5420900F01F030121C3F11F04A14095
:10500000034C54F822400C43014D45F8224030BD7A
:105010002C00002030B5420900F01F030121C3F12C
:105020001F04A140034C54F822408C43014D45F825
:10503000224030BD2C00002009A1C1610021416146
:105040000849096811B90021816105E0054909682D
:10505000816104490968486102490860704700009D
:1050600020000000880000200021034A1160034A4C
:105070001180018070470000880000208C00002013
:105080002DE9F04F85B007468A4693461C4600201E
:10509000029000BF00BF00BFFBF76CF8029000BF9A
:1050A00000BF48480078401C4649087000BF00BF58
:1050B0000298FBF763F800BF00BF00BF07F10806C6
:1050C0003089002842D104F0100010B94FF00008D8
:1050D00001E04FF01008DDE90E0143465A46CDE9E4
:1050E0000001514607F12000FFF72EFD00BF00BF71
:1050F00000BFFBF73FF8029000BF00BF31480078C7
:10510000401E3049087008460078A0B92E48008833
:10511000002809DD00BF00BF0298FBF72FF800BF91
:1051200000BF00F009F90DE000BF00BF0298FBF7D7
:1051300025F800BF06E000BF00BF0298FBF71EF88D
:1051400000BF00BF00BF05B0BDE8F08F04F40070E1
:1051500008B1358900E00125D6F8009011E0D9F8B2
:1051600008000390D9F8040004900E985B4652465C
:10517000009038460399FFF7A5FEDDF81090681EF1
:1051800085B2002DEBD100BF00BF00BFFAF7F2FFE0
:10519000029000BF00BF0B480078401E094908700C
:1051A00000BF00BF0298FAF7E9FF00BF00BF00BFD1
:1051B00004F4004008B9FDF7EBFC00210F980180D2
:1051C00000BFC0E79C0000206000002000210AE032
:1051D00001EB4102054B03EB8200002202810260D9
:1051E00042604A1CD1B24029F2D37047A417002074
:1051F00010B5044694F83700FFF7FAFE94F837002C
:1052000005490978884203D1204600F027F802E0DA
:10521000204600F003F810BD8200002010B590F881
:10522000373003EB43030C4C04EB83010B893BB990
:1052300001230B810023C36003610860486009E01B
:105240000B895B1C0B810B68C360002303610A6838
:105250001061086010BD0000A417002010B590F880
:10526000373003EB43030B4C04EB83010B893BB951
:1052700001230B810023C36003610860486008E0DC
:105280000B895B1C0B810023C3604A680261D060FC
:10529000486010BDA417002010B501460C8924B148
:1052A000012C03D0022C0CD101E000BF14E00868EF
:1052B0004A6802610024C4601461D0600A604860DA
:1052C0000AE008684A68C36800241C61C46002617F
:1052D000D0600B60486000BF00BF10BD2DE9F041F9
:1052E000054695F8370000EB4000124901EB8004B9
:1052F0002F69EE6887B946B9002020812060606080
:1053000095F83700FFF786FE0EE02089401E2081C9
:1053100000203061266007E02089401E2081FE6069
:105320000EB9676000E0376100202861E860BDE8E1
:10533000F0810000A417002010B5002400BFFAF788
:1053400019FF044600BF00200D4908700D480E49A2
:10535000086008460068D0F89000401C0968C1F851
:1053600090000A480068401C084908604FF08050CF
:105370000749086000BF2046FAF700FF00BF10BDD4
:1053800083000020D4160020F8000020C800002070
:1053900004ED00E010B504480078012803D1FCF7C3
:1053A00069FA0249086010BD9C00002090000020AE
:1053B00010B50A48007880B9FCF75CFA084909681A
:1053C000441A08480068A04201D206480460064812
:1053D0000068A04201D20448046010BD9C00002077
:1053E00090000020940000209800002070B5054631
:1053F00000262E480078012800D070BD00BF00BFF5
:10540000FAF7B8FE064600BF00BF2C683CB900BFE3
:1054100000BF3046FAF7B2FE00BF00BFEDE72448F8
:10542000844207D100BF00BF3046FAF7A7FE00BF95
:1054300000BFE2E7A06D10B1A06D401EA065A06D99
:1054400038B100BF00BF3046FAF798FE00BF00BF7A
:10545000D3E72889022807DA00BF00BF3046FAF7F1
:105460008DFE00BF00BFC8E712480078002807DDA6
:1054700000BF00BF3046FAF781FE00BF00BFBCE7A7
:105480002846FFF709FF2C68606D18B90A480068C4
:10549000A06501E0606DA06500BF00BF3046FAF76F
:1054A0006DFE00BF00BF00BFA7E70000A400002002
:1054B000101600209C000020A000002009A1C1615E
:1054C000002141610849096811B90021816105E0A5
:1054D0000549096881610449096848610249086011
:1054E0007047000020000000A80000200021034AAF
:1054F0001160034A1180018070470000A80000205D
:10550000AC0000202DE9FF5F0446884691461D4609
:105510000020019000BF00BFFAF72CFE019000BFF1
:1055200000BF04F10807388900284FD10420012862
:1055300004D0022814D0042834D123E0206AFF28A4
:105540000DD100BF00BF0198FAF718FE00BF00BFE1
:1055500046F6C5502880002004B0BDE8F09F22E048
:105560004FF6FF71206A88420BD100BF00BF01983F
:10557000FAF704FE00BF00BF46F6C55028800020A1
:10558000EAE710E0206A401C58B900BF00BF01984C
:10559000FAF7F4FD00BF00BF46F6C5502880002092
:1055A000DAE700E000BF00BF206A401C2062D4F8A8
:1055B00020A0C4F8249000BF00BF0198FAF7DEFDD8
:1055C00000BF00BF002028805046C5E700BF254827
:1055D0000078401C2349087000BF00BF0198FAF70B
:1055E000CDFD00BF00BF00BF08F4007008B13E89C8
:1055F00000E00126D7F800B011E0DBF808000290C7
:10560000DBF80400039000231A46CDF800902046F2
:105610000299FFF757FCDDF80CB0701E86B2002E21
:10562000EBD1D4F820A000BF00BF00BFFAF7A2FD65
:10563000019000BF00BF0B480078401E0949087068
:1056400000BF00BF0198FAF799FD00BF00BF00BF7F
:1056500008F4004008B9FDF79BFA00202880504666
:105660007AE700009C00002086B00020009000BF78
:1056700006E0C3490968480001AA0021FEF778FB4B
:10568000C04800780128F4D101A8FDF799FD002752
:10569000BD480068BA490968884205D9BA48006817
:1056A000B7490968B0FBF1F727B9B74800680A2184
:1056B000B0FBF1F762E1FCF7DDF8804600BF00BF08
:1056C000FAF758FD009000BF00BFB0480068B0492D
:1056D00008600020AD49086000BF00BF0098FAF7DD
:1056E0004DFD00BF00BFAB480068A949096888426A
:1056F00048D9A8480068A849884205D242F21070EB
:1057000003900120029023E0A2480068A349884248
:1057100005D24FF47A7003900A20029018E09D4859
:1057200000689F49884203D26420039002900FE0F2
:10573000984800689B49884205D20A2003904FF49C
:105740007A70029004E00120039042F210700290FF
:10575000904801680298B1FBF0FA8D4903980968F6
:105760004843B0FBFAF042F21071081A8E490880E3
:105770008E4800880988884208DA8B4800888B495F
:10578000088003E042F2107087490880FDF72CFE84
:10579000002500BF00BFFAF7EDFC009000BF00BF7E
:1057A0008348046800BF00BF0098FAF7E7FC00BF19
:1057B00000BF5AE000BF00BF00BFFAF7DBFC00905B
:1057C00000BF00BF7B480078401C7A49087000BFCA
:1057D00000BF0098FAF7D2FC00BF00BF00BF54F82A
:1057E0009C0F6060002044F89C0900BF00BF00BF10
:1057F000FAF7C0FC009000BF00BF6E480078401E62
:105800006C49087008460078A0B96B4800880028E9
:1058100009DD00BF00BF0098FAF7B0FC00BF00BF71
:10582000FFF78AFD0DE000BF00BF0098FAF7A6FC65
:1058300000BF06E000BF00BF0098FAF79FFC00BF62
:1058400000BF00BFD4F8A000054400BF00BFFAF7B6
:1058500091FC009000BF00BFD4F8BC4000BF00BF67
:105860000098FAF78BFC00BF00BF002CA2D145B313
:105870004948854205D242F2107005904FF0010B65
:105880001BE04648854205D24FF47A7005904FF0F0
:105890000A0B12E04248854203D2642005908346F9
:1058A0000BE04048854204D20A2005904FF47A7BF1
:1058B00003E00120059042F2107BB5FBFBF0049061
:1058C00003E0002005900120049000BF00BFFAF71C
:1058D00051FC009000BF00BF3548046800BF00BF06
:1058E0000098FAF74BFC00BF00BF2BE0D4F8A000F3
:1058F000059948430499B0FBF1F086B242F210706A
:10590000864200D90646A4F88C60B4F88E00B042F6
:1059100001DAA4F88E6001AB04F1AC02111D20463F
:10592000FEF7E8F800BF00BFFAF724FC009000BFC4
:1059300000BFD4F8BC4000BF00BF0098FAF71EFCBF
:1059400000BF00BF002CD1D11C480078012805D130
:1059500000201A49087001A8FDF732FCFBF78AFF06
:10596000A0EB080916480068484502D21448C0F860
:10597000009001AA00213846FEF7FAF99BE60000E4
:10598000809B0008C0000020989B0008B400002005
:10599000BC000020B8000020801A060000093D006D
:1059A000005A62020084D717B0000020B200002025
:1059B000CC0000209C00002060000020AE000020F1
:1059C000C400002010B58AB0044600201F490860BA
:1059D0001F4908601F4908601F4908701F49087067
:1059E0001F48006820B946F62B6020800AB010BD21
:1059F0001C4800681C490968884203D246F62C609E
:105A00002080F3E7194800783F2803D346F62A6040
:105A10002080EBE7032000210591CDE907040691E2
:105A2000084610490968124A12680D4B1B68CDE9F7
:105A30000132CDE903100D48007800230D4A0EA174
:105A400000901248FDF7DAFC00BFCFE7B400002059
:105A5000BC000020B8000020C0000020AE000020E4
:105A6000849B00088C9B0008949B00087C9B00088A
:105A7000889B00086956000875432F4F532D4949EC
:105A8000492053746174205461736B00A41A002080
:105A900038B504460D4685B16B460222294620469C
:105AA00000F09EFDBDF8000018B9032084F8360010
:105AB00006E0022084F8360002E0022084F8360076
:105AC0002046FFF70BFC38BD0021C0F8B81009498B
:105AD000096819B90021C0F8BC1007E00549096838
