:020000040800F2
:10000000A8A8002049010008AF300008A92E000868
:10001000AB2F00083D250008FDA3000800000000EC
:100020000000000000000000000000008D8D0008AE
:10003000F126000800000000571000087B9000081F
:10004000630100086301000863010008AD86000831
:100050006301000863010008712900087D2A000877
:10006000A92A0008DD2A0008092B000863010008FE
:1000700063010008630100086301000863010008D0
:1000800063010008630100086301000863010008C0
:10009000630100086301000863010008352B0008B4
:1000A00063010008630100086301000863010008A0
:1000B000ED900008119100083991000863010008D3
:1000C0006301000863010008630100086301000880
:1000D00063010008FD9B0008219C0008459C000866
:1000E000B9290008630100086301000863010008E2
:1000F0006301000863010008630100086301000850
:1001000063010008630100085991000863010008B9
:10011000D99B0008630100087991000895910008B7
:10012000630100086301000863010008630100081F
:10013000DFF810D000F034FD004800474DB900084A
:10014000AFF30080A8A80020064880470648004773
:10015000FEE7FEE7FEE7FEE7FEE7FEE7FEE7FEE777
:10016000FEE7FEE78D9000083101000872B6704787
:1001700062B67047EFF3108072B6704780F3108854
:10018000704730BF704720BF7047B0FA80F07047AB
:1001900090FAA0F0B0FA80F0704790FAA0F07047A3
:1001A0002DE9F05F0546002092469B4688460646AC
:1001B000814640241BE0284641464746224600F03F
:1001C000B4FB53465A46C01A914110D31146184603
:1001D000224600F09BFB2D1A67EB01084F46224692
:1001E0000120002100F092FB17EB00094E41201E78
:1001F000A4F10104DFDC484631462A464346BDE807
:10020000F09F40EA01039B0703D009E008C9121FD1
:1002100008C0042AFAD203E011F8013B00F8013BC0
:10022000521EF9D27047D2B201E000F8012B491EEC
:10023000FBD270470022F6E710B513460A46044683
:100240001946FFF7F0FF204610BD30B505462A4697
:100250000B4612F8010B13F8014B08B1A042F8D07D
:100260001CB1002802D06D1CF1E7284630BDCAB28F
:10027000401E10F8011F8A4202D00029F9D1002047
:100280007047421C10F8011B0029FBD1801A7047EF
:1002900030B505460020034600E05B1C934205D2C2
:1002A000EC5CC85C201A01D1002CF6D130BD0000F6
:1002B00070B50F4D00B92868002412E00A4602E02C
:1002C0009E4203D0521C1378002BF9D1DAB222439C
:1002D00005D02BB124B1002100F8011B04E0044635
:1002E000401C0678002EE9D12860204670BD000031
:1002F0009801002010B5484304460BF0ABFB0028E2
:1003000005D00021002C02D0641E0155FAE710BD73
:100310000FB400B58DB010A909900B9000914FF06B
:10032000FF300A9000200C90054806900548079081
:100330006A4609A80F9900F021FB0DB05DF814FB87
:1003400099090008B70900082DE9FF5FD2E901A764
:100350004FF00008916999461446DDF838B04646DA
:1003600001988847054659EA0B0005D009E0A169C4
:10037000761C019888470546216A28468847002848
:10038000F5D1681C03D05FEACA7005D015E04FF0C4
:10039000FF3004B0BDE8F09F2068011D2160D0F857
:1003A00000800AE05FEACA7001D108F8015BA16928
:1003B000761C7F1E019888470546002F1ADD681CB1
:1003C00018D0B9F1000F0DD0E81705EBD06042113D
:1003D00020F01F0059F822102A1A012090400142F3
:1003E000E0D107E0BBF1000FDCD1216A2846884745
:1003F0000028D7D0E16901988847BBF1000F07D1E9
:10040000002E05DD5FEACA7002D1002188F80010D5
:10041000A068B84203DDBBF1000F03D017B16FF045
:100420000100B6E73046B4E770B506460AF06EF94B
:10043000046805460A220021304600F0CDFA2C60FF
:1004400070BD80EA010210B502F00043400022D0E6
:100450004A001FD0010E01EB1261C0F35600C2F337
:10046000560240F4000042F40002A0FB0220000407
:100470007F39140400D0401C50EA124001D44000DF
:10048000491EC2B20C0604EBD010401C4008802A62
:1004900002D003E0002010BD20F00100002900DAA6
:1004A0000020184310BD30B480EA010202F000457C
:1004B00030F0004221F0004013D090B1C30DD40DB4
:1004C000C2F31601C0F31600E41A41F4000140F42F
:1004D00000027D34914201D3641C00E04900002CED
:1004E00002DA30BC002070474FF400000023914234
:1004F00001D3891A034340084FEA4101F7D151B1B2
:10050000914202D14FF0004105E002D24FF00101CB
:1005100001E06FF0010103EBC450284430BC00F04F
:1005200093BA2DE9FE4F804681EA0300C00F0C46C6
:10053000009021F0004123F00045B8EB0200A941F2
:1005400005D24046214690461C460B46024623F003
:100550000040104347D0270DC7F30A00C3F30A51E8
:100560000290401A019040286BDAC3F3130040F464
:10057000801B0098924620B10023D2EB030A63EB64
:100580000B0B01985946C0F14002504600F0BEF9ED
:1005900006460D4650465946019A00F0D6F910EB32
:1005A00008006141002487EA115284EAE7731A4384
:1005B00040D0009A62B3019A012A4FEA075215DC33
:1005C000001B61EB02014FF0004202EA0752CDE945
:1005D0000042001C41F5801132462B4600F07AFAA9
:1005E00003B0BDE8F08F40462146F9E7001B61EB00
:1005F0000201001C41F5801300185B412018A2F590
:10060000001747EB030140EAD570B6196D4111E0C0
:100610006D084FEA360645EAC0754FEA0752001BDF
:1006200061EB0201001C41F5801149084FEA3000DE
:100630000019514132462B4603B0BDE8F04F00F09F
:100640003ABA0098012240000023D0EB020263EB8B
:10065000E073009821464FEAE074B8EB000061EBCC
:100660000401E9E783F000435BE781F0004158E7CC
:100670002DE9FE4F81EA030404F0004421F000411B
:1006800000944FF0000B23F0004350EA01045ED0C9
:1006900052EA03045BD0C3F30A54C1F30A552C4455
:1006A000A4F2F3340194A0FB0254C1F3130141F40A
:1006B0008011C3F3130343F4801301FB024400FBD6
:1006C000034E840A970A44EA815447EA8357A4FBFD
:1006D000076802958D0A05FB07854FEA932C04FBFA
:1006E0000C542705029D4FEA065847EA1637B5EB2A
:1006F00008056EEB070C870E920E47EA811742EA57
:100700008312A7FB0201B6EB0B0164EB00042B0D77
:1007100043EA0C335E1844EB1C50DA465146E7FBC3
:100720000201C5F313044FEA0B3343EA14534FEAB3
:100730000432019C43EA0603A4F10C040294009CD9
:10074000CDE900B400F0C6F903B0BDE8F08F002099
:100750000146F9E72DE9F04D81EA030404F0004B6E
:1007600021F0004514464FF0000A23F0004150EA02
:10077000050220D054EA01021DD0C5F30A570246F3
:10078000C5F31303C1F31300C1F30A5640F48015F7
:1007900043F48013A7EB0608101BD64608F2FD3879
:1007A00073EB050002D308F1010801E092185B41E8
:1007B000B8F1000F03DA00200146BDE8F08D0020FB
:1007C0004FF48011064684460EE0171B73EB0507B5
:1007D00005D3121B63EB050306434CEA010C4908E1
:1007E0004FEA300092185B4150EA0107EDD152EA1E
:1007F000030012D082EA040083EA0501084305D011
:10080000101BAB4106D20122002306E000224FF06C
:10081000004302E06FF0010253101AEB06004CEBAC
:10082000085110EB0A0041EB0B01BDE8F04D00F060
:1008300042B9C10F80EAE0700844CA07962300213C
:1008400000F00BB996230022114600F006B920F003
:100850000040C10DC0F3160040F400007F2901DA0A
:1008600000207047962903DCC1F19601C84070470B
:1008700096398840704700F0004230F000400AD0BE
:10088000C10D01F56071C0F3160042EA0151C208C2
:1008900040071143704700200146704730B5041EE1
:1008A00071F1000404DB4FF00044404264EB0101AD
:1008B000141E73F1000405DB1C464FF00043524246
:1008C00063EB0403994208BF904230BD002801DB6E
:1008D000C0F10040002901DBC1F1004181427047B5
:1008E00030B50B46014600202022012409E021FA00
:1008F00002F59D4205D303FA02F5491B04FA02F5FD
:100900002844151EA2F10102F1DC30BD202A04DBCF
:10091000203A00FA02F1002070479140C2F1200312
:1009200020FA03F3194390407047202A04DB203A51
:1009300021FA02F00021704721FA02F3D040C2F1FF
:1009400020029140084319467047202A06DBCB1746
:10095000203A41FA02F043EAE07306E041FA02F37A
:10096000D040C2F120029140084319467047000070
:10097000026811441378016018467047D160044939
:1009800051610449116200211161114600F028B93A
:1009900071090008CD0B0008426842B1016811F8E6
:1009A000013B23B1521EC0E90012184670470121D5
:1009B000C160881E704742685AB1C368016843B974
:1009C00083688B4205D0491E521CC0E900120020EA
:1009D00070474FF0FF3070472DE9F04791460F46C2
:1009E00080460446002614F8015B2DB100F0EAF8B9
:1009F0000068405DC007F6D12B2D02D02D2D18D0F8
:100A0000641E4A463946204600F082FA27B139680A
:100A1000A14201D1C7F8008071054FF002040BD547
:100A20004042002803DD09F071FE0460A007BDE824
:100A3000F08746F48066E4E70028F8DA09F066FEFD
:100A400004606FF00040F2E70029A8BF7047401C27
:100A5000490008BF20F00100704710B4B0FA80FCD4
:100A600000FA0CF050EA010404BF10BC704749B111
:100A7000CCF1200421FA04F411FA0CF118BF012181
:100A800021430843A3EB0C01CB1D4FEA00614FEA61
:100A9000102042BF002010BC704700EBC350104430
:100AA0000029A4BF10BC7047401C490008BF20F0BB
:100AB000010010BC704710B5141E73F1000408DA71
:100AC000401C41F1000192185B411A4301D120F012
:100AD000010010BD2DE9F04D92469B4611B1B1FACF
:100AE00081F202E0B0FA80F220329046FFF70EFF6A
:100AF00004460F4640EA0A0041EA0B0153465A46B3
:100B0000084313D0114653EA010019D0C8F140023E
:100B10005046FFF70AFF05460E46504659464246E4
:100B2000FFF7F4FE084305D0012004E020463946D3
:100B3000BDE8F08D0020054346EAE0762C433743BC
:100B40000A986305E40AA0EB08000022FD0A44EAC3
:100B500047540A3002D500200146E9E70105101983
:100B60006941DDE9084500196941BDE8F04DA2E79A
:100B7000C1F30A52C1F3130140F2FF3341F4801173
:100B80009A4202DA00200146704740F233439A420B
:100B9000A2F2334202DC5242FFF7C7BEFFF7B6BEF5
:100BA000064C074D06E0E06840F0010394E80700BA
:100BB00098471034AC42F6D3FFF7BEFAD43201089E
:100BC000F432010800487047D032010810B50446DD
:100BD000FFF7F8FF0068005D00F0010010BD0000A5
:100BE0002DE9F34F8BB04FF0000801F10C000C46DB
:100BF0004FF0010B46460DF1080A01906269012190
:100C000001989047051E2DD0252D2CD0216A8847AC
:100C1000C0B16269012101989047216A8847002884
:100C2000F7D1411E62690198904700E0761CA169E6
:100C30000B988847216A88470028F7D1E1690B980B
:100C40008847DBE7A1690B9888470746A84201D18E
:100C5000761CD3E7E1690B9888477F1C02D1B8F175
:100C6000000F6FD047E1002762693D463946019881
:100C700090472A2804D162690121019890470125F3
:100C8000DFF888926269012101989047A0F1300154
:100C90000A290AD24F45E5DC07EB870100EB410743
:100CA000303FDFD445F01005ECE7E90601D46FF0E2
:100CB00000476C280AD04C2814D0682815D06A2820
:100CC0000DD074281CD07A281AD01DE06269012149
:100CD000019890476C2802D045F0040514E045F0D7
:100CE00002050DE045F020050AE062690121019846
:100CF0009047682802D045F0080505E045F40065F6
:100D00006269012101989047C4E9015765283DD0E7
:100D100019DC58287AD00CDC452837D004DC25288B
:100D200026D0412831D131E046282FD047282CD178
:100D30002CE05B2877D0612828D063287CD06428F9
:100D400023D15AE0D1E06F2848D008DC66281DD0B6
:100D500067281BD0692821D06E2816D127E070287B
:100D600045D0732868D0752847D078280DD14DE03C
:100D7000A1690B988847054625283FF469AFE169CA
:100D80000B9888476D1C3FF46AAFB4E023466A466F
:100D90006FF001000B99AFF300809FE045F0400039
:100DA0006060A80723464FF0000236D43EE0E80713
:100DB0007FF447AF2068011D21600068290501D537
:100DC00006701BE7290701D5068017E7A90703D599
:100DD000F117C0E9006111E706600FE745F0400038
:100DE0006060A80723464FF0080216D41EE040F6C4
:100DF0000E0125EA0100606016E045F040006060E9
:100E0000A80723464FF00A0207D40FE045F0400040
:100E10006060A80708D5234610226FF001000B99E7
:100E2000AFF300805AE007E0234610226FF0010084
:100E30000B99AFF3008051E04FF000094F464B464D
:100E4000632802D05B2807D041E02079C00601D496
:100E50000120A06001273AE06269012101989047D2
:100E60005E2805D14FF00109626949460198904713
:100E7000216939B900210A46534643F82120491C0B
:100E80000829FADBB0B3216969B9C11700EBD16257
:100E900053110AEB830122F01F02821A01200B6812
:100EA000904003430B6062690121019890475D28DF
:100EB000E8D1B9F1000F09D00020514651F82020A7
:100EC000D24341F82020401C0828F7DB02AB224621
:100ED00000976FF001000B99FFF736FA00280CDA43
:100EE000401C08D1BBF1000F05D04FF0FF300DB012
:100EF000BDE8F08FFFE74046F9E7E90701D108F1C7
:100F0000010806444FF0000B78E60000CCCCCC0C76
:100F10002DE9F05F82460078002715468B460AF1DE
:100F20000104B946302801D09DB113E014F8010B3B
:100F30000127782803D0582801D045B10AE00DB127
:100F4000102D07D10027102514F8010B02E0082509
:100F500000E00A250026B0460EE005FB080005FB70
:100F600006F1012701EB10461FFA80F8B6F5803F25
:100F700000D3B94614F8010B294600F018F80028F0
:100F8000EBDABBF1000F05D00FB1641E00E0544650
:100F9000CBF80040B9F1000F06D009F0B7FB0221F1
:100FA0000160C81EBDE8F09F48EA0640FAE73A280B
:100FB00000D2303820F02002412A01D3A2F13700BC
:100FC000884201D34FF0FF30704770B58C1810F88D
:100FD000015B15F0070301D110F8013B2A1106D17E
:100FE00010F8012B03E010F8016B01F8016B5B1E98
:100FF000F9D12B0705D40023521E0DD401F8013B73
:10100000FAE710F8013BCB1A921C03E013F8015BDE
:1010100001F8015B521EF9D5A142D8D3002070BD62
:101020001D484FF6FF710170002080F309881B48AE
:10103000016881F308881A484FF08051016062B658
:10104000FEE717484FF080510160704714484FF099
:1010500080510160704772B6EFF3098028B12038E3
:1010600080E8F00F0F490968086000B50E48804716
:101070005DF804EB0D480E490A78027009480D49E5
:101080000A680260106890E8F00F203080F3098849
:101090004EF0040E62B6704722ED00E0FC00002026
:1010A00004ED00E0F4000020E54F0008820000207D
:1010B00083000020F800002021B1826842F0010284
:1010C000826003E0826822F00102826070470000C3
:1010D00010B504461248844208D10121401507F09A
:1010E0002DF90021601507F029F917E00D48844219
:1010F00008D10121001507F021F90021201507F082
:101100001DF90BE00848844208D10121C80307F00B
:1011100015F900214FF4004007F010F910BD000050
:101120000024014000280140003C0140014600200D
:101130008A6802F004020AB1012000E00020704732
:101140000146C86C80B270470246002013680B400D
:101150000BB1012000E000207047014600208A68A2
:1011600002F008020AB1012000E0002070470000F0
:1011700030B502460020002350680F4C20400D7906
:101180000C6844EA05242043506090680B4C2040D2
:10119000D1E902542C434D7944EA45042043906040
:1011A000D06A20F470000C7C641EE4B2234340EA51
:1011B0000350D06230BD0000FFFEF0FFFDF7F1FFED
:1011C000F0B504460D4600200021092D11DDE06830
:1011D000A5F10A0606EB4607072606FA07F188433B
:1011E000A5F10A0606EB460603FA06F10843E0609D
:1011F0000CE0206905EB4507072606FA07F188434E
:1012000005EB450603FA06F108432061072A0FDAC9
:10121000606B561E06EB86071F2606FA07F1884309
:10122000561E06EB860605FA06F10843606322E0C7
:101230000D2A0FDA206BD61F06EB86071F2606FA4B
:1012400007F18843D61F06EB860605FA06F1084328
:10125000206310E0E06AA2F10D0606EB86071F2668
:1012600006FA07F18843A2F10D0606EB860605FA99
:1012700006F10843E062F0BD816841F00801816039
:10128000704721B1826842F4A002826003E0826864
:1012900022F4A00282607047816841F004018160FD
:1012A0007047000000B587B001214FF4047007F0CB
:1012B00035F84FF4004007F005F80120ADF80400C0
:1012C00000208DF8070001A9174801F009FD174813
:1012D000FFF7FEFE002002908DF80C008DF80D0047
:1012E0004FF4602004900020059001208DF8180034
:1012F00002A90E48FFF73CFF01210C48FFF7DCFE76
:101300000A48FFF7B9FF00BF0848FFF726FF00288B
:10131000FAD10648FFF7C0FF00BF0448FFF706FFF9
:101320000028FAD107B000BD0010014000240140A0
:101330002DE9FC4705460E4617469846DDE90A9A10
:101340000C210120FEF7D6FF044614B90020BDE8A9
:10135000FC87022D04DB20460AF084F90020F6E722
:101360000F4850F8250030B120460AF07BF90C48B0
:1013700050F8254002E00A4840F825402571E67003
:1013800053464A460E210020CDE9007807F074FD4F
:10139000A0600120207000206070A0702046D6E779
:1013A0008801002070B504460D460026A06801F0B3
:1013B00076FAE178A06801F043FAA06801F0ADFA8E
:1013C00020B9A06801F08AFA002070BD2912A06837
:1013D00001F036FAA06801F0A0FA20B9A06801F087
:1013E0007DFA0020F1E7E9B2A06801F029FAA068CF
:1013F00001F093FA20B9A06801F070FA0020E4E748
:10140000A06801F04CFAE278521CD1B2A06801F059
:1014100017FAA06801F081FA20B9A06801F05EFA1D
:101420000020D2E7A06801F0E7F90646A06801F0C5
:10143000C4F9A06801F052FA3046C6E710B50120A1
:1014400006F08CFF002006F089FF10BD08B50146AC
:1014500000200090034800900098084400900098F5
:10146000008808BD006C004001490860704700001A
:1014700000860D4208B500220092044A0092009AAC
:1014800002440092009A116008BD0000006C004008
:1014900000B585B0684606F067FF019805B000BD4D
:1014A00010B50446A10201F18040002107F092FE30
:1014B000A10201F18040012107F089FEA10201F1A2
:1014C0008040002107F0ABFF10BD10B50446A1021B
:1014D00001F18040012107F07DFE10BD2DE9F04FA4
:1014E00087B004460D4617461E46DDE912B9DDE910
:1014F00010A8032C03DB002007B0BDE8F08F042107
:10150000A9400422B2401143042202FA08F2114316
:10151000042202FA09F241EA0200012106F0FEFE6D
:1015200024B1012C07D0022C0FD109E001210803BE
:1015300006F0F4FE0BE00121880306F0CFFE06E082
:101540000121C80306F0CAFE01E00020D4E700BF75
:101550000120B84080B2ADF8180010208DF81B00B3
:1015600003208DF81A0054490A1502FB051006A93C
:1015700001F0B6FB0122BA4091B24F4A131503FBAA
:10158000052001F08AFC012000FA0AF080B2ADF8D3
:10159000180018208DF81B0003208DF81A0046490A
:1015A0000A1502FB061006A901F09AFB012202FAB5
:1015B0000AF291B2404A131503FB062001F06DFCBC
:1015C000012000FA0BF080B2ADF8180018208DF859
:1015D0001B0003208DF81A0037490A1502FB08107A
:1015E00006A901F07DFB012202FA0BF291B2324A08
:1015F000131503FB082001F050FC012114988140D1
:1016000088B2ADF8180018208DF81B0003208DF863
:101610001A0029490A1502FB091006A901F060FB0E
:101620000123149A934099B2234A131503FB09200E
:1016300001F033FC0020ADF804004FF48270ADF8E7
:1016400006004FF40060ADF808000220ADF80A0073
:101650000120ADF80C004002ADF80E000020ADF8FE
:101660001000ADF812000720ADF8140024B1012CD1
:101670000BD0022C1BD111E001A9104807F068FB28
:1016800001210E4807F0FCF913E001A90C4807F00E
:101690005FFB01210A4807F0F3F90AE001A90948B4
:1016A00007F056FB0121074807F0EAF901E00020A6
:1016B00022E700BF01201FE7000801400030014081
:1016C00000380040003C004070B504460D466FF005
:1016D000040007F0BEFC0B48B4FBF0F6C01090FB12
:1016E000F5F046434FF0E020006940F002004FF073
:1016F000E021086108464661006940F00100086188
:10170000012070BD00127A002DE9F04186B0044638
:101710000F4615461E46DDF8308078B2002812DBF1
:1017200078B207280FDC60B2002808DB60B203281B
:1017300005DA05223946002000F020F913E00020E8
:1017400006B0BDE8F08178B20A280ADB78B20F282B
:1017500007DC60B2002802DB60B2032803DB002054
:10176000EEE70020ECE768B2002810DB68B207283B
:101770000DDC60B2002808DB60B2032805DA052220
:101780002946002000F0FAF817E00020D8E768B2F8
:101790000A2810DB68B20F280DDC60B2002808DBD5
:1017A00060B2032805DA05222946022000F0E6F897
:1017B00003E00020C4E70020C2E770B2002810DB7D
:1017C00070B207280DDC60B2002808DB60B2032885
:1017D00005DA05223146002000F0D0F817E000209D
:1017E000AEE770B20A2810DB70B20F280DDC60B2D1
:1017F000002808DB60B2032805DA05223146022002
:1018000000F0BCF803E000209AE7002098E74FFAC8
:1018100088F0002811DB4FFA88F007280DDC60B251
:10182000002808DB60B2032805DA052241460020C3
:1018300000F0A4F819E0002082E74FFA88F00A28A7
:1018400011DB4FFA88F00F280DDC60B2002808DBAE
:1018500060B2032805DA05224146022000F08EF826
:1018600003E000206CE700206AE7002001908DF87B
:1018700008008DF809004FF46020039000200490C8
:1018800001208DF8140024B1012C25D0022C69D13F
:1018900045E00121480206F041FD01A93448FFF767
:1018A00067FC4FF4404006F00DFD01213048FFF782
:1018B00003FC2F48FFF7E0FC00BF2D48FFF74DFC6D
:1018C0000028FAD12A48FFF7E7FC00BF2848FFF7B5
:1018D0002DFC0028FAD147E00121880206F01EFD08
:1018E00001A92448FFF744FC4FF4404006F0EAFC0D
:1018F00001212048FFF7E0FB1E48FFF7BDFC00BFB9
:101900001C48FFF72AFC0028FAD11A48FFF7C4FC4C
:1019100000BF1848FFF70AFC0028FAD124E0012193
:10192000C80306F0FBFC01A91348FFF721FC4FF4A4
:10193000404006F0C7FC01210F48FFF7BDFB0E48F1
:10194000FFF79AFC00BF0C48FFF707FC0028FAD10C
:101950000948FFF7A1FC00BF0748FFF7E7FB002895
:10196000FAD101E00020EBE600BF0120E8E600002C
:101970000024014000280140003C0140F8B5054624
:101980000C461646072D01DB0020F8BD102C01DBAC
:101990000020FAE7062E01DB0020F6E7042101FA19
:1019A00005F0012106F0BAFC022D0CD10D2C01D05E
:1019B0000E2C08D1012006F07FFC002006F05CFD13
:1019C0000020FFF751FD012D03D1032C04D0042C7E
:1019D00002D02DB90F2C03D10121264801F00CFAB9
:1019E0005DB90D2C01D00E2C07D10121084606F05F
:1019F00095FC01211F4801F0FFF90120A04080B2B1
:101A0000ADF80000062E1CD2DFE806F003070B0F2E
:101A1000131704208DF8030015E010208DF8030043
:101A200011E014208DF803000DE028208DF803004C
:101A300009E048208DF8030005E000208DF8030040
:101A400001E00020A1E700BF03208DF802000A4951
:101A50000A1502FB0510694601F042F9022D06D174
:101A60000D2C01D00E2C02D1002006F025FC012007
:101A70008BE7000000023000000801402DE9FF471D
:101A800080460F4600200390019002900090B8F12C
:101A9000070F02DB04B0BDE8F087102F01DB002048
:101AA000F8E7042101FA08F141F00100012106F0F4
:101AB00035FCB8F1020F0CD10D2F01D00E2F08D13B
:101AC000012006F0F9FB002006F0D6FC0020FFF70D
:101AD000CBFC0120B84080B2ADF80C0004208DF89A
:101AE0000F0003208DF80E0057490A1502FB08105D
:101AF00003A901F0F5F8B8F1020F06D10D2F01D0BE
:101B00000E2F02D1002006F0D7FB4FF4A06001F0A9
:101B100007FBB8F1070F1AD2DFE808F004070A0D37
:101B2000101316004FF0000913E04FF0010910E008
:101B30004FF002090DE04FF003090AE04FF00409ED
:101B400007E04FF0050904E04FF0060901E000202E
:101B5000A0E700BF102F51D2DFE807F0080C1014E7
:101B6000181C2024282D32373C41464B06250124E1
:101B7000002645E007250224012641E0082504242B
:101B800002263DE009250824032639E00A25102411
:101B9000042635E017252024052631E017254024AA
:101BA00006262DE017258024072629E017254FF467
:101BB0008074082624E017254FF4007409261FE0DE
:101BC00028254FF480640A261AE028254FF4006483
:101BD0000B2615E028254FF480540C2610E028250C
:101BE0004FF400540D260BE028254FF480440E26B8
:101BF00006E028254FF400440F2601E0002049E7C5
:101C000000BFE8B28DF8000001208DF801008DF8CA
:101C100002008DF80300684601F04AFA204600F001
:101C2000DBFF3146484601F03BF8019400208DF877
:101C3000080010208DF8090001208DF80A0001A885
:101C400000F0E4FF012025E7000801402DE9FF47EF
:101C500080460F4600200390019002900090B8F15A
:101C6000070F02DB04B0BDE8F087102F01DB002076
:101C7000F8E7042101FA08F141F00100012106F022
:101C80004DFBB8F1020F0CD10D2F01D00E2F08D152
:101C9000012006F011FB002006F0EEFB0020FFF70C
:101CA000E3FB0120B84080B2ADF80C0048208DF86D
:101CB0000F0003208DF80E0057490A1502FB08108B
:101CC00003A901F00DF8B8F1020F06D10D2F01D0D4
:101CD0000E2F02D1002006F0EFFA4FF4A06001F0C1
:101CE0001FFAB8F1070F1AD2DFE808F004070A0D4F
:101CF000101316004FF0000913E04FF0010910E037
:101D00004FF002090DE04FF003090AE04FF004091B
:101D100007E04FF0050904E04FF0060901E000205C
:101D2000A0E700BF102F51D2DFE807F0080C101415
:101D3000181C2024282D32373C41464B062501240F
:101D4000002645E007250224012641E00825042459
:101D500002263DE009250824032639E00A2510243F
:101D6000042635E017252024052631E017254024D8
:101D700006262DE017258024072629E017254FF495
:101D80008074082624E017254FF4007409261FE00C
:101D900028254FF480640A261AE028254FF40064B1
:101DA0000B2615E028254FF480540C2610E028253A
:101DB0004FF400540D260BE028254FF480440E26E6
:101DC00006E028254FF400440F2601E0002049E7F3
:101DD00000BFE8B28DF8000001208DF801008DF8F9
:101DE00002008DF80300684601F062F9204600F019
:101DF000F3FE3146484600F053FF019400208DF871
:101E0000080010208DF8090001208DF80A0001A8B3
:101E100000F0FCFE012025E7000801407FB50446E4
:101E20000D4616460020019002900390009001217B
:101E300001FA04F006F052FA062C1CD2DFE804F096
:101E400003070B0F13171C208DF8000016E01D2050
:101E50008DF8000012E01E208DF800000EE0322008
:101E60008DF800000AE036208DF8000006E03720EB
:101E70008DF8000002E0002004B070BD00BF4FF4F8
:101E8000A06001F04DF901208DF801008DF80200ED
:101E90008DF80300684601F00BF9A10201F18040C2
:101EA00007F0A4F901A807F00FFBADF80850ADF852
:101EB00004600020ADF80A00ADF80600A10201F1AF
:101EC000804001A907F0AEFAA10201F18040002193
:101ED00007F06EF9A10201F18040202107F094FA89
:101EE000A10201F18040012107F06EF9A10201F188
:101EF00080400122114607F07EFA0120BCE7000075
:101F00002DE9F04786B005460F4614469846DDE9B0
:101F10000E9A35B1012D09D0022D0CD0032D14D10C
:101F20000EE00121880306F0F9F912E001214804CE
:101F300006F0D4F90DE00121880406F0CFF908E09D
:101F40000121C80406F0CAF903E0002006B0BDE88C
:101F5000F08700BF0421A140042202FA09F21143D4
:101F600041F00100012106F0D9F935B1012D0BD066
:101F7000022D10D0032D1ED11CE0012C03D1012114
:101F8000042000F039FF18E0032C03D101210820C0
:101F900000F032FF11E0022C04D10121554800F07D
:101FA0002BFF06E0032C04D101215248203000F021
:101FB00023FF02E001E00020C8E700BF012000FA93
:101FC00008F080B2ADF8140018208DF81700032037
:101FD0008DF8160048490A1502FB041005A900F007
:101FE0007FFE012000FA0AF080B2ADF81400042050
:101FF0008DF817004049020202FB091005A900F004
:102000006FFE01970020ADF80800ADF80A00ADF8AA
:102010000C00ADF810000C20ADF80E0035B1012D0C
:102020000ED0022D16D0032D28D11DE001A9334872
:1020300007F084FE0121314807F025FE25261FE028
:1020400001A92F4807F07AFE01212D4807F01BFE59
:10205000262615E001A92B4807F070FE012129482A
:1020600007F011FE27260BE001A9274807F066FEBE
:102070000121254807F007FE342601E0002065E72E
:1020800000BF4FF4A06001F04BF88DF80060012014
:102090008DF801008DF802008DF80300684601F00C
:1020A00007F835B1012D0BD0022D10D0032D1CD116
:1020B00014E0012240F22551104807F01AFE16E004
:1020C000012240F225510E4807F013FE0FE00122D5
:1020D00040F225510B4807F00CFE08E0012240F2C7
:1020E0002551094807F005FE01E000202EE700BF5A
:1020F00001202BE7100014000008014000380140C7
:102100000044004000480040004C004070B50446C8
:102110000D4624B1012C17D0022C3FD129E0012318
:102120001A4629461E48FFF74BF801211C48FFF7C5
:10213000A8F800BF02211A48FFF706F80028F9D0D6
:102140001748FEF7FDFF70BD01231A4629461548C2
:10215000FFF736F801211348FFF793F800BF02217B
:102160001048FEF7F1FF0028F9D00E48FEF7E8FF0F
:10217000E9E701231A4629460B48FFF721F8012118
:102180000948FFF77EF800BF02210748FEF7DCFF91
:102190000028F9D00448FEF7D3FFD4E70020D2E7A7
:1021A0000024014000280140003C014070B5044675
:1021B0000D460122AA4091B2054A131503FB0420E3
:1021C00000F062FE08B1012070BD0020FCE70000B5
:1021D0000008014070B504460D46A9B2A20202F102
:1021E000804007F01AF970BD10B50748006848B183
:1021F0000549086808F0EFF9022803D00249086889
:1022000008F072FA10BD00007487002010B507486E
:10221000406848B10549486808F0DDF9022803D054
:102220000249486808F060FA10BD00007487002079
:1022300010B50748806848B10549886808F0CBF9AF
:10224000022803D00249886808F04EFA10BD000049
:102250007487002010B50748C06848B10549C868B0
:1022600008F0B9F9022803D00249C86808F03CFA1E
:1022700010BD00007487002010B501F0C5F81C489F
:1022800007F0C8FDC4B21B48008800F4004058BBEA
:102290001848008800F4804060B10A2C03D0002068
:1022A0001449088020E01348008840F40040114998
:1022B000088019E00D2C06D10E48008840F48040BB
:1022C0000C49088010E00B480088C0F30D000A4953
:1022D0000C5408480088401C0649088008460088BD
:1022E0007F2801DD0020088001F0A4F810BD000067
:1022F000003801402C0100204873002038B5002030
:10230000009001F081F8224807F084FDC4B2214812
:10231000008800F4004078BB1E48008800F480402C
:10232000C0B14B2C03D000201A4908802DE0194879
:102330000088C0F30D0018490C541648008840F47A
:102340000040144908806A464FF40041134801F0E8
:10235000F5FF1AE00F480088C0F30D000E490C5439
:102360000C480088401C0B4908804F2C05D10846BA
:10237000008840F48040088007E006480088B0F5F7
:10238000806F02DB00200349088001F053F838BD5C
:10239000004400402E010020C8730020B07B0020C4
:1023A00010B501F031F81C4807F034FDC4B21B48E9
:1023B000008800F4004058BB1848008800F48040B2
:1023C00060B10A2C03D000201449088020E0134893
:1023D000008840F400401149088019E00D2C06D116
:1023E0000E48008840F480400C49088010E00B48FB
:1023F0000088C0F30D000A490C5408480088401CAE
:1024000006490880084600887F2801DD00200880F2
:1024100001F010F810BD000000480040300100201D
:10242000C877002038B50020009000F0EDFF334859
:1024300007F0F0FCC4B2324801880088401C304AE2
:10244000108030484454FF2C4DD12F480078401C58
:102450002D49087008460078032190FBF1F201FB3A
:102460001200012804D126480078284908703AE073
:1024700025480078032190FBF1F201FB12000228AD
:102480000ED122480078401C1D490988884202D09C
:1024900001201D4908701A4800781C49087022E084
:1024A00019480078032190FBF1F201FB1200D0B92A
:1024B00016480078401C12490988884207D001203C
:1024C000114908700E480078104908700BE0002090
:1024D0000D4908706A464FF400410D4801F02EFF87
:1024E00000200C490870064800887F2802DD002083
:1024F0000349088000F09EFF38BD0000004C0040FA
:102500003201002048780020800100207F01002057
:10251000707A00207501002070B504460D461646FD
:102520000122AA4091B2044A131503FB042032464B
:1025300000F0B5FC70BD00000008014000BFFEE7E0
:1025400010B500F01FF800F019F810BD10B5002408
:1025500000BF00BFFDF70EFE044600BF00BF102104
:10256000054800F024FD00BF00BF2046FDF706FE31
:1025700000BF00BF10BD0000A801002010B5FFF78C
:10258000E5FF10BD10B500200249086000F00AF810
:1025900010BD0000280000200149086070470000BD
:1025A0002800002010B5FEF773FF044608480068B5
:1025B00040F08070064908600020064948600846DF
:1025C000006840F0010008602046FFF7E5FF10BDFD
:1025D000FCED00E0001000E0014948687047000091
:1025E000001000E010B5044614212D48FDF722FE2E
:1025F000D62C1AD12B480068807C012805D12AA24C
:102600002DA1274808F018F848E026480068807C8B
:1026100028B92AA228A1224808F00EF83EE022A2FA
:1026200025A11F4808F008F838E0D52C1AD11D481C
:102630000068807C012805D122A21FA1184807F05C
:10264000FBFF2BE017480068807C28B921A21AA163
:10265000134807F0F1FF21E01AA217A1104807F074
:10266000EBFF1BE0AF2C19D10E480068807C0128DD
:1026700005D11BA210A10A4807F0DEFF0EE00948B1
:102680000068807C28B918A20BA1054807F0D4FF88
:1026900004E013A208A1024807F0CEFF002010BDFD
:1026A000BE8600204C01002057686F6C65202062B8
:1026B0006C6F6F640000000025730000C8ABD1AAE6
:1026C00000000000536572756D2F506C61736D6171
:1026D00000000000D1AAC7E52FD1AABDAC000000C0
:1026E0004F74686572000000C6E4CBFB0000000078
:1026F000704700002DE9F04F85B005460E4617469D
:102700009846DDE910ABDDF83C9018210120FDF77B
:10271000F1FD04461CB9002005B0BDE8F08F022D84
:1027200004DB204608F09EFF0020F5E7184850F82B
:10273000250030B1204608F095FF154850F8254097
:1027400002E0134840F82540A5712673677384F8AA
:102750000E800E98E07384F8109084F811A084F82D
:1027600012B01298E07413982075DDE912108DE80C
:10277000000ECDE903104246394630460E9BFEF767
:10278000ADFE0120207000206080A0802046C3E7BD
:102790009001002010B50246002307E0108983B2A3
:1027A00000BF181EA3F10104A3B2FAD1081EA1F1C3
:1027B0000104A1B2F2D1012010BD10B504460021E0
:1027C000204607F047FE204607F072FE0121204612
:1027D00007F04FFE02212046FFF7DCFF01212046D3
:1027E00007F038FE02212046FFF7D4FF00212046E3
:1027F00007F030FE012010BD70B5064600253046BA
:1028000007F046FE002417E00021304607F022FEC4
:1028100002213046FFF7BEFF0121304607F01AFEC5
:10282000304607F00FFE40EA4500C5B201213046B0
:10283000FFF7B0FF601CC4B2082CE5DB284670BD72
:1028400070B506460C46304607F032FE0021304691
:1028500007F000FE00251EE0E00920B1012130460E
:1028600007F007FE03E00021304607F002FE600695
:10287000040E01213046FFF78DFF0121304607F09D
:10288000E9FD02213046FFF785FF0021304607F0C1
:10289000E1FD681CC5B2082DDEDB012070BD10B55E
:1028A0000446204607F004FE0121204607F0E1FD22
:1028B0000121204607F0CEFD04212046FFF76AFFE4
:1028C0000021204607F0D5FD04212046FFF762FFD6
:1028D0000021204607F0BEFD012010BD10B50446C2
:1028E000204607F0E5FD0021204607F0B3FD00215A
:1028F000204607F0BEFD04212046FFF74BFF0121D3
:10290000204607F0B6FD04212046FFF743FF0121D2
:10291000204607F09FFD012010BD70B5054600243C
:10292000284607F0B5FD0121284607F0A2FD012148
:102930002846FFF72FFF0121284607F08BFD0121D4
:102940002846FFF727FF08E0601C84B2FA2C04DD5C
:102950002846FFF7C3FF002070BD284607F072FD30
:102960000028F1D10021284607F074FD0120F3E78B
:1029700008B50020009000F047FD012000F032F97A
:1029800098B1012000F028F90948006810B1084901
:102990000868804700210120FFF708FC28B96A4633
:1029A0004FF40041034801F0C9FC00F043FD08BDAD
:1029B00034870020107B002010B500F025FD4FF477
:1029C000806000F00FF948B14FF4806000F004F926
:1029D0002948806A10B12849886A80474FF400600E
:1029E00000F000F948B14FF4006000F0F5F822481B
:1029F000C06A10B12049C86A80474FF4805000F087
:102A0000F1F848B14FF4805000F0E6F81A48006B36
:102A100010B11949086B80474FF4005000F0E2F8FC
:102A200048B14FF4005000F0D7F81348406B10B194
:102A30001149486B80474FF4804000F0D3F848B10B
:102A40004FF4804000F0C8F80B48806B10B10A4981
:102A5000886B80474FF4004000F0C4F848B14FF451
:102A6000004000F0B9F80448C06B10B10249C86BCF
:102A7000804700F0DFFC10BD3487002010B500F067
:102A8000C3FC022000F0AEF840B1022000F0A4F830
:102A90000448406810B103494868804700F0CAFC08
:102AA00010BD00003487002010B500F0ADFC0420FC
:102AB00000F098F860B1042000F08EF806488068B5
:102AC00010B105498868804702210846FFF76EFB70
:102AD00000F0B0FC10BD00003487002010B500F0FD
:102AE00093FC082000F07EF840B1082000F074F854
:102AF0000448C06810B10349C868804700F09AFCD8
:102B000010BD00003487002010B500F07DFC1020BF
:102B100000F068F840B1102000F05EF80448006949
:102B200010B103490869804700F084FC10BD000023
:102B30003487002010B500F067FC202000F052F828
:102B400040B1202000F048F82248406910B12149E6
:102B500048698047402000F045F840B1402000F02F
:102B60003BF81C48806910B11A4988698047802069
:102B700000F038F840B1802000F02EF81548C06908
:102B800010B11449C86980474FF4807000F02AF8EA
:102B900068B14FF4807000F01FF80E48006A10B161
:102BA0000C49086A804708210020FFF7FFFA4FF41C
:102BB000007000F017F848B14FF4007000F00CF806
:102BC0000448406A10B10349486A804700F032FC6B
:102BD00010BD0000348700200149086070470000E4
:102BE00014040140014600200022074B1B6803EA41
:102BF0000102054B14331B680B4013B10AB10120CD
:102C000000E000207047000000040140002123493B
:102C10008279002A3AD00A46126803689A430B4622
:102C20001A600A1D126803689A430B1D1A60027924
:102C300011440A6803681A430A60184A0832126885
:102C400003689A43154B08331A601A1D126803680B
:102C50009A43124B0C331A604279102A0ED11A1F74
:102C6000126803681A430D4B08331A601A1D126864
:102C700003681A43094B0C331A600DE00749427987
:102C800011440A6803681A430A6005E00279114496
:102C90000A6803689A430A60704700000004014014
:102CA00030B500228B071C0F0F2303FA04F20B4BE5
:102CB0008C1053F824309343084C8D1044F8253081
:102CC00023468C1053F824308C07240F00FA04F4A8
:102CD0002343024C8D1044F8253030BD08000140DC
:102CE0002DE9F041024600250026002000230024A3
:102CF000002791F803C00CF00F0591F803C00CF009
:102D0000100CBCF1000F03D091F802C04CEA05058D
:102D100091F800C0BCF1000F31D0146800202BE006
:102D20004FF0010C0CFA00F3B1F800C00CEA0306F6
:102D30009E4220D183004FF00F0C0CFA03F7BC43E6
:102D400005FA03FC4CEA040491F803C0BCF1280F17
:102D500006D14FF0010C0CFA00FCC2F814C00AE0D6
:102D600091F803C0BCF1480F05D14FF0010C0CFAEB
:102D700000FCC2F810C0401C0828D1D31460B1F880
:102D800000C0BCF1FF0F34DD546800202EE000F1DC
:102D9000080C4FF0010808FA0CF3B1F800C00CEA77
:102DA00003069E4221D183004FF00F0C0CFA03F76B
:102DB000BC4305FA03FC4CEA040491F803C0BCF1DF
:102DC000280F05D100F1080C08FA0CF8C2F814809D
:102DD00091F803C0BCF1480F07D100F1080C4FF087
:102DE000010808FA0CF8C2F81080401C0828CED35D
:102DF0005460BDE8F0810000F0B50A4600230024CD
:102E00000021002500F00046B6F1004F02D11D4E12
:102E1000F16901E01B4E7168C0F3034583B200F411
:102E20004016B6F5401F08D121F07061154E766846
:102E300026F07066134F7E6012E000F48016B6F53F
:102E4000801F06D1032606FA05F4A14341F0706104
:102E500006E0460D360103FA06F6B14341F0706113
:102E600022B1460D360103FA06F6314300F0004662
:102E7000B6F1004F02D1034EF16101E0014E7160E5
:102E8000F0BD0000000001400246002093680B40A6
:102E90000BB1012000E000207047016170470AB1CA
:102EA000016100E04161704709E0012251020448DC
:102EB000FFF7F5FF002204210148FFF7F0FFF4E7D8
:102EC000000C01400146CA1701EB92729210A1EB6F
:102ED000820292B9642091FBF0F200FB121050B90B
:102EE0004FF4C87091FBF0F200FB121008B90120FA
:102EF00070470020FCE70120FAE70020F8E7000017
:102F00002DE9FF4F87B005460E461746DDE918ABA1
:102F1000DDF85C90DDF8508008210120FDF7EAF92A
:102F200004461CB900200BB0BDE8F08F1C2D04DB5B
:102F3000204608F097FB0020F5E7144850F82500DC
:102F400030B1204608F08EFB104850F8254002E0D2
:102F50000E4840F82540A570169802A9A1E8010E78
:102F60001598CDE900803A46072128460A9B05F0CE
:102F7000C7FF6060002020700A2E00DA0A26667003
:102F80003146606806F01AF82046CCE7B487002086
:102F900070B504460D460A2D00DA0A2565702946EB
:102FA000606806F00BF8012070BD00BFFEE730B589
:102FB00005460C4622460021284600F001F830BDA7
:102FC0002DE9F04105460B4694460027002402E017
:102FD0003F021F43641C042CFAD3604605F003062D
:102FE000294646B1344603E001F8013B401E641C0B
:102FF00008B1042CF8D30A4601E080C2001F04285F
:10300000FBD2114602E001F8013B401E0028FAD134
:10301000BDE8F08110B5012211461046FFF77CFA99
:103020004FF47A724FF448610648006805F0B4F82E
:10303000012209210220FFF76FFA0248006805F01B
:10304000DFF810BD3401002010B5012211461046F2
:10305000FFF762FA4FF47A724FF44861064800684D
:1030600005F09AF8002209210220FFF755FA0248DC
:10307000006805F0C5F810BD3401002010B5044605
:1030800054B9012208210220FFF746FA002201214B
:103090000846FFF741FA09E0012211461046FFF702
:1030A0003BFA002208210220FFF736FA10BD7047D4
:1030B00070B5002100230F22C47804B3154C246896
:1030C00004F4E064C4F5E064210AC1F10403CA40D9
:1030D000447804FA03F184781440214309010E4C2A
:1030E0000678A155047804F01F050124AC4005784A
:1030F0006D11AD0005F1E025C5F8004109E0047847
:1031000004F01F050124AC40044D0678761145F803
:10311000264070BD0CED00E000E400E080E100E03E
:1031200002490143024A1160704700000000FA059D
:103130000CED00E01548164816481748174818487F
:103140001848194819481A481A481B481B481C486F
:103150001C481D481D481E481E481F481F4820483F
:10316000204821482148224822482348234824480F
:1031700024482548254826482648274827482848DF
:1031800028482948294800BF70470000C43001087A
:1031900024300108283001082C30010830300108A3
:1031A00034300108383001083C3001084030010853
:1031B00044300108483001084C3001085030010803
:1031C00054300108583001085C30010860300108B3
:1031D00064300108683001086C3001087030010863
:1031E00074300108783001087C3001088030010813
:1031F00084300108883001088C30010890300108C3
:1032000094300108983001089C300108A030010872
:10321000A4300108A8300108AC300108B030010822
:10322000B4300108B8300108BC300108C0300108D2
:1032300010B50348006810B101480068804710BD10
:103240004000002070B5044600F0C2F80020484954
:10325000087048490870484908704849086048495A
:10326000086048490870484908704849087048494A
:10327000086048490860484908604849087048485B
:1032800000680A21B0FBF1F0464908604648006832
:1032900058B14648056845B14348066803E0761EC4
:1032A000002028602D1D002EF9D100204049086023
:1032B000404908604049086040490860404908604A
:1032C00040490860404908604049087003F050F8E0
:1032D00003F048F9204602F06BF9208800B170BD78
:1032E000204602F04DFD208800B1F8E7204602F0AC
:1032F0006FFD208800B1F2E7204602F087FE2088AB
:1033000000B1ECE7204603F07BF8208800B1E6E747
:10331000204603F0B7FA208800B1E0E7204603F02A
:10332000D9FD208800B1DAE7204602F095FC20881C
:1033300000B1D4E7204602F0ADFA208800B1CEE714
:10334000204604F037FD208800B1C8E7204603F08E
:1033500005FD208800B1C2E7204604F087FD2088E3
:1033600000B1BCE702F04CF8FFF7E4FE00BFB6E79F
:1033700054000020550000209C000020F400002094
:10338000F80000208200002083000020840000203C
:10339000900000209400002098000020A40000204D
:1033A00084300108A000002054300108503001088A
:1033B00034000020380000203C00002040000020A5
:1033C00044000020480000204C000020D2000020D3
:1033D0000A4A1168002002E0002204C1401C084A89
:1033E00012689042F8D3054A1268054B1B6802EB3D
:1033F0008302121F034B1A6070470000503001080F
:1034000054300108FC00002008480078012800D052
:10341000704707480078FA2800DBF9E7044800788D
:10342000401C0349087000BFF2E70000550000206F
:103430005400002010B500242E480078012800D048
:1034400010BD00BFFCF796FE044600BF2A48007876
:1034500028B900BF2046FCF791FE00BFF0E72648E0
:103460000078401E2449087008460078002805DDD1
:1034700000BF2046FCF782FE00BFE1E71F4800784E
:10348000002805DD00BF2046FCF778FE00BFD7E727
:1034900002F05AFF1A4908700846007800EB400015
:1034A000184951F820001849086008460068174973
:1034B0000968884205D100BF2046FCF75FFE00BFC7
:1034C000BEE711480068D0F89000401C0E4909681A
:1034D000C1F890000E480068401C0D4908604FF08C
:1034E00080500C49086000BF2046FCF747FE00BF33
:1034F00000BFA5E755000020540000209C000020DC
:1035000083000020DC170020F8000020F4000020D9
:10351000C800002004ED00E02DE9F04104460E460D
:103520001546002729480078002804DD42F6E160AE
:103530002880BDE8F0811CB945F6C3502880F8E723
:1035400000BF00BF00BFFCF715FE074600BF00BF6D
:103550001F480078401C1E49087000BF00BF384655
:10356000FCF70CFE00BF00BF00BF1A482060666079
:103570000020206284F82500A062402084F8240006
:1035800004F1080002F0F9FD204602F027FD124880
:103590000088401C1049088000BF00BF00BFFCF736
:1035A000E9FD074600BF00BF09480078401E0849F2
:1035B000087000BF00BF3846FCF7E0FD00BF00BF49
:1035C00000BF0020288000BFB3E7000054000020A7
:1035D0009C0000204D555458800000202DE9F047F4
:1035E00088B00546894690461C46109E4FF0000A5A
:1035F000AB480078002805DD46F2AE10308008B0F8
:10360000BDE8F0871DB945F6C3503080F7E7B8F143
:10361000000F03D0B8F5004F02D100E000BF03E077
:1036200045F625603080EAE700BF9E492868884259
:1036300003D045F6C4503080E1E70CB10020206093
:1036400000BF00BFFCF796FD824600BF00BF95F8A3
:103650002500C0B99448006828629348006890F833
:10366000370085F82400012085F825000CB1A86AF0
:10367000206000BF00BF5046FCF780FD00BF00BFC8
:1036800000203080BBE78849286A0968884212D147
:1036900095F82500401C85F825000CB1A86A20602B
:1036A00000BF00BF5046FCF769FD00BF00BF45F2F8
:1036B00082703080A3E708F4004050B100BF00BF23
:1036C0005046FCF75BFD00BF00BF46F2B0103080F3
:1036D00095E77648007800280ADD00BF00BF504615
:1036E000FCF74CFD00BF00BF46F66350308086E714
:1036F00000BF6E480078401C6C49087000BF00BFD6
:103700005046FCF73BFD00BF00BF00BF2F6A97F893
:1037100037006549096891F83710884260DD97F8ED
:10372000360008282AD2DFE800F004151E1F1716FD
:103730002021384602F09EFF5B48006890F8370071
:1037400087F8370097F8370002F01EFE384602F07F
:1037500031FF44E000BF00BF5348006890F83700D5
:1037600087F837003BE000BF00BF00BF4E4800684D
:1037700090F83710384602F0DDFC30E000BF00BFA3
:1037800000BFFCF7F7FC824600BF00BF4748007847
:10379000401E4649087008460078A0B94448008891
:1037A000002809DD00BF00BF5046FCF7E7FC00BF62
:1037B00000BF02F08DFF0DE000BF00BF5046FCF7D8
:1037C000DDFC00BF06E000BF00BF5046FCF7D6FCA2
:1037D00000BF00BF00BF46F62D6030800FE700BF7E
:1037E0004B4604222946684602F01CFC00BF00BF7D
:1037F00000BFFCF7BFFC824600BF00BF2B4800782B
:10380000401E2A49087000BF00BF5046FCF7B6FCB6
:1038100000BF00BF00BF00F039FB00BF00BFFCF7D6
:10382000A9FC824600BF00BF1F48006890F8350021
:1038300030B101280CD002281AD0032821D110E081
:103840001CB119480068006C2060002030801CE02A
:103850001CB115480068006C206046F2A910308049
:1038600013E00CB10020206047F2D92030800CE03A
:103870001CB10D480068006C206045F6C2503080D5
:1038800003E046F62E60308000BF00BF00BF00BFDF
:103890005046FCF773FC00BF00BF00BFAFE600005E
:1038A000540000204D555458F40000209C00002086
:1038B000600000202DE9F84F0446884615464FF079
:1038C000000A89480078002804DD46F20E2028808E
:1038D000BDE8F88F1CB945F6C3502880F8E7B8F169
:1038E000000F03D0B8F5004F02D100E000BF03E0A5
:1038F00045F625602880EBE700BF7C4920688842B8
:1039000003D045F6C4502880E2E700BF00BFFCF7B3
:1039100031FC824600BF00BF7549206A09688842B1
:103920000AD000BF00BF5046FCF728FC00BF00BF14
:1039300045F281702880CBE700BF6E480078401CBC
:103940006C49087000BF00BF5046FCF717FC00BF71
:1039500000BF00BFFEF740FE0746A76294F82500AF
:10396000401E84F8250094F82500002830DD00BFB3
:1039700000BF00BFFCF7FEFB824600BF00BF5D48F2
:103980000078401E5B49087008460078A0B95A4884
:103990000088002809DD00BF00BF5046FCF7EEFBA1
:1039A00000BF00BF02F094FE0DE000BF00BF504614
:1039B000FCF7E4FB00BF06E000BF00BF5046FCF789
:1039C000DDFB00BF00BF00BF45F2837028807FE7AA
:1039D00004F10809B9F8080098BB0020206284F8B7
:1039E000250000BF00BF00BFFCF7C4FB824600BF3C
:1039F00000BF40480078401E3E49087008460078E5
:103A0000A0B93D480088002809DD00BF00BF50462E
:103A1000FCF7B4FB00BF00BF02F05AFE0DE000BF90
:103A200000BF5046FCF7AAFB00BF06E000BF00BF86
:103A30005046FCF7A3FB00BF00BF00BF002028805A
:103A400046E7FFE72A48006890F8370094F824100A
:103A5000884219D02648006802F00CFE94F8240031
:103A60002349096881F837002149096891F837002E
:103A700002F08AFC1E48006802F0BCFD1C48006889
:103A800090F837001D490870D9F800008668266252
:103A900096F8370084F82400012084F825000023DC
:103AA0001A4631462046009702F0D8FB00BF00BFFF
:103AB00000BFFCF75FFB824600BF00BF0D480078E7
:103AC000401E0C49087000BF00BF5046FCF756FB73
:103AD00000BF00BF00BF08F4004008B900F0D6F9ED
:103AE0000020288000BFF3E6540000204D555458B4
:103AF000F40000209C0000206000002082000020D4
:103B00002DE9F04104460F4616461D464FF00008C9
:103B10002A480078002804DD42F6E1602880BDE8EC
:103B2000F0811CB945F6C3502880F8E71EB946F26B
:103B300094502880F3E700BF00BF00BFFCF71AFBDA
:103B4000804600BF00BF1E480078401C1C4908701A
:103B500000BF00BF4046FCF711FB00BF00BF00BF25
:103B6000184820606760314604F1200002F0B0F987
:103B700004F1080002F001FB204602F029FC124883
:103B80000088401C1049088000BF00BF00BFFCF740
:103B9000F1FA804600BF00BF09480078401E08497E
:103BA000087000BF00BF4046FCF7E8FA00BF00BF46
:103BB00000BF0020288000BFB1E7000054000020B3
:103BC0009C000020515545558C0000202DE9F04FF8
:103BD00089B00746894690461E46DDE912544FF0EB
:103BE000000B78480078002806DD46F2AE102080F1
:103BF000002009B0BDE8F08F27B945F6C3502080FA
:103C00000020F6E726B946F2D52020800020F0E714
:103C1000B8F1000F03D0B8F5004F02D100E000BFAB
:103C200004E045F6256020800020E2E700BF6649F9
:103C30003868884204D045F6C45020800020D8E778
:103C40000DB10020286000BF00BFFCF793FA834647
:103C500000BF00BF23462A46314607F1200002F08C
:103C600003F98246208840B900BF00BF5846FCF7E0
:103C700085FA00BF00BF5046BBE708F4004058B1CA
:103C800000BF00BF5846FCF779FA00BF00BF46F2FC
:103C9000B01020800020ACE74C48007800280BDDF5
:103CA00000BF00BF5846FCF769FA00BF00BF46F6E8
:103CB0006350208000209CE700BF44480078401CEF
:103CC0004249087000BF00BF5846FCF757FA00BFD2
:103CD00000BF00BF4B460522394601A802F0A2F9F9
:103CE00000BF00BF00BFFCF745FA834600BF00BF1E
:103CF00036480078401E3549087000BF00BF58465E
:103D0000FCF73CFA00BF00BF00BF00F0BFF800BFE7
:103D100000BFFCF72FFA834600BF00BF2C480068A5
:103D200090F8350030B1012815D002282AD0032898
:103D300035D11DE026480068D0F85CA02448006812
:103D4000B0F8600030801DB121480068006C286028
:103D5000002020802BE04FF0000A002030801DB1B1
:103D60001B480068006C286046F2A91020801EE005
:103D70004FF0000A0020308005B1286047F2D920BA
:103D8000208014E04FF0000A002030801DB1104860
:103D90000068006C286045F6C250208007E04FF0B4
:103DA000000A0020308046F62E60208000BF00BF51
:103DB00000BF00BF5846FCF7E1F900BF00BF504606
:103DC00017E7000054000020515545559C00002085
:103DD000F40000202DE9FF470546884691461F461E
:103DE0000C9C25B945F6C3502080BDE8FF87B7F588
:103DF000004F19D009DC9FB1102F12D0B7F5007F0A
:103E000010D0B7F5047F13D10DE0A7F500401038AE
:103E100058B1B0F5F87F09D0B0F5007F08D106E0C1
:103E200000BF00BF00BF00BF00BF00BF00BF03E076
:103E300045F625602080D8E700BF124928688842EF
:103E400003D045F6C4502080CFE7FEF7C5FB0646F9
:103E50000D48007800280BDD00204B4642462946DD
:103E6000CDE9017603940090064801F04BFDBCE7D4
:103E70003B464A4641462846CDE9006402F0CCFA6A
:103E800000BFB2E7515545555400002010B500243D
:103E900020480078002800DD10BD1F480078002869
:103EA00000DDF9E700BFFCF765F9044600BF02F04A
:103EB0004BFA1A4908700846007800EB4000184990
:103EC00051F820001749086008460068164909683B
:103ED000884205D100BF2046FCF750F900BFDBE760
:103EE00010480068D0F89000401C0E490968C1F8DD
:103EF00090000E480068401C0C4908604FF080504C
:103F00000B49086000BF2046FCF738F900BF00BF2E
:103F1000C2E70000540000209C0000208300002025
:103F2000DC170020F8000020F4000020C80000206A
:103F300004ED00E070B5044600251848007800281C
:103F400003DD46F66250208070BD154800780128D8
:103F500003D045F689602080F6E712480078FA28F9
:103F600003DB45F209202080EEE700BF00BFFCF72D
:103F700001F9054600BF00BF0A480078401C094906
:103F8000087002F0D3FB00BF00BF2846FCF7F6F82C
:103F900000BF00BF0020208000BFD5E754000020F4
:103FA000550000209C0000202DE9F04105460C46FC
:103FB0001646002700BF00BFFCF7DCF8074600BF2D
:103FC00000BF012D03D000200D49087002E0012040
:103FD0000B49087014B10B48046006E00A480068F9
:103FE0000A21B0FBF1F00749086000BF00BF384666
:103FF000FCF7C4F800BF00BF00203080BDE8F081AE
:10400000A4000020A00000208430010870B5044600
:10401000002520480078002803DD46F66550208002
:1040200070BD1D480078012803D045F689602080C6
:10403000F6E71A48007818B946F664502080EFE792
:1040400000BF00BFFCF796F8054600BF00BF13484D
:104050000078401E114908700846007800280ADDE3
:1040600000BF00BF2846FCF789F800BF00BF46F636
:1040700063502080D4E702F067FB00BF00BF2846F2
:10408000FCF77CF800BF00BFFFF700FF0020208096
:1040900000BFC5E754000020550000209C00002010
:1040A0002DE9F04104460E4617461D464FF0000824
:1040B00026480078002804DD42F6E1602880BDE84B
:1040C000F0811CB945F6C3502880F8E700BF00BF57
:1040D00000BFFCF74FF8804600BF00BF1C480078C7
:1040E000401C1B49087000BF00BF4046FCF746F863
:1040F00000BF00BF00BF1748206027620020606239
:10410000666004F1080002F038F8204602F0A2FBD5
:1041100011480088401C1049088000BF00BF00BF44
:10412000FCF728F8804600BF00BF09480078401E11
:104130000749087000BF00BF4046FCF71FF800BFEA
:1041400000BF00BF0020288000BFB8E75400002057
:104150009C00002053454D41AC0000202DE9F04764
:1041600088B00646894690461C46109D4FF0000ACE
:104170006E480078002806DD46F2AE102880002048
:1041800008B0BDE8F08726B945F6C3502880002066
:10419000F6E7B8F1000F03D0B8F5004F02D100E008
:1041A00000BF04E045F6256028800020E8E700BF56
:1041B0005F493068884204D045F6C450288000200A
:1041C000DEE70CB10020206000BF00BFFBF7D2FF8C
:1041D000824600BF00BF306A88B1306A401E30623C
:1041E0000CB1706A2060376A00BF00BF5046FBF711
:1041F000C5FF00BF00BF002028803846C0E708F494
:10420000004060B1376A00BF00BF5046FBF7B6FF01
:1042100000BF00BF46F2B01028803846B0E74548DE
:10422000007800280BDD00BF00BF5046FBF7A6FF5B
:1042300000BF00BF46F6635028800020A0E700BF03
:104240003C480078401C3B49087000BF00BF504606
:10425000FBF794FF00BF00BF00BF4B46062231466C
:10426000684601F0DFFE00BF00BF00BFFBF782FF22
:10427000824600BF00BF2F480078401E2D490870BD
:1042800000BF00BF5046FBF779FF00BF00BF00BF73
:10429000FFF7FCFD00BF00BFFBF76CFF824600BFCD
:1042A00000BF2548006890F8350030B101280CD0D7
:1042B00002281AD0032821D110E01CB11E48006842
:1042C000006C20600020288024E01CB11A4800689F
:1042D000006C206046F2A91028801BE00CB1002081
:1042E000206047F2D920288014E01CB112480068F1
:1042F000006C206045F6C25028800BE046F62E6028
:10430000288000BF00BF5046FBF738FF00BF00BF4A
:10431000002035E700BF376A00BF00BF5046FBF7FB
:104320002DFF00BF00BF38462AE7000054000020E0
:1043300053454D419C000020F40000202DE9FF4131
:1043400005460F46144635B945F6C3502080002077
:1043500004B0BDE8F0814FB1B7F5007F07D0B7F5E5
:10436000004F05D0B7F5024F04D102E000BF00BFF7
:1043700000BF04E045F6256020800020E8E700BF8C
:1043800012492868884204D045F6C4502080002095
:10439000DEE7FEF721F906460D48007800280CDD1F
:1043A0000020034602462946CDE901760394009099
:1043B000064801F0A7FA0020CAE7234632463946EC
:1043C000284602F06BFA80464046C1E753454D410E
:1043D000540000202DE9F04104460E4615464FF0EA
:1043E00000081A480078002804DD46F6C6502880E8
:1043F000BDE8F0811CB945F6C3502880F8E71449A0
:104400002068884203D045F6C4502880F0E7002099
:10441000288000BF00BFFBF7ADFE804600BF00BF95
:10442000206A08B1266208E004F10807388908B953
:10443000266202E047F25F10288000BF00BF4046BE
:10444000FBF79CFE00BF00BF00BFD1E75400002077
:1044500053454D4110B5044612480078E8B901F0C3
:1044600073FF1149087008460078104908700E481B
:10447000007800EB40000E4951F820000D4908601B
:10448000084600680C490860012006490870FCF7DE
:10449000C7FD43F69920208002E045F68A6020801F
:1044A00010BD000055000020830000208200002085
:1044B000DC170020F8000020F40000202DE9F04176
:1044C00007464FF0000800BF00BFFBF753FE8046D1
:1044D00000BF00BF00203D4908603D4908803D49BC
:1044E00008803D4908603D4908603D4908603D49F4
:1044F00008603D49088100BF00BF4046FBF73EFE13
:1045000000BF00BF00BF00BFFBF734FE804600BF06
:1045100000BF3648046800BF00BF4046FBF72EFED0
:1045200000BF00BF21E000BF00BFFBF723FE8046B5
:1045300000BF00BF00207834E06320602063A061EA
:10454000A082E0826062A062FEF746F82062783CBA
:1045500004F164060020B081D4F8BC4000BF00BF65
:104560004046FBF70BFE00BF00BF002CDBD100BFB5
:1045700000BFFBF7FFFD804600BF00BF1C48056879
:1045800000BF00BF4046FBF7F9FD00BF00BF12E0CF
:1045900000BF00BFFBF7EEFD804600BF00BF05F186
:1045A00020060020B081AD6900BF00BF4046FBF788
:1045B000E5FD00BF00BF002DEAD103F0D7FA03F0FC
:1045C00051FD00203880BDE8F08100006800002027
:1045D00062000020B2000020C4000020D8000020AB
:1045E000E400002094000020D0170020CC00002020
:1045F00088000020F8B5044600266946324800F0DD
:10460000C1FCBDF8000018B1BDF800002080F8BD65
:104610006A460021022000F029FDBDF8000018B113
:10462000BDF800002080F2E700BF00BFFBF7A2FD4D
:10463000064600BF00BF00202449086000BF00BF3D
:104640003046FBF79BFD00BF00BF002520480068F7
:1046500020490968884205D91D4800681D49096834
:10466000B0FBF1F525B91A4800680A21B0FBF1F555
:104670006A460021284600F0F9FC6946124800F01D
:1046800063FABDF8000018B1BDF800002080BEE755
:1046900000BF00BFFBF76EFD064600BF00BF002055
:1046A0000D490860094800680C49086001200C4960
:1046B000087000BF00BF3046FBF760FD00BF00BFC1
:1046C0000020208000BFA2E7641C0020B40000206E
:1046D000843001086C300108C4000020B8000020BC
:1046E000C000002010B50348006810B10148006800
:1046F000804710BD440000202DE9FF4F87B00446DD
:104700009046DDE91BA5DDE91496179F0020039074
:1047100087480078002805DD47F24A1028800BB052
:10472000BDE8F08F1CB947F2AD102880F7E7B8F16B
:10473000000F03D147F24F102880F0E71EB946F66C
:104740002F602880EBE77B480068874203D246F65B
:1047500030602880E3E71698B84203D346F631600C
:104760002880DCE7B9F1400F03D346F2732028809C
:10477000D5E7B9F1000F06D16F48844203D046F265
:1047800073202880CBE7B9F13F0F06D16B488442F4
:1047900003D046F273202880C1E7204602F0AAFB2E
:1047A000002028800AF0010090B10AF0020078B1E0
:1047B00005960020069008E0002105980160059804
:1047C000001D05900698401C06900698B842F3D349
:1047D000169806EB80000490CDE9007A32464046F8
:1047E000049B0A9900F06EFB0590C4F828800A9893
:1047F000E0620898206284F8379005982060049859
:10480000A06019986065199818B94D480068A065AE
:1048100001E01998A0651A9860606662A763A4F821
:104820003CA04FF0000B08E0002104F17C0040F8B0
:104830002B100BF1010000F0FF0BBBF1000FF3D0C8
:1048400004F16400189901F043FB204600F082F85F
:1048500000BF00BF00BFFBF78DFC039000BF00BF8F
:1048600038480078401C3749087000BF00BF0398E3
:10487000FBF784FC00BF00BF00BF94F8370001F0D5
:1048800083FD204601F0B6FE204602F0E9FA2E48EC
:104890000088401C2C4908802C48007801282DD025
:1048A00000BF00BF00BFFBF765FC039000BF00BF67
:1048B00024480078401E2349087008460078A0B9B3
:1048C00023480088002809DD00BF00BF0398FBF7DC
:1048D00055FC00BF00BF01F0FBFE0DE000BF00BFB4
:1048E0000398FBF74BFC00BF06E000BF00BF039836
:1048F000FBF744FC00BF00BF00BF10E700BF00BFD4
:1049000000BFFBF737FC039000BF00BF0D480078E5
:10491000401E0C49087000BF00BF0398FBF72EFC37
:1049200000BF00BF00BFFFF7B1FA00BFF7E600000D
:1049300054000020803001080C1700204816002089
:10494000A00000209C000020D00000205500002086
:104950006000002010B504460348006818B12046E6
:1049600001490968884710BD3400002070B504462D
:104970000D46002667480078002803DD47F24E10F8
:10498000288070BD6448844203D147F24C102880CF
:10499000F7E76248844203D147F24D102880F0E7E0
:1049A0007CB900BF00BFFBF7E5FB064600BF00BFB8
:1049B0005B48046800BF00BF3046FBF7DFFB00BF69
:1049C00000BF00BF00BF00BFFBF7D4FB064600BF1F
:1049D00000BF54480078401C5249087000BF00BF17
:1049E0003046FBF7CBFB00BF00BF00BF94F836009A
:1049F00008282DD2DFE800F004090E10080A0F1174
:104A0000204601F037FE54E053E000BF204603F09B
:104A100091F84EE000BF00BF00BF204603F08AF8C7
:104A200094F83400082810D2DFE800F004070508E5
:104A3000090A0B0600BF00BF08E000BF00BF00BFAF
:104A400000BF204601F0D1FB00E000BF00BF30E016
:104A500000BF00BF00BFFBF78DFB064600BF00BFD5
:104A600030480078401E2F49087008460078A0B9E9
:104A70002D480088002809DD00BF00BF3046FBF745
:104A80007DFB00BF00BF01F023FE0DE000BF00BFB3
:104A90003046FBF773FB00BF06E000BF00BF3046A7
:104AA000FBF76CFB00BF00BF00BF46F62D602880FF
:104AB00067E700BF04F1640001F0B4F9204600F09C
:104AC00037F8204602F0E4F918480088401E1749DC
:104AD0000880204602F00EFAFF2084F8360000BF5E
:104AE00000BF00BFFBF746FB064600BF00BF0D48F6
:104AF0000078401E0B49087000BF00BF3046FBF72E
:104B00003DFB00BF00BF00BF00202880FFF7BEF9BB
:104B100000BF36E754000020481600200C17002084
:104B2000F40000209C00002060000020D000002045
:104B300010B504460348006818B1204601490968C9
:104B4000884710BD380000207FB504460D4600267A
:104B500000BF00BFFBF70EFB064600BF00BF1CB145
:104B60001548006884420AD100BF00BF3046FBF7F9
:104B700005FB00BF00BF47F2571028807FBD00BF74
:104B800000BF3046FBF7FAFA00BF00BF0B480078C1
:104B900000280BDD002000900190034602462146CC
:104BA000CDE90205064800F0ADFEE7E729462046BC
:104BB00002F018FB00BFE1E7F400002054000020E1
:104BC0005452455310B504460348006818B12046B6
:104BD00001490968884710BD3C0000202DE9F047D5
:104BE00080460E4614461D464FF000097D48007869
:104BF000002805DD46F2AE1028800020BDE8F087D1
:104C00001EB1B6F5004F02D100E000BF04E045F64A
:104C1000256028800020F1E700BF0CB10020206053
:104C200000BF00BFFBF7A6FA814600BF00BF6E4879
:104C30000068406CA8B36C480068406C401E6A492C
:104C40000968486468480068476C1CB16648006899
:104C5000006C2060FDF7C0FC63490968096C401ACC
:104C600061490968C1F8A4005F480068D0F8A8004D
:104C70005D490968D1F8A410884207D25A480068F3
:104C8000D0F8A40058490968C1F8A80000BF00BFC7
:104C90004846FBF773FA00BF00BF00202880384663
:104CA000ACE7FFE706F4004058B100BF00BF48463C
:104CB000FBF764FA00BF00BF46F2B0102880002066
:104CC0009CE74A48007800280BDD00BF00BF48463B
:104CD000FBF754FA00BF00BF46F66350288000205F
:104CE0008CE700BF41480078401C4049087000BF75
:104CF00000BF4846FBF742FA00BF00BF00BF434673
:104D000007220021084601F08DF900BF00BF00BF57
:104D1000FBF730FA814600BF00BF34480078401EE0
:104D20003249087000BF00BF4846FBF727FA00BFB2
:104D300000BF00BFFFF7AAF800BF00BFFBF71AFAD9
:104D4000814600BF00BF2848006890F8350020B1B8
:104D5000012826D0032834D12CE0FCB12248006879
:104D6000006C2060FDF738FC1F490968096C401A87
:104D70001D490968C1F8A4001B480068D0F8A800C4
:104D800019490968D1F8A410884207D2164800686A
:104D9000D0F8A40014490968C1F8A80000202880B0
:104DA00013E01CB110480068006C206046F2A910A6
:104DB00028800AE00CB10020206047F2D92028802A
:104DC00003E046F62E60288000BF00BF064800685A
:104DD000476C00BF00BF4846FBF7D0F900BF00BFDB
:104DE00038460BE754000020F40000209C0000200F
:104DF0002DE9F04705460E4617461C464FF0000ABF
:104E00002E480078002804DD47F259102080BDE8C4
:104E1000F0871EB946F2D5202080F8E71FB946F288
:104E2000D5202080F3E700BF00BFFBF7A3F982463F
:104E300000BF00BF0DB922480568286868B900BFE7
:104E400000BF5046FBF79AF900BF00BF002030605A
:104E5000386047F252102080D9E795F83C0000F006
:104E6000010068B900BF00BF5046FBF787F900BFDB
:104E700000BF00203060386047F254102080C6E741
:104E800000BF00BF5046FBF779F900BF00BF4FF0ED
:104E90000008D5F8249003E009F1040908F101089D
:104EA000D9F800000028F7D0C6F80080A86BA0EB66
:104EB000080038600020208000BFA8E754000020D0
:104EC000F4000020F0B50446DDE9055602EB85004C
:104ED0004FF0807C071F3846C7F800C0071F3846D0
:104EE0003C60DFF89CC0071F3846C7F800C04FF091
:104EF000123C071F3846C7F800C04FF0033C071F9D
:104F00003846C7F800C04FF0023C071F3846C7F8C4
:104F100000C0071F38463B60071F384639604FF016
:104F2000113C071F3846C7F800C04FF0103C071F60
:104F30003846C7F800C04FF0093C071F3846C7F88D
:104F400000C04FF0083C071F3846C7F800C04FF0BC
:104F5000073C071F3846C7F800C04FF0063C071F44
:104F60003846C7F800C04FF0053C071F3846C7F861
:104F700000C04FF0043C071F3846C7F800C0F0BD22
:104F8000257300087FB505460C461248854203D1BB
:104F900047F25B1020807FBD0F48854203D147F266
:104FA0005C102080F7E70D48007800280BDD00201A
:104FB00000900190034602462946CDE902040848C4
:104FC00000F0A0FCE7E72146284602F019FC00BFEC
:104FD000E1E70000481600200C17002054000020D4
:104FE0005453555310B51D48006810B11B48006854
:104FF0008047FDF7F1FA0446194800681949096825
:10500000884215D016480068D0F89800201A144934
:105010000968C1F8940012480068D0F89C00104953
:105020000968D1F8941008440D490968C1F89C003A
:105030000C480068C0F8984009480068D0F8B400EF
:1050400009490968884205D2074800680449096887
:10505000C1F8B40000200449086010BD48000020D9
:10506000F4000020F8000020980000202DE9F04115
:1050700005460E46144600273F480078002804DD08
:1050800047F275202080BDE8F0813C480078002878
:1050900003DD46F663502080F5E736B1022E05D0D9
:1050A000042E0AD0082E09D101E000BF00BF1DB9AF
:1050B00047F27E202080E6E704E003E045F6256025
:1050C0002080E0E700BF00BF00BF00BFFBF752F841
:1050D000074600BF00BF29480078401C27490870D8
:1050E00000BF00BF3846FBF749F800BF00BF00BF54
:1050F00001202349096881F83600234632462946B3
:105100001F48006802F038FC2088A8B100BF00BF2B
:1051100000BFFBF72FF8074600BF00BF1748007815
:10512000401E1649087000BF00BF3846FBF726F83E
:1051300000BF00BF00BFA6E71148006801F09AFA5F
:1051400000BF00BF00BFFBF715F8074600BF00BF58
:105150000A480078401E0949087000BF00BF384661
:10516000FBF70CF800BF00BF00BFFEF78FFE00206A
:10517000208000BF87E70000540000209C00002032
:10518000F40000202DE9FF5F05460E4617469846BD
:10519000DDE90EA40020009072480078002804DDAC
:1051A00047F275202080BDE8FF9F6F4800780028F7
:1051B00003DD46F663502080F5E70AF00E0BBBF1E5
:1051C000000F09D0BBF1020F07D0BBF1040F10D0C4
:1051D000BBF1080F0ED101E000BF00BFB8F1000F16
:1051E00006D12FB926B91DB947F27E202080DAE713
:1051F00004E003E045F625602080D4E700BF2AF0F4
:105200001E0008B1012000E000200390039801284F
:1052100003D145F625602080C5E7CAF3001002904F
:105220000298C0B9B8F57A7F03D347F27B2020807B
:10523000B9E73B2F03DD47F27A202080B3E73B2E0E
:1052400003DD47F279202080ADE7632D12DD47F2C0
:1052500078202080A7E742F20F70864203DD47F2F4
:10526000792020809FE7B5F57A7F03DB47F278202D
:10527000208098E73D48D0F800904FF4FA70B0FBDA
:10528000F9F0404400FB09F04FF47A71B0FBF1F102
:105290004FF461606843C6EB061200EB82003844AD
:1052A00000FB091001900198002856D000BF00BFF4
:1052B00000BFFAF75FFF009000BF00BF2A480078E8
:1052C000401C2949087000BF00BF0098FAF756FF3C
:1052D00000BF00BF00BF01202549096881F83600E2
:1052E00023465A4622480199006802F045FB20886F
:1052F000A8B100BF00BF00BFFAF73CFF009000BF9D
:1053000000BF19480078401E1749087000BF00BF51
:105310000098FAF733FF00BF00BF00BF43E714480F
:10532000006801F0A7F900BF00BF00BFFAF722FF35
:10533000009000BF00BF0C480078401E0A4908706A
:1053400000BF00BF0098FAF719FF00BF00BF00BF01
:10535000FEF79CFD0020208002E047F27E202080A6
:1053600000BF20E7540000209C000020843001088A
:10537000F400002070B50446002600BF00BFFAF715
:10538000F9FE064600BF00BF0648056800BF00BF23
:105390003046FAF7F3FE00BF00BF00202080284609
:1053A00070BD0000D400002010B586B000F01EF8DB
:1053B000FDF712F9044605A800210091CDE901147A
:1053C00003900748007800EB4000064A02EB80019A
:1053D00000231A46044800F095FA06B010BD0000FC
:1053E00082000020DC1700205449434B10B50348CD
:1053F000006810B101480068804710BD4C000020D3
:10540000244825482548264826482748274828482C
:105410002848294829482A482A482B482B482C48FC
:105420002C482D482D482E482E482F482F483048CC
:10543000304831483148324832483348334834489C
:10544000344835483548364836483748374838486C
:105450003848394839483A483A483B483B483C483C
:105460003C483D483D483E483E483F483F4840480C
:1054700040484148414842484248434843484448DC
:10548000444845484548464846484748474800BF7D
:1054900070470000C830010830320108CA300108E6
:1054A000CB300108CC300108D0300108D4300108DD
:1054B000D1300108FC300108FD300108FE30010840
:1054C00000310108023101080431010806310108E8
:1054D00008310108283101082A3101082C3101085E
:1054E0002E31010830310108323101083431010810
:1054F000603101086131010862310108643101083D
:105500006631010867310108683101086A31010814
:105510006C3101086E3101087031010872310108E7
:1055200074310108A4310108A5310108A631010830
:10553000A7310108A8310108AA310108AC310108DE
:10554000D4310108D5310108D6310108D73101081D
:10555000D8310108DA310108DC310108E0310108F5
:10556000E1310108E2310108E3310108E4310108C9
:10557000E5310108E6310108E7310108E8310108A9
:10558000EA310108EB310108EC310108EE31010884
:10559000F0310108F1310108F43101082832010825
:1055A000293201082A3201082C3201082E32010862
:1055B0000021034A1160034A1180018070470000F6
:1055C0006C000020700000202DE9F04F85B00446EB
:1055D000894692469B46DDF838800020009000BF47
:1055E00000BFFAF7C7FD009000BF00BFBAF1000F7F
:1055F0000AD0BAF1010F0DD0BAF5004F05D06FF403
:105600000040504460B906E000BF206A40EA09004B
:10561000206214E000BF206A20EA090020620EE048
:1056200000BF00BF0098FAF7A9FD00BF00BF45F614
:105630002560A8F80000002005B0BDE8F08F00BF8D
:10564000C4F824B004F1080001900198008958B909
:1056500000BF00BF0098FAF791FD00BF00BF002017
:10566000A8F80000206AE7E700BF61480078401C06
:105670005F49087000BF00BF0098FAF77FFD00BFC8
:1056800000BF00BF01980768BD687FE0786802909E
:1056900095F8880000F00F0003900398012821D0AE
:1056A00002282ED0042802D0082836D10EE0206A25
:1056B000D5F8801000EA0106D5F88000B04204D188
:1056C0005A463146284600F097F859E0206AD5F846
:1056D000801000EA010626B15A463146284600F0FD
:1056E0008BF84DE0D5F88000216A20EA0106D5F854
:1056F0008000B04204D15A463146284600F07CF87A
:105700003EE0D5F88000216A20EA010626B15A461B
:105710003146284600F070F832E000BF00BF00BFFD
:10572000FAF728FD009000BF00BF31480078401E06
:105730002F49087008460078A0B92E480088002834
:1057400009DD00BF00BF0098FAF718FD00BF00BFD9
:1057500000F0BEFF0DE000BF00BF0098FAF70EFD9D
:1057600000BF06E000BF00BF0098FAF707FD00BFCA
:1057700000BF00BF43F6FF20A8F8000000205BE751
:1057800000BF029F0FB1BD6800E00025002D7FF42F
:105790007DAF00BF00BF00BFFAF7ECFC009000BF78
:1057A00000BF13480078401E1149087000BF00BFB9
:1057B0000098FAF7E3FC00BF00BF00BF0AF4004006
:1057C00008B9FEF763FB00BF00BFFAF7D3FC0090F7
:1057D00000BF00BF206A049000BF00BF0098FAF726
:1057E000CDFC00BF00BF0020A8F80000049823E70C
:1057F0009C0000206000002070B504460E4615464F
:1058000034342665002060702070E560A078343C58
:10581000082816D2DFE800F0040508090706101171
:1058200000BF00BF00BF0DE000BF204601F0CCFC70
:10583000002084F8360005E000BF042084F836001C
:1058400000E000BF00BF204600F0CFFC70BD0000AC
:10585000002400BF19E000BF00BFFAF78BFC04462C
:1058600000BF00BF09480068401C0849086008489C
:105870000068401C0649086000BF00BF2046FAF7D8
:105880007DFC00BF00BFFDF7D3FCE4E75000002023
:10589000B400002010B58AB0044600200E4908600C
:1058A0000B2000210591CDE90704069108460B491C
:1058B00009680B4A12680B4B1B68CDE90132CDE930
:1058C00003103F200023084A08A100900C48FEF76F
:1058D00013FF0AB010BD0000500000202C3001085A
:1058E00028300108243001085158000875432F4F13
:1058F000532D4949492049646C65205461736B00FC
:10590000481600202DE9F84F04460D4616461F465E
:10591000DDE90BABDDF82890DDF834800020009045
:1059200000BF00BFFAF726FC009000BF00BF2B4865
:1059300000882B49098888423EDA28480088401CA4
:1059400026490880274800880988884203DA2348C6
:1059500000882449088024480068046022480068C0
:10596000856021480068C6601F48006807821E489D
:105970000068C0F814901C480068A0F818A01A48E5
:105980000068C0F81CB018480068406816490860F4
:10599000012016490881164808604860002000F080
:1059A000F3FC1448007818B11248007812490870C6
:1059B0000020A8F8000008E010480088401C0F49AB
:1059C000088044F25360A8F8000000BF00BF0098B0
:1059D000FAF7D4FB00BF00BFBDE8F88F60000020DD
:1059E000383001086200002058000020DC17002039
:1059F0000C1700208200002084000020640000209A
:105A00003EB5594800680068584A811A904279D0DA
:105A10000FDC5749084400283ED056490844A8B135
:105A200055490844002860D05449084400286AD1E8
:105A30003FE053480844002850D052490844002809
:105A400062D0514908440028F1D110E002A8464D27
:105A500000902D68EB69444D2D682A8B424D2D68CE
:105A60006969414D2D68A868FFF7AEFD7AE002A98B
:105A70003D480068C0693C4DCDE900012D682B8B85
:105A8000394D2D682A8A384D2D68E968364D2D68C4
:105A9000A86800F0C1FC65E0334B1B68DA69324B43
:105AA0001B68198B304B1B68986802AB00F0F6FE40
:105AB00058E002A92C480068C0692B4DCDE90001CF
:105AC0002D682B8B284D2D682A8A274D2D68E96873
:105AD000254D2D68A86801F071FA43E02249096854
